:100000000C945C000C9484000C9484000C94840088
:100010000C9484000C9484000C9484000C94840050
:100020000C9484000C9484000C9484000C94840040
:100030000C9484000C9484000C9484000C94840030
:100040000C94B3040C9484000C9427070C94590767
:100050000C9484000C9484000C9484000C94840010
:100060000C9486030C948400000000080002010038
:100070000003040700000000000000000102040863
:100080001020408001020408102001020408102002
:10009000040404040404040402020202020203032E
:1000A0000303030300000000250028002B00FC00D0
:1000B0006701A4028907020111241FBECFEFD8E017
:1000C000DEBFCDBF11E0A0E0B1E0E4EDF7E102C09A
:1000D00005900D92A832B107D9F722E0A8E2B1E06D
:1000E00001C01D92A23BB207E1F710E0C6EBD0E0E1
:1000F00004C02297FE010E94A109CE3AD107C9F798
:100100000E94CD070C94DD0B0C94000026E040E823
:1001100055E260E070E081E192E00E94C50680E473
:1001200091E00C94850180E491E00E948C0180E4D0
:1001300091E00E94580190933F0180933E0180E43A
:1001400091E00E94490190933D0180933C0180E43D
:1001500091E00E943A0190933B0180933A0180E440
:1001600091E00E940601909339018093380180E468
:1001700091E00E941C01909337018093360180E446
:1001800091E00E942B0190933501809334010895F2
:1001900080E491E00E948C010E94930060912E0106
:1001A00070912F014AE050E081E192E00E94D8086E
:1001B0006AE381E192E00E941A0860913001709137
:1001C00031014AE050E081E192E00E94D8086AE300
:1001D00081E192E00E941A0860913201709133012E
:1001E0004AE050E081E192E00E94E00868E873E1B3
:1001F00080E090E00C94200566E071E088E291E0F8
:100200000C94660988E291E00C94F808FC01928154
:10021000292F2F7096FF05C096959695969592700A
:1002200004C09695969596959670892F880F880F9D
:10023000890F820F90E00895FC012181922F9695FD
:10024000969596959E71892F880F880F890F2F702C
:10025000820F90E00895FC012081922F969596954B
:1002600096959E70892F880F880F890F2F70820FA7
:1002700090E00895FC012681922F9695969596958B
:100280009E71892F880F880F890F2F70820F90E041
:100290000895FC012581922F9695969596959E71CD
:1002A000892F880F880F890F2F70820F90E0089593
:1002B000FC012481922F9695969596959E71892F93
:1002C000880F880F890F2F70820F90E0089588E4BF
:1002D00091E00C946802CF93DF93D82FC62F68E685
:1002E00070E088E491E00E948C026D2F88E491E038
:1002F0000E9429026C2F88E491E00E94290288E480
:1003000091E0DF91CF910C94A102FC0160816F77A5
:10031000608380E00C946B01CF93DF93EC0168E67F
:1003200070E088E491E00E948C0260E088E491E053
:100330000E94290288E491E00E94A10248E050E076
:1003400068E670E088E491E00E947F0288E491E032
:100350000E94D901888388E491E00E94D9018983B1
:1003600088E491E00E94D9018A8388E491E00E94A8
:10037000D9018B8388E491E00E94D9018C8388E4C1
:1003800091E00E94D9018D8388E491E00E94D90117
:100390008E8388E491E00E94D9018F83DF91CF9111
:1003A00008958091780190E020917901821B910954
:1003B00008952091790180917801281750F4E22F57
:1003C000F0E0E658FE4F808190E02F5F20937901A6
:1003D00008958FEF9FEF0895E09179018091780162
:1003E000E81730F4F0E0E658FE4F808190E0089581
:1003F0008FEF9FEF08950895CF92DF92EF92FF92D3
:100400000F931F93CF93DF937C01CB018A0120913F
:100410005401222389F0EB016B01C40ED51ECC15CB
:10042000DD0569F06991D701ED91FC910190F081B2
:10043000E02DC7010995F3CF642F0E945D03C80129
:10044000DF91CF911F910F91FF90EF90DF90CF90B0
:100450000895CF93DF931F92CDB7DEB769832091C4
:1004600054012223D1F020915501203240F021E0A7
:1004700030E0FC013383228380E090E015C080915E
:100480005601E82FF0E0E95AFE4F998190838F5F83
:10049000809356018093550105C061E0CE0101961D
:1004A0000E945D0381E090E00F90DF91CF9108956D
:1004B000FC011382128248EE53E060E070E0448356
:1004C0005583668377838BE091E0918380830895E1
:1004D00010927901109278011092560110925501F4
:1004E0000C94A802862F413208F040E26AE771E0DE
:1004F0000E94C6021092790180937801089521E04C
:100500000C94720281E08093540160937701109201
:1005100056011092550108950C9482020F93062FF4
:1005200021E04091550167E571E0809177010E94DB
:100530000A031092560110925501109254010F9126
:10054000089561E00C948E0288E491E00C945802C6
:100550001092070281E0809305021092040261E08C
:1005600082E10E94AC0561E083E10E94AC05E9EB09
:10057000F0E080818E7F808380818D7F808388E41E
:100580008093B80085E48093BC000895413208F060
:100590003FC0909107029111FCCF91E09093070228
:1005A000209305022FEF20939A011092DF01240F70
:1005B0002093DE019093060290910602880F892B0A
:1005C0008093060280910402813041F4109204026B
:1005D000809106028093BB0085EC01C085EE80937C
:1005E000BC00809107028130E1F38091DF01841724
:1005F00010F44091DF0120EE31E0FB01D9018A2F98
:10060000821B841718F48D918193F9CF842F08955C
:1006100080E008950F93413208F046C090910702A0
:100620009111FCCF92E090930702009305029FEF97
:1006300090939A011092DF014093DE01FB0160EE7E
:1006400071E0DB019A2F961B941718F491919D93FA
:10065000F9CF1092060290910602880F892B8093A1
:10066000060280910402813041F4109204028091CC
:1006700006028093BB0085EC01C085EE8093BC0030
:10068000222321F0809107028230E1F380919A01C8
:100690008F3F61F080919A01803251F080919A01F0
:1006A000803341F483E007C081E005C080E003C0EF
:1006B00082E001C084E00F910895613298F42091A6
:1006C0000702243089F46093BC01FC018EEB91E0B9
:1006D000DC012A2F281B261718F421912D93F9CF1E
:1006E00080E0089581E0089582E0089585ED80938B
:1006F000BC008091BC0084FDFCCF109207020895DD
:1007000085EC8093BC001092070208951F920F920F
:100710000FB60F9211242F933F934F935F936F93D4
:100720007F938F939F93AF93BF93EF93FF938091AA
:10073000B900887F803609F49CC068F5883209F4D6
:100740005BC090F4803109F454C038F4882309F474
:10075000F5C0883009F44DC0F5C0883109F44CC0AB
:10076000803209F45DC0EEC0803409F468C048F4FA
:10077000803309F455C0883309F0E4C080939A01AE
:10078000A8C0803509F44FC0883509F45DC08834AD
:1007900009F0D8C0D5C0883909F4C6C0A8F4883794
:1007A00009F467C038F4883609F463C0803709F467
:1007B00060C0C8C0883809F4B7C0803909F45FC088
:1007C000803809F0BFC05BC0803B09F485C038F4B5
:1007D000803A09F466C0883A09F47EC0B3C0803C10
:1007E00009F4A6C0883C09F4A3C0883B09F489C079
:1007F000A9C08091060210C09091DF018091DE01B6
:10080000981770F5E091DF0181E08E0F8093DF0192
:10081000F0E0E052FE4F80818093BB0085EC85C004
:1008200080939A018DC0E091DF0181E08E0F80936B
:10083000DF018091BB00F0E0E052FE4F8083909199
:10084000DF018091DE016DC0E091DF0181E08E0F5C
:100850008093DF018091BB00F0E0E052FE4F808387
:100860008091050281116CC081E08093040284EACA
:1008700060C083E08093070210929B01CFCF8091EC
:100880009B01803208F050C0E0919B0181E08E0F07
:1008900080939B018091BB00F0E0E456FE4F808383
:1008A000BDCF80919B01803230F4E0919B01F0E05C
:1008B000E456FE4F10820E94760360919B0170E027
:1008C000E0910002F09101028CE991E0099510920B
:1008D0009B010E94800336C084E08093070210923F
:1008E000BD011092BC01E0910202F0910302099552
:1008F0008091BC01811105C081E08093BC01109200
:10090000BE01E091BD0181E08E0F8093BD01F0E05A
:10091000E254FE4F80818093BB009091BD01809195
:10092000BC01981708F47ACF85E88093BC000AC010
:1009300085EC8093BC001092070204C010929A01CB
:100940000E947603FF91EF91BF91AF919F918F919C
:100950007F916F915F914F913F912F910F900FBEBB
:100960000F901F9018951F920F920FB60F9211249F
:100970002F933F938F939F93AF93BF9380910902DF
:1009800090910A02A0910B02B0910C0230910802E2
:1009900023E0230F2D3720F40196A11DB11D05C0C2
:1009A00026E8230F0296A11DB11D20930802809313
:1009B000090290930A02A0930B02B0930C0280915B
:1009C0000D0290910E02A0910F02B09110020196BB
:1009D000A11DB11D80930D0290930E02A0930F02F2
:1009E000B0931002BF91AF919F918F913F912F9142
:1009F0000F900FBE0F901F9018953FB7F8948091FD
:100A00000D0290910E02A0910F02B091100226B536
:100A1000A89B05C02F3F19F00196A11DB11D3FBF36
:100A20006627782F892F9A2F620F711D811D911DC6
:100A300042E0660F771F881F991F4A95D1F70895E6
:100A4000CF92DF92EF92FF92CF93DF936B017C0105
:100A50000E94FD04EB01C114D104E104F10489F00A
:100A60000E947C090E94FD046C1B7D0B683E734054
:100A700090F381E0C81AD108E108F108C851DC4FB1
:100A8000EACFDF91CF91FF90EF90DF90CF90089564
:100A9000789484B5826084BD84B5816084BD85B559
:100AA000826085BD85B5816085BDEEE6F0E0808120
:100AB00081608083E1E8F0E0108280818260808341
:100AC000808181608083E0E8F0E0808181608083C4
:100AD000E1EBF0E0808184608083E0EBF0E08081F6
:100AE00081608083EAE7F0E0808184608083808198
:100AF0008260808380818160808380818068808340
:100B00001092C1000895833081F028F4813099F06B
:100B10008230A1F008958730A9F08830B9F0843090
:100B2000D1F4809180008F7D03C0809180008F7709
:100B300080938000089584B58F7702C084B58F7D3F
:100B400084BD08958091B0008F7703C08091B0007C
:100B50008F7D8093B00008950F931F93CF93DF9301
:100B60001F92CDB7DEB7282F30E0F901E859FF4FCB
:100B70008491F901E458FF4F1491F901E057FF4FB8
:100B800004910023C9F0882321F069830E94830522
:100B90006981E02FF0E0EE0FFF1FEC55FF4FA591AC
:100BA000B4919FB7F8948C91611103C01095812383
:100BB00001C0812B8C939FBF0F90DF91CF911F912C
:100BC0000F910895FC01818D228D90E0805C9F4FF4
:100BD000821B91098F7399270895FC01918D828D55
:100BE000981731F0828DE80FF11D858D90E0089502
:100BF0008FEF9FEF0895FC01918D828D981761F022
:100C0000828DDF01A80FB11D5D968C91928D9F5F43
:100C10009F73928F90E008958FEF9FEF08958FE775
:100C200097E0892B49F080E090E0892B29F00E9421
:100C30007F0781110C9400000895FC01848DDF0171
:100C4000A80FB11DA35ABF4F2C91848D90E001963F
:100C50008F739927848FA689B7892C93A089B1892E
:100C60008C9180648C93938D848D981306C0028838
:100C7000F389E02D80818F7D80830895CF93DF936A
:100C8000EC01888D8823C9F0EA89FB89808185FD84
:100C900005C0A889B9898C9186FD0FC00FB607FCE5
:100CA000F5CF808185FFF2CFA889B9898C9185FF26
:100CB000EDCFCE010E941D06E7CFDF91CF910895C1
:100CC000CF92DF92FF920F931F93CF93DF931F92E8
:100CD000CDB7DEB76C01DC015B969C915B975C96AF
:100CE0008C915C97981307C05096ED91FC915197A9
:100CF000808185FD32C0F601038D10E00F5F1F4F2C
:100D00000F731127F02EF601848DF81211C00FB663
:100D100007FCF9CFD6015096ED91FC915197808157
:100D200085FFF1CFC60169830E941D066981EBCF63
:100D3000838DE80FF11DE35AFF4F6083D6015B9668
:100D40000C935B975296ED91FC9153978081806252
:100D5000808381E058968C930DC0D6015696ED9114
:100D6000FC91579760835096ED91FC91519780814B
:100D70008064808381E090E00F90DF91CF911F919C
:100D80000F91FF90DF90CF900895BF92CF92DF92A6
:100D9000EF92FF92CF93DF93EC016A017B01B22EB9
:100DA000E889F98982E08083411581EE5807610561
:100DB0007105A1F060E079E08DE390E0A701960174
:100DC0000E947D09215031094109510956954795E5
:100DD00037952795211580E1380798F0E889F9893A
:100DE000108260E874E88EE190E0A70196010E940D
:100DF0007D0921503109410951095695479537958B
:100E00002795EC85FD853083EE85FF852083188E40
:100E1000EC89FD89B082EA89FB89808180618083C9
:100E2000EA89FB89808188608083EA89FB898081E7
:100E300080688083EA89FB8980818F7D8083DF9150
:100E4000CF91FF90EF90DF90CF90BF9008951F92C9
:100E50000F920FB60F9211242F938F939F93EF93BE
:100E6000FF93E0912102F09122028081E09127021C
:100E7000F091280282FD12C0908180912A028F5F3A
:100E80008F7320912B02821751F0E0912A02F0E03B
:100E9000EF5EFD4F958F80932A0201C08081FF9104
:100EA000EF919F918F912F910F900FBE0F901F90F8
:100EB00018951F920F920FB60F9211242F933F9304
:100EC0004F935F936F937F938F939F93AF93BF9352
:100ED000EF93FF9381E192E00E941D06FF91EF9155
:100EE000BF91AF919F918F917F916F915F914F9142
:100EF0003F912F910F900FBE0F901F90189581E199
:100F000092E00E94E20521E0892B09F420E0822F83
:100F10000895109214021092130288EE93E0A0E05C
:100F2000B0E08093150290931602A0931702B0933D
:100F300018028BE191E0909312028093110285ECEC
:100F400090E090931E0280931D0284EC90E09093B9
:100F5000200280931F0280EC90E090932202809305
:100F6000210281EC90E0909324028093230282EC92
:100F700090E0909326028093250286EC90E0909377
:100F800028028093270210922A0210922B021092BC
:100F90002C0210922D02089508950E9448050E9487
:100FA000CC070E948600CFE0D6E00E94C8002097C0
:100FB000E1F30E940F06F9CFCF92DF92EF92FF92FA
:100FC0000F931F93CF93DF936C017A01EB01E60E31
:100FD000F71E00E010E0CE15DF0561F06991D60143
:100FE000ED91FC910190F081E02DC6010995080F6B
:100FF000191FF1CFC801DF91CF911F910F91FF9081
:10100000EF90DF90CF9008956115710581F0DB01BD
:101010000D900020E9F7AD0141505109461B570BD7
:10102000DC01ED91FC910280F381E02D099480E0D8
:1010300090E00895DC01ED91FC910190F081E02DAC
:1010400009940F931F93CF93DF93EC016DE00E94FF
:101050001A088C016AE0CE010E941A08800F911FC5
:10106000DF91CF911F910F9108958F929F92AF9230
:10107000BF92CF92DF92EF92FF920F931F93CF9385
:10108000DF93CDB7DEB7A1970FB6F894DEBF0FBEE2
:10109000CDBF7C01C42EE52FCB01D22E19A221E0B9
:1010A0002D1510F02AE0D22E8E010F5D1F4F8D2CD2
:1010B000912CA12CB12C6C2D7E2FA50194010E94A6
:1010C0007D098C2DD29E80191124015011098A307E
:1010D00014F4805D01C0895CF8018083211531051D
:1010E0004105510521F0C22EE32FCA01E4CFB8011A
:1010F000C7010E940408A1960FB6F894DEBF0FBE88
:10110000CDBFDF91CF911F910F91FF90EF90DF90B6
:10111000CF90BF90AF909F908F900895CF92DF9225
:10112000EF92FF920F931F93CF93DF93EC016A012D
:101130007B012115310579F4E881F9810190F08175
:10114000E02D642FDF91CF911F910F91FF90EF90D1
:10115000DF90CF9009942A303105E9F477FF1AC067
:101160006DE20E941A088C0144275527BA014C19D8
:101170005D096E097F092AE0CE010E943508800FC3
:10118000911FDF91CF911F910F91FF90EF90DF9012
:10119000CF9008952AE0B701A601CE01DF91CF914B
:1011A0001F910F91FF90EF90DF90CF900C94350836
:1011B0009A01AB01662757FD6095762F0C948E0837
:1011C0000F931F93CF93DF93EC019A01AB01662736
:1011D00057FD6095762F0E948E088C01CE010E94EB
:1011E0002108800F911FDF91CF911F910F910895DA
:1011F000FC01808191810C943D0ACF93DF93EC0137
:1012000088819981009711F00E943D0A1982188205
:101210001D821C821B821A82DF91CF9108950F9349
:101220001F93CF93DF93EC018B016F5F7F4F88811A
:1012300099810E94CC0A009731F0998388831B839F
:101240000A8381E001C080E0DF91CF911F910F916F
:101250000895CF93DF93EC0188819981892B29F040
:101260008A819B818617970760F4CE010E940F093F
:10127000882341F08C819D81892B19F4E881F981C3
:10128000108281E0DF91CF910895EF92FF920F934A
:101290001F93CF93DF93EC017B018A01BA010E9477
:1012A0002909811104C0CE010E94FD0807C01D83D9
:1012B0000C83B701888199810E949F0BCE01DF9139
:1012C000CF911F910F91FF90EF900895FC01118233
:1012D000108213821282158214826115710559F0F1
:1012E000FB0101900020E9F7AF0141505109461B75
:1012F000570B0C94450908950895A1E21A2EAA1BD4
:10130000BB1BFD010DC0AA1FBB1FEE1FFF1FA217B5
:10131000B307E407F50720F0A21BB30BE40BF50BB2
:10132000661F771F881F991F1A9469F7609570953B
:10133000809590959B01AC01BD01CF010895EE0F02
:10134000FF1F0590F491E02D0994CF93DF93823035
:10135000910510F482E090E0E091B002F091B102CA
:1013600020E030E0A0E0B0E0309739F140815181D9
:1013700048175907B8F04817590771F482819381CB
:10138000109729F013969C938E9312972CC09093EC
:10139000B1028093B00227C02115310531F0421708
:1013A000530718F0A901DB0101C0EF019A01BD014B
:1013B000DF010280F381E02DD7CF21153105F9F04F
:1013C000281B390B2430310580F48A819B816115FB
:1013D000710521F0FB019383828304C09093B102D5
:1013E0008093B002FE01329644C0FE01E20FF31F6B
:1013F0008193919322503109398328833AC02091F7
:10140000AE023091AF02232B41F4209102013091C2
:1014100003013093AF022093AE022091000130917E
:1014200001012115310541F42DB73EB7409104016A
:1014300050910501241B350BE091AE02F091AF02F3
:10144000E217F307A0F42E1B3F0B2817390778F09B
:10145000AC014E5F5F4F2417350748F04E0F5F1FFA
:101460005093AF024093AE028193919302C0E0E0AB
:10147000F0E0CF01DF91CF910895CF93DF930097F4
:1014800009F487C0FC01329713821282C091B00226
:10149000D091B102209781F420813181280F391F2A
:1014A0008091AE029091AF028217930779F5F09385
:1014B000AF02E093AE026DC0DE0120E030E0AE1777
:1014C000BF0750F412964D915C9113979D01411501
:1014D000510509F1DA01F3CFB383A2834081518131
:1014E000840F951F8A179B0771F48D919C9111971A
:1014F000840F951F02969183808312968D919C9103
:101500001397938382832115310529F4F093B10257
:10151000E093B0023EC0D9011396FC93EE9312976C
:101520004D915D91A40FB51FEA17FB0779F48081F7
:101530009181840F951F0296D90111969C938E93E9
:101540008281938113969C938E931297E0E0F0E052
:101550008A819B81009719F0FE01EC01F9CFCE0141
:10156000029628813981820F931F2091AE0230911B
:10157000AF022817390769F4309729F41092B102A5
:101580001092B00202C013821282D093AF02C093B5
:10159000AE02DF91CF910895A0E0B0E0E2EDFAE075
:1015A0000C94AA0BEC01CB01209719F40E94A50919
:1015B000B8C0FE01E60FF71F9E0122503109E21765
:1015C000F30708F4ACC0D9010D911C9111970617CF
:1015D0001707B8F00530110508F49FC0A801445062
:1015E00051094617570708F498C002501109061B05
:1015F000170B019311936D937C93CF010E943D0AC9
:101600008CC05B01A01AB10A4E01800E911EA09100
:10161000B002B091B102612C712C60E070E01097C3
:1016200009F449C0A815B905C9F5ED90FC901197CA
:10163000670142E0C40ED11CCA14DB0478F14701F3
:101640008A189B08640142E0C40ED11C1296BC901B
:1016500012971396AC91B5E0CB16D10440F0B2824C
:10166000A38391828082D9018D939C9309C00E5FE0
:101670001F4F0E0D1F1DF90111830083EB2DFA2F53
:101680006115710531F0DB011396FC93EE9312970F
:1016900044C0F093B102E093B0023FC06D917C91E1
:1016A00011976616770608F43B01BD0112960D905E
:1016B000BC91A02DB4CF6091AE027091AF026815BD
:1016C0007905E9F468167906D0F44091000150914B
:1016D00001014115510541F44DB75EB76091040118
:1016E00070910501461B570BE417F507C0F4F09302
:1016F000AF02E093AE02F901918380830EC00E9495
:10170000A5097C01009759F0A801BE010E94960B23
:10171000CE010E943D0AC70104C0CE0102C080E094
:1017200090E0CDB7DEB7EEE00C94C60BFB01DC0118
:1017300002C001900D9241505040D8F70895FB012E
:10174000DC0101900D920020E1F708952F923F9265
:101750004F925F926F927F928F929F92AF92BF92C1
:10176000CF92DF92EF92FF920F931F93CF93DF936D
:10177000CDB7DEB7CA1BDB0B0FB6F894DEBF0FBECA
:10178000CDBF09942A88398848885F846E847D8417
:101790008C849B84AA84B984C884DF80EE80FD8019
:1017A0000C811B81AA81B981CE0FD11D0FB6F8948F
:1017B000DEBF0FBECDBFED01089510E0C6EBD0E057
:1017C00004C0FE010E94A1092296C83BD107C9F7B7
:0417D000F894FFCFBB
:1017D4000000B202800000000000002902FC01D1D8
:1017E40001D901EC01FB01000000006006DC07E206
:0817F40005FB05ED053E0600B2
:00000001FF
