:100000000C945F000C9487000C9487000C9487007C
:100010000C9487000C9487000C9487000C94870044
:100020000C9487000C9487000C9487000C94870034
:100030000C9487000C9487000C9487000C94870024
:100040000C94BE080C9487000C94880B0C94BA0B8B
:100050000C9487000C9487000C9487000C94870004
:100060000C9491070C948700000000080002010026
:100070000003040700000000000000000102040863
:100080001020408001020408102001020408102002
:10009000040404040404040402020202020203032E
:1000A0000303030300000000250028002B000000CC
:1000B0000000240027002A003105AF06EA0B1124B6
:1000C0001FBECFEFD8E0DEBFCDBF13E0A0E0B1E0B0
:1000D000E8ECF1E202C005900D92A830B107D9F723
:1000E00024E0A8E0B3E001C01D92AD38B207E1F70B
:1000F00010E0CEEBD0E004C02297FE010E94DE109B
:10010000C83BD107C9F70E942E0C0C94E2100C9446
:100110000000DC01ED91FC910190F081E02D09944B
:100120001F93CF93DF93162FEA0166E370E087E217
:1001300093E00E9497066EEF70E087E293E00E94E2
:100140008900612F87E293E00E943406BE0187E2B6
:1001500093E00E94890087E293E0DF91CF911F91A5
:100160000C94AC0640E050E064E50C94900040E054
:1001700050E060E40C949000FF920F931F93CF9394
:10018000DF93F62EEA01890166E370E087E293E0EF
:100190000E9497066F2D87E293E00E94340687E263
:1001A00093E00E94AC0642E050E066E370E087E234
:1001B00093E00E948A0687E293E00E94DC0587E2D2
:1001C00093E00E94E405888387E293E00E94E405BF
:1001D000F801808387E293E0DF91CF911F910F9127
:1001E000FF900C94AC06CF92DF92EF92FF92CF93E8
:1001F000DF9300D0CDB7DEB71A8219829E012F5F40
:100200003F4FAE014E5F5F4F64E00E94BC006A81C9
:1002100070E080E090E00E94930F6B017C016981A7
:1002200070E080E090E00E94930F20E030E040E832
:100230005BE30E9447109B01AC01C701B6010E941D
:10024000900E0F900F90DF91CF91FF90EF90DF9085
:10025000CF900895CF93DF9300D0CDB7DEB71A8249
:1002600019829E012F5F3F4FAE014E5F5F4F68E0E6
:100270000E94BC0089810F900F90DF91CF9108956B
:10028000CF93DF9300D0CDB7DEB71A8219829E01DB
:100290002F5F3F4FAE014E5F5F4F6CE00E94BC008E
:1002A00029812F7180E290E0821B91090F900F90BD
:1002B000DF91CF910895CF93DF9300D0CDB7DEB714
:1002C0001A8219829E012F5F3F4FAE014E5F5F4F32
:1002D0006CE00E94BC00898185FB882780F90F9023
:1002E0000F90DF91CF910895CF93DF9300D0CDB7DA
:1002F000DEB71A8219829E012F5F3F4FAE014E5F1B
:100300005F4F6CE00E94BC009981892F881F88276D
:10031000881F0F900F90DF91CF910895EF92FF9279
:100320000F931F93CF93DF93EC010E9440018C0148
:10033000CE010E947401E82ECE010E945B01F82ECE
:10034000CE010E942A01C82F61E071E080EF93E0A6
:100350000E947B0C40E150E06C2F80EF93E00E9404
:100360007A0D6CE071E080EF93E00E947B0C6E2DC3
:1003700070E040E150E080EF93E00E94550D65E1B0
:1003800071E080EF93E00E947B0C6F2D70E040E104
:1003900050E080EF93E00E94550D6EE171E080EF38
:1003A00093E00E947B0C4AE050E0B80180EF93E0BC
:1003B0000E944D0D61E371E080EF93E0DF91CF91FA
:1003C0001F910F91FF90EF900C94980C87E293E0AF
:1003D0000E94730626E040E855E260E070E080EF9E
:1003E00093E00E94260B61E085E00E94D40960E062
:1003F0008FE00E94D40960E080E10E94D4098FE17F
:1004000093E00E9456058EE193E00E94B2008EE1D7
:1004100093E00E94B7008EE193E00E948E0168EEA7
:1004200073E080E090E00C942B098FE193E00E9450
:1004300097058FE193E00E94A804909315038093A1
:1004400014038FE193E00E94990490931303809327
:1004500012038FE193E00E948A049093110380932A
:1004600010038FE193E00E94560490930F03809352
:100470000E038FE193E00E946C0490930D03809330
:100480000C038FE193E00E947B0490930B03809315
:100490000A0308950F931F93CF93DF9310E0C0E0FA
:1004A000D0E00AE080EF93E00E94430A892BC9F074
:1004B000111117C080EF93E00E945C0A90ED980F35
:1004C0009A3068F49E01029FE001039FD00D112431
:1004D000992787FD9095C097C80FD91FE3CF11E0EA
:1004E000E1CFCE01DF91CF911F910F910895CF936E
:1004F000DF9380EF93E00E94430A892B09F4E3C065
:1005000080EF93E00E945C0A8A3509F4A8C0B4F435
:100510008D3409F471C044F4883431F1893499F18F
:10052000843409F0A8C077C0873509F483C08935C1
:1005300009F453C0833509F09EC040C08D3609F4DC
:100540005BC044F4883681F08936E9F0843609F0DE
:1005500092C061C0893709F440C08A3709F478C075
:10056000833709F088C02AC00E944A02EC01BC010E
:100570008FE193E00E94E5048FE193E00E945D0526
:1005800063E371E00EC00E944A02EC01BC018FE1FE
:1005900093E00E94D7048FE193E00E945D0565E43B
:1005A00071E080EF93E00E947B0C4AE050E0BE01D6
:1005B00080EF93E0DF91CF910C94550D0E944A0299
:1005C000EC01BC018FE193E00E94C6048FE193E04F
:1005D0000E945D0569E571E0E4CF0E944A02EC01EA
:1005E000BC018FE193E00E9423058FE193E00E941C
:1005F0005D056DE671E0D5CF0E944A02EC01BC01B9
:100600008FE193E00E9414058FE193E00E945D0565
:100610006EE771E0C6CF0E944A02EC01BC018FE197
:1006200093E00E9405058FE193E00E945D0560E97B
:1006300071E0B7CF61EA71E080EF93E00E947B0C3C
:100640008FE193E00E94B7044AE050E0BC01B0CFD4
:100650008FE193E00E94560561EB71E006C08FE1E7
:1006600093E00E944F056BEC71E080EF93E0DF9127
:10067000CF910C94980C65EE71E080EF93E00E94AE
:10068000980C61E072E080EF93E00E94980C61E2C8
:1006900072E080EF93E00E94980C64E472E080EFD7
:1006A00093E00E94980C80EF93E00E94840C66E631
:1006B00072E080EF93E00E94980C80EF93E0DF916E
:1006C000CF910C94840CDF91CF9108958FE00E941C
:1006D0008E09BC01882777FD8095982F0E94930F83
:1006E00020E030E04AEF5EE30E94471060931A0377
:1006F00070931B0380931C0390931D0366E872E0C4
:1007000080EF93E00E947B0C40911A0350911B03F1
:1007100060911C0370911D0322E030E080EF93E0B4
:100720000E947C0E80E10E948E09909309038093C1
:10073000080364E972E080EF93E00E947B0C609113
:100740000803709109034AE050E080EF93E00E94B3
:10075000550D80EF93E00E94430A892B11F00E940F
:1007600077020E94150261EA72E080EF93E00E9436
:100770007B0C60911403709115034AE050E080EF08
:1007800093E00E944D0D6FE280EF93E00E947D0C9C
:1007900060911203709113034AE050E080EF93E000
:1007A0000E944D0D6FE280EF93E00E947D0C6091FE
:1007B0001003709111034AE050E080EF93E00E9433
:1007C0004D0D6FEA72E080EF93E00E947B0C609128
:1007D0000E0370910F034AE050E080EF93E00E9417
:1007E0004D0D6AE380EF93E00E947D0C60910C0355
:1007F00070910D034AE050E080EF93E00E944D0DB0
:100800006AE380EF93E00E947D0C60910A0370918F
:100810000B034AE050E080EF93E00E94550D8EE11B
:1008200093E00E94F3006093160370931703809384
:1008300018039093190364EB72E080EF93E00E9439
:100840007B0C40911603509117036091180370912F
:10085000190322E030E080EF93E00E947C0E80914B
:100860000A0390910B038330910538F461E085E031
:100870000E940D0A6EEB72E009C04E97039750F488
:1008800060E085E00E940D0A67EC72E080EF93E083
:100890000E94980C68EB7BE080E090E00E942B09BE
:1008A00061ED72E080EF93E00C94980CFC01928172
:1008B000292F2F7096FF05C0969596959695927064
:1008C00004C09695969596959670892F880F880FF7
:1008D000890F820F90E00895FC012181922F969557
:1008E000969596959E71892F880F880F890F2F7086
:1008F000820F90E00895FC012081922F96959695A5
:1009000096959E70892F880F880F890F2F70820F00
:1009100090E00895FC012681922F969596959695E4
:100920009E71892F880F880F890F2F70820F90E09A
:100930000895FC012581922F9695969596959E7126
:10094000892F880F880F890F2F70820F90E00895EC
:10095000FC012481922F9695969596959E71892FEC
:10096000880F880F890F2F70820F90E00895FC0187
:100970002381922F9695969596959E71892F880F33
:10098000880F890F2F70820F90E00895FC016C335F
:10099000710560F4862F6AE00E94AE1020E1829F0C
:1009A000900D112480818078982B90830895FC010C
:1009B0006C33710548F4862F6AE00E94AE1020E186
:1009C000829F900D112491830895FC01228126FFBE
:1009D0000FC0CB0101970C97B8F4862F6AE00E94F4
:1009E000AE1030E1839F900D11242076922B0BC026
:1009F0006931710548F4862F6AE00E94AE1020E14B
:100A0000829F900D112492830895FC01CB010197E0
:100A10004F9748F4862F6AE00E94AE1020E1829F33
:100A2000900D112494830895FC01CB0101970C973C
:100A300048F4862F6AE00E94AE1020E1829F900D5C
:100A4000112495830895FC016436710548F4862FBE
:100A50006AE00E94AE1020E1829F900D11249683DF
:100A6000089587E293E00C947306CF93DF93D82F19
:100A7000C62F68E670E087E293E00E9497066D2F2C
:100A800087E293E00E9434066C2F87E293E00E9495
:100A9000340687E293E0DF91CF910C94AC06FC0121
:100AA00060816068608380E00C943505FC016081A2
:100AB0006F77608380E00C943505CF93DF93EC0172
:100AC00060E880E00E94350568E670E087E293E028
:100AD0000E94970661E087E293E00E9434066981F4
:100AE00087E293E00E9434066A8187E293E00E94E5
:100AF00034066B8187E293E00E9434066C8187E2C2
:100B000093E00E9434066D8187E293E00E943406F0
:100B10006E8187E293E00E94340687E293E00E94B0
:100B2000AC06688180E0DF91CF910C943505CF93BE
:100B3000DF93EC0168E670E087E293E00E9497069D
:100B400060E087E293E00E94340687E293E00E942F
:100B5000AC0648E050E068E670E087E293E00E946F
:100B60008A0687E293E00E94E405888387E293E0A7
:100B70000E94E405898387E293E00E94E4058A836A
:100B800087E293E00E94E4058B8387E293E00E9472
:100B9000E4058C8387E293E00E94E4058D8387E27D
:100BA00093E00E94E4058E8387E293E00E94E405CF
:100BB0008F83DF91CF9108958091570390E020912A
:100BC0005803821B9109089520915803809157037F
:100BD000281750F4E22FF0E0E75AFC4F808190E0B4
:100BE0002F5F2093580308958FEF9FEF0895E091B2
:100BF000580380915703E81730F4F0E0E75AFC4FB0
:100C0000808190E008958FEF9FEF08950895CF922F
:100C1000DF92EF92FF920F931F93CF93DF937C01AC
:100C2000CB018A0120913303222389F0EB016B0170
:100C3000C40ED51ECC15DD0569F06991D701ED9183
:100C4000FC910190F081E02DC7010995F3CF642F4D
:100C50000E946807C801DF91CF911F910F91FF900B
:100C6000EF90DF90CF900895CF93DF931F92CDB791
:100C7000DEB76983209133032223D1F0209134031E
:100C8000203240F021E030E0FC013383228380E019
:100C900090E015C080913503E82FF0E0EA5CFC4F4E
:100CA000998190838F5F809335038093340305C0CF
:100CB00061E0CE0101960E94680781E090E00F900C
:100CC000DF91CF910895FC011382128248EE53E028
:100CD00060E070E044835583668377838FED92E014
:100CE00091838083089510925803109257031092B5
:100CF0003503109234030C94B306862F413208F06A
:100D000040E269E573E00E94D10610925803809397
:100D10005703089521E00C947D0681E0809333030E
:100D200060935603109235031092340308950C9487
:100D30008D060F93062F21E04091340366E373E0A4
:100D4000809156030E9415071092350310923403C8
:100D5000109233030F91089561E00C94990687E295
:100D600093E00C9463061092E60381E08093E40321
:100D70001092E30361E082E10E940D0A61E083E1E9
:100D80000E940D0AE9EBF0E080818E7F80838081F4
:100D90008D7F808388E48093B80085E48093BC00D5
:100DA0000895413208F03FC09091E6039111FCCFC5
:100DB00091E09093E6032093E4032FEF20937903CF
:100DC0001092BE03240F2093BD039093E5039091EE
:100DD000E503880F892B8093E5038091E30381303D
:100DE00041F41092E3038091E5038093BB0085EC0E
:100DF00001C085EE8093BC008091E6038130E1F371
:100E00008091BE03841710F44091BE032FEB33E0B2
:100E1000FB01D9018A2F821B841718F48D918193CD
:100E2000F9CF842F089580E008950F93413208F0A0
:100E300046C09091E6039111FCCF92E09093E603B7
:100E40000093E4039FEF909379031092BE034093C5
:100E5000BD03FB016FEB73E0DB019A2F961B941728
:100E600018F491919D93F9CF1092E5039091E503C9
:100E7000880F892B8093E5038091E303813041F44F
:100E80001092E3038091E5038093BB0085EC01C0E1
:100E900085EE8093BC00222321F08091E60382300E
:100EA000E1F3809179038F3F61F080917903803283
:100EB00051F080917903803341F483E007C081E0F1
:100EC00005C080E003C082E001C084E00F91089576
:100ED000613298F42091E603243089F460939B03F7
:100EE000FC018DE993E0DC012A2F281B261718F45A
:100EF00021912D93F9CF80E0089581E0089582E05B
:100F0000089585ED8093BC008091BC0084FDFCCFEA
:100F10001092E603089585EC8093BC001092E603DE
:100F200008951F920F920FB60F9211242F933F93A3
:100F30004F935F936F937F938F939F93AF93BF93E1
:100F4000EF93FF938091B900887F803609F49CC0AD
:100F500068F5883209F45BC090F4803109F454C01C
:100F600038F4882309F4F5C0883009F44DC0F5C081
:100F7000883109F44CC0803209F45DC0EEC0803481
:100F800009F468C048F4803309F455C0883309F087
:100F9000E4C080937903A8C0803509F44FC0883538
:100FA00009F45DC0883409F0D8C0D5C0883909F487
:100FB000C6C0A8F4883709F467C038F4883609F445
:100FC00063C0803709F460C0C8C0883809F4B7C06E
:100FD000803909F45FC0803809F0BFC05BC0803B36
:100FE00009F485C038F4803A09F466C0883A09F4F7
:100FF0007EC0B3C0803C09F4A6C0883C09F4A3C0FD
:10100000883B09F489C0A9C08091E50310C0909184
:10101000BE038091BD03981770F5E091BE0381E097
:101020008E0F8093BE03F0E0E154FC4F80818093EB
:10103000BB0085EC85C0809379038DC0E091BE0331
:1010400081E08E0F8093BE038091BB00F0E0E154FD
:10105000FC4F80839091BE038091BD036DC0E091F1
:10106000BE0381E08E0F8093BE038091BB00F0E051
:10107000E154FC4F80838091E40381116CC081E0D6
:101080008093E30384EA60C083E08093E6031092D8
:101090007A03CFCF80917A03803208F050C0E0917C
:1010A0007A0381E08E0F80937A038091BB00F0E099
:1010B000E558FC4F8083BDCF80917A03803230F4B5
:1010C000E0917A03F0E0E558FC4F10820E9481071E
:1010D00060917A0370E0E091DF03F091E0038BE729
:1010E00093E0099510927A030E948B0736C084E042
:1010F0008093E60310929C0310929B03E091E1031E
:10110000F091E203099580919B03811105C081E074
:1011100080939B0310929D03E0919C0381E08E0FCE
:1011200080939C03F0E0E356FC4F80818093BB00EA
:1011300090919C0380919B03981708F47ACF85E8DF
:101140008093BC000AC085EC8093BC001092E6033B
:1011500004C0109279030E948107FF91EF91BF9123
:10116000AF919F918F917F916F915F914F913F913F
:101170002F910F900FBE0F901F9018951F920F92F6
:101180000FB60F9211242F933F938F939F93AF939A
:10119000BF938091E8039091E903A091EA03B09195
:1011A000EB033091E70323E0230F2D3720F4019662
:1011B000A11DB11D05C026E8230F0296A11DB11D7A
:1011C0002093E7038093E8039093E903A093EA0355
:1011D000B093EB038091EC039091ED03A091EE03AB
:1011E000B091EF030196A11DB11D8093EC03909384
:1011F000ED03A093EE03B093EF03BF91AF919F91E6
:101200008F913F912F910F900FBE0F901F901895C7
:101210003FB7F8948091EC039091ED03A091EE0319
:10122000B091EF0326B5A89B05C02F3F19F001969A
:10123000A11DB11D3FBF6627782F892F9A2F620FFE
:10124000711D811D911D42E0660F771F881F991F38
:101250004A95D1F70895CF92DF92EF92FF92CF9304
:10126000DF936B017C010E940809EB01C114D104DA
:10127000E104F10489F00E948E0E0E9408096C1BA3
:101280007D0B683E734090F381E0C81AD108E108F5
:10129000F108C851DC4FEACFDF91CF91FF90EF907A
:1012A000DF90CF900895789484B5826084BD84B532
:1012B000816084BD85B5826085BD85B5816085BD51
:1012C000EEE6F0E0808181608083E1E8F0E010826A
:1012D000808182608083808181608083E0E8F0E0AB
:1012E000808181608083E1EBF0E080818460808395
:1012F000E0EBF0E0808181608083EAE7F0E08081CC
:10130000846080838081826080838081816080832B
:101310008081806880831092C10008958E3008F02B
:101320008E5087702091000190E4299F9001112434
:10133000822B80937C0080917A00806480937A0075
:1013400080917A0086FDFCCF809178002091790011
:1013500090E0922B0895833081F028F4813099F049
:101360008230A1F008958730A9F08830B9F0843038
:10137000D1F4809180008F7D03C0809180008F77B1
:1013800080938000089584B58F7702C084B58F7DE7
:1013900084BD08958091B0008F7703C08091B00024
:1013A0008F7D8093B0000895CF93DF9390E0FC0190
:1013B000E458FF4F2491FC01E057FF4F84918823AC
:1013C00049F190E0880F991FFC01E255FF4FA5916C
:1013D000B4918C559F4FFC01C591D4919FB7611179
:1013E00008C0F8948C91209582238C938881822365
:1013F0000AC0623051F4F8948C91322F30958323D7
:101400008C938881822B888304C0F8948C91822BE2
:101410008C939FBFDF91CF9108950F931F93CF932C
:10142000DF931F92CDB7DEB7282F30E0F901E859DE
:10143000FF4F8491F901E458FF4F1491F901E057EF
:10144000FF4F04910023C9F0882321F069830E9493
:10145000AB096981E02FF0E0EE0FFF1FEC55FF4F65
:10146000A591B4919FB7F8948C91611103C0109528
:10147000812301C0812B8C939FBF0F90DF91CF916F
:101480001F910F910895FC01818D228D90E0805C69
:101490009F4F821B91098F7399270895FC01918DAD
:1014A000828D981731F0828DE80FF11D858D90E0C7
:1014B00008958FEF9FEF0895FC01918D828D98170D
:1014C00061F0828DDF01A80FB11D5D968C91928D28
:1014D0009F5F9F73928F90E008958FEF9FEF089525
:1014E00080EE9BE0892B49F080E090E0892B29F089
:1014F0000E94E00B81110C9400000895FC01848D82
:10150000DF01A80FB11DA35ABF4F2C91848D90E02D
:1015100001968F739927848FA689B7892C93A08908
:10152000B1898C9180648C93938D848D981306C0BF
:101530000288F389E02D80818F7D80830895CF9389
:10154000DF93EC01888D8823C9F0EA89FB898081CB
:1015500085FD05C0A889B9898C9186FD0FC00FB69D
:1015600007FCF5CF808185FFF2CFA889B9898C91DE
:1015700085FFEDCFCE010E947E0AE7CFDF91CF91AC
:101580000895CF92DF92FF920F931F93CF93DF9333
:101590001F92CDB7DEB76C01DC015B969C915B9727
:1015A0005C968C915C97981307C05096ED91FC91D6
:1015B0005197808185FD32C0F601038D10E00F5FE9
:1015C0001F4F0F731127F02EF601848DF81211C0F2
:1015D0000FB607FCF9CFD6015096ED91FC915197CB
:1015E000808185FFF1CFC60169830E947E0A6981EF
:1015F000EBCF838DE80FF11DE35AFF4F6083D601D7
:101600005B960C935B975296ED91FC91539780817A
:101610008062808381E058968C930DC0D6015696E7
:10162000ED91FC91579760835096ED91FC91519705
:1016300080818064808381E090E00F90DF91CF9182
:101640001F910F91FF90DF90CF900895BF92CF929E
:10165000DF92EF92FF92CF93DF93EC016A017B015F
:10166000B22EE889F98982E08083411581EE58071E
:1016700061057105A1F060E079E08DE390E0A701DC
:1016800096010E94BA10215031094109510956951D
:10169000479537952795211580E1380798F0E88917
:1016A000F989108260E874E88EE190E0A701960164
:1016B0000E94BA10215031094109510956954795A8
:1016C00037952795EC85FD853083EE85FF85208352
:1016D000188EEC89FD89B082EA89FB89808180615E
:1016E0008083EA89FB89808188608083EA89FB891D
:1016F000808180688083EA89FB8980818F7D8083F7
:10170000DF91CF91FF90EF90DF90CF90BF90089541
:101710001F920F920FB60F9211242F938F939F93C6
:10172000EF93FF93E0910004F09101048081E09138
:101730000604F091070482FD12C090818091090493
:101740008F5F8F7320910A04821751F0E091090492
:10175000F0E0E051FC4F958F8093090401C0808137
:10176000FF91EF919F918F912F910F900FBE0F904E
:101770001F9018951F920F920FB60F9211242F935E
:101780003F934F935F936F937F938F939F93AF9309
:10179000BF93EF93FF9380EF93E00E947E0AFF9147
:1017A000EF91BF91AF919F918F917F916F915F91D9
:1017B0004F913F912F910F900FBE0F901F90189552
:1017C00080EF93E00E94430A21E0892B09F420E096
:1017D000822F08951092F3031092F20388EE93E0A3
:1017E000A0E0B0E08093F4039093F503A093F60398
:1017F000B093F7038FEE92E09093F1038093F003A0
:1018000085EC90E09093FD038093FC0384EC90E0E2
:101810009093FF038093FE0380EC90E0909301048B
:101820008093000481EC90E0909303048093020481
:1018300082EC90E0909305048093040486EC90E0A1
:1018400090930704809306041092090410920A04EE
:1018500010920B0410920C04089508950E945309ED
:101860000E942D0C0E94E601C0E7DAE00E946603A8
:101870002097E1F30E94700AF9CFCF92DF92EF92A6
:10188000FF920F931F93CF93DF936C017A01EB01CB
:10189000E60EF71E00E010E0CE15DF0561F069915D
:1018A000D601ED91FC910190F081E02DC6010995E2
:1018B000080F191FF1CFC801DF91CF911F910F9130
:1018C000FF90EF90DF90CF9008956115710581F042
:1018D000DB010D900020E9F7AD0141505109461B95
:1018E000570BDC01ED91FC910280F381E02D09940E
:1018F00080E090E008950C94650CDC01ED91FC9182
:101900000190F081E02D09940F931F93CF93DF9303
:10191000EC016DE00E947D0C8C016AE0CE010E941A
:101920007D0C800F911FDF91CF911F910F91089532
:101930000F931F93CF93DF93EC010E94650C8C01F2
:10194000CE010E94840C800F911FDF91CF911F91D7
:101950000F9108958F929F92AF92BF92CF92DF9294
:10196000EF92FF920F931F93CF93DF93CDB7DEB724
:10197000A1970FB6F894DEBF0FBECDBF7C01C42E79
:10198000E52FCB01D22E19A221E02D1510F02AE06F
:10199000D22E8E010F5D1F4F8D2C912CA12CB12CBE
:1019A0006C2D7E2FA50194010E94BA108C2DD29E21
:1019B00080191124015011098A3014F4805D01C08E
:1019C000895CF8018083211531054105510521F01D
:1019D000C22EE32FCA01E4CFB801C7010E94650CF3
:1019E000A1960FB6F894DEBF0FBECDBFDF91CF91A9
:1019F0001F910F91FF90EF90DF90CF90BF90AF902D
:101A00009F908F900895CF92DF92EF92FF920F9365
:101A10001F93CF93DF93EC016A017B012115310500
:101A200079F4E881F9810190F081E02D642FDF9154
:101A3000CF911F910F91FF90EF90DF90CF9009947D
:101A40002A303105E9F477FF1AC06DE20E947D0C5F
:101A50008C0144275527BA014C195D096E097F098D
:101A60002AE0CE010E94AA0C800F911FDF91CF9136
:101A70001F910F91FF90EF90DF90CF9008952AE093
:101A8000B701A601CE01DF91CF911F910F91FF9079
:101A9000EF90DF90CF900C94AA0C9A01AB016627CF
:101AA00057FD6095762F0C94030D0F931F93CF93E2
:101AB000DF93EC019A01AB01662757FD6095762F05
:101AC0000E94030D8C01CE010E94840C800F911F97
:101AD000DF91CF911F910F9108952115310541F4A8
:101AE000DC01ED91FC910190F081E02D642F0994CF
:101AF0000C94AA0C0F931F93CF93DF93EC019A01E0
:101B0000462F50E060E070E00E946D0D8C01CE0128
:101B10000E94840C800F911FDF91CF911F910F9134
:101B200008954F925F926F927F928F929F92AF92A1
:101B3000BF92CF92DF92EF92FF920F931F93CF93BA
:101B4000DF93EC016A017B01B22E9A01AB01C70160
:101B5000B6010E94AA10882319F06BEF72E027C02B
:101B600026013701E89477F82FEF3FEF4FE75FE763
:101B7000C301B2010E94AA1081110DC02FEF3FEFE7
:101B80004FE75FE7C301B2010E94F40E18161CF480
:101B90006FEF72E00CC02FEF3FEF4FE75FE4C7013C
:101BA000B6010E9443101816ACF463E073E0CE0156
:101BB000DF91CF911F910F91FF90EF90DF90CF9029
:101BC000BF90AF909F908F907F906F905F904F905D
:101BD0000C94650C2FEF3FEF4FE75FECC701B601A8
:101BE0000E94F40E87FDE1CF20E030E0A901C7019B
:101BF000B6010E94F40E87FF0AC06DE2CE010E947A
:101C00007D0C8C01F7FAF094F7F8F09402C000E034
:101C100010E0A12C60E070E080E09FE3AB1441F0A5
:101C200020E030E040E251E40E94F80EA394F6CFA9
:101C30009B01AC01C701B6010E94900E6B017C01B3
:101C40000E94650F2B013C010E94910F9B01AC018A
:101C5000C701B6010E948F0E6B017C012AE0B3011F
:101C6000A201CE010E94AA0C080F191FBB2039F057
:101C700063EE71E0CE010E94650C080F191F7B2CEA
:101C8000772041F120E030E040E251E4C701B601A5
:101C90000E9447106B017C010E94600F4B01AA2437
:101CA00097FCA094BA2C2AE030E0B501A401CE0143
:101CB0000E94030D080F191FC501B4010E94930F64
:101CC0009B01AC01C701B6010E948F0E6B017C0124
:101CD0007A94D6CFC801DF91CF911F910F91FF90D9
:101CE000EF90DF90CF90BF90AF909F908F907F90BC
:101CF0006F905F904F9008950F931F93CF93DF9352
:101D0000EC010E94910D8C01CE010E94840C800F89
:101D1000911FDF91CF911F910F9108950895505811
:101D2000BB27AA270ED075C166D130F06BD120F049
:101D300031F49F3F11F41EF45BC10EF4E095E7FB14
:101D400051C1E92F77D180F3BA176207730784076F
:101D5000950718F071F49EF58FC10EF4E0950B2EE7
:101D6000BA2FA02D0B01B90190010C01CA01A001ED
:101D70001124FF27591B99F0593F50F4503E68F148
:101D80001A16F040A22F232F342F4427585FF3CF89
:101D9000469537952795A795F0405395C9F77EF45A
:101DA0001F16BA0B620B730B840BBAF09150A1F0A3
:101DB000FF0FBB1F661F771F881FC2F70EC0BA0F29
:101DC000621F731F841F48F4879577956795B795B1
:101DD000F7959E3F08F0B3CF9395880F08F09927A9
:101DE000EE0F979587950895D9D008F481E008956E
:101DF0000CD00FC107D140F0FED030F021F45F3F8E
:101E000019F0F0C0511139C1F3C014D198F39923DE
:101E1000C9F35523B1F3951B550BBB27AA276217AE
:101E20007307840738F09F5F5F4F220F331F441FF3
:101E3000AA1FA9F333D00E2E3AF0E0E830D091502B
:101E40005040E695001CCAF729D0FE2F27D0660F18
:101E5000771F881FBB1F261737074807AB07B0E857
:101E600009F0BB0B802DBF01FF2793585F4F2AF06D
:101E70009E3F510568F0B6C000C15F3FECF3983E4D
:101E8000DCF3869577956795B795F7959F5FC9F7CA
:101E9000880F911D9695879597F90895E1E0660F53
:101EA000771F881FBB1F621773078407BA0720F0CC
:101EB000621B730B840BBA0BEE1F88F7E095089535
:101EC00004D06894B111D9C00895BCD088F09F5750
:101ED00090F0B92F9927B751A0F0D1F0660F771F76
:101EE000881F991F1AF0BA95C9F712C0B13081F056
:101EF000C3D0B1E00895C0C0672F782F8827B85F9E
:101F000039F0B93FCCF3869577956795B395D9F7B6
:101F10003EF490958095709561957F4F8F4F9F4FC0
:101F20000895E89409C097FB3EF4909580957095CC
:101F300061957F4F8F4F9F4F9923A9F0F92F96E915
:101F4000BB279395F695879577956795B795F1118A
:101F5000F8CFFAF4BB0F11F460FF1BC06F5F7F4F27
:101F60008F4F9F4F16C0882311F096E911C0772339
:101F700021F09EE8872F762F05C0662371F096E842
:101F8000862F70E060E02AF09A95660F771F881F11
:101F9000DAF7880F9695879597F90895990F0008B5
:101FA000550FAA0BE0E8FEEF16161706E807F9072B
:101FB000C0F012161306E407F50798F0621B730BC6
:101FC000840B950B39F40A2661F0232B242B252B47
:101FD00021F408950A2609F4A140A6958FEF811DEA
:101FE000811D089597F99F6780E870E060E008958B
:101FF0009FEF80EC089500240A9416161706180621
:102000000906089500240A941216130614060506FC
:102010000895092E0394000C11F4882352F0BB0F8D
:1020200040F4BF2B11F460FF04C06F5F7F4F8F4FF0
:102030009F4F089557FD9058440F551F59F05F3F2B
:1020400071F04795880F97FB991F61F09F3F79F0DA
:1020500087950895121613061406551FF2CF46955C
:10206000F1DF08C0161617061806991FF1CF8695DE
:102070007105610508940895E894BB2766277727C2
:10208000CB0197F908958ADF08F48FEF08950BD0FC
:10209000C0CFB1DF28F0B6DF18F0952309F0A2CF4A
:1020A000A7CF1124EACFC6DFA0F3959FD1F3950FF8
:1020B00050E0551F629FF001729FBB27F00DB11DCC
:1020C000639FAA27F00DB11DAA1F649F6627B00D5C
:1020D000A11D661F829F2227B00DA11D621F739F45
:1020E000B00DA11D621F839FA00D611D221F749F53
:1020F0003327A00D611D231F849F600D211D822F9A
:10210000762F6A2F11249F5750408AF0E1F08823E0
:102110004AF0EE0FFF1FBB1F661F771F881F9150ED
:102120005040A9F79E3F510570F05CCFA6CF5F3FAE
:10213000ECF3983EDCF3869577956795B795F79520
:10214000E7959F5FC1F7FE2B880F911D96958795A8
:1021500097F9089523DF880B990B0895991B79E06F
:1021600004C0991F961708F0961B881F7A95C9F727
:1021700080950895A1E21A2EAA1BBB1BFD010DC07C
:10218000AA1FBB1FEE1FFF1FA217B307E407F50727
:1021900020F0A21BB30BE40BF50B661F771F881F03
:1021A000991F1A9469F760957095809590959B0199
:1021B000AC01BD01CF010895EE0FFF1F0590F49112
:0821C000E02D0994F894FFCF13
:1021C8000156657273696F6E203D2000536C65651A
:1021D80070203D2000416C657274203D2000416CE8
:1021E800657274205468726573686F6C64203D2052
:1021F80000250053657474696E6720686F75727383
:1022080020746F200053657474696E67206D696E61
:102218007574657320746F200053657474696E67F4
:10222800207365636F6E647320746F200053657448
:1022380074696E67207965617220746F2000536538
:102248007474696E67206D6F6E746820746F2000F7
:1022580053657474696E67206461746520746F20B7
:1022680000446179206F66207765656B206973206B
:1022780000436C6F636B206F7363696C6C61746F80
:102288007220737461727465642E00436C6F636BA3
:10229800206F7363696C6C61746F722073746F70F4
:1022A8007065642E00556E6B6E6F776E20636F6D70
:1022B8006D616E642E205472792074686573653A76
:1022C8000020682323202D2073657420486F7572C1
:1022D8007320642323202D20736574204461746562
:1022E8000020692323202D20736574206D496E75A5
:1022F800746573206D2323202D20736574204D6F22
:102308006E74680020732323202D20736574205376
:1023180065636F6E647320792323202D20736574A1
:10232800205965617200207A202D207374617274BF
:1023380020636C6F636B205A202D2073746F70209C
:10234800636C6F636B0054656D7065726174757250
:10235800653A20005261696E2056616C75653A20B5
:10236800004461746520262054696D653A20002078
:102378002D2D2000426174746572793A20005265EF
:102388006C6179204F4E0052656C6179204F46464A
:10239800002D2D2D2D2D2D2D2D2D0000000000346C
:1023A800060706DC05E405F705060600000000C17F
:1023B8000A3D0C430A5C0A4E0A9F0A6E616E006968
:0823C8006E66006F76660000EE
:00000001FF
