:100000000C945F000C9487000C9487000C9487007C
:100010000C9487000C9487000C9487000C94870044
:100020000C9487000C9487000C9487000C94870034
:100030000C9487000C9487000C9487000C94870024
:100040000C9448070C9487000C946B060C949D0646
:100050000C9487000C9487000C9487000C94870004
:100060000C9461030C94870000000008000201005A
:100070000003040700000000000000000102040863
:100080001020408001020408102001020408102002
:10009000040404040404040402020202020203032E
:1000A0000303030300000000250028002B000000CC
:1000B0000000240027002A0042017F02CD061124FF
:1000C0001FBECFEFD8E0DEBFCDBF11E0A0E0B1E0B2
:1000D000EEEEFFE002C005900D92A032B107D9F715
:1000E00022E0A0E2B1E001C01D92AA39B207E1F717
:1000F00010E0CEEBD0E004C02297FE010E94F10791
:10010000C83BD107C9F70E9411070C94F5070C945E
:10011000000026E040E855E260E070E084EF91E006
:100120000E9409068CE291E00E94600161E083E098
:100130000C94B7048CE291E00E9467018CE291E09C
:100140000E94330190932B0180932A018CE291E06D
:100150000E94240190932901809328018CE291E070
:100160000E94150190932701809326018CE291E073
:100170000E94E10090932501809324018CE291E09C
:100180000E94F70090932301809322018CE291E07A
:100190000E940601909321018093200108950E94FE
:1001A0009A0080912001909121018F30910511F4E6
:1001B00061E003C04E9721F460E083E00C94F0040A
:1001C0000895FC019281292F2F7096FF05C0969506
:1001D00096959695927004C096959695969596707C
:1001E000892F880F880F890F820F90E00895FC01F6
:1001F0002181922F9695969596959E71892F880FBD
:10020000880F890F2F70820F90E00895FC012081E4
:10021000922F9695969596959E70892F880F880FA8
:10022000890F2F70820F90E00895FC012681922F94
:100230009695969596959E71892F880F880F890FB0
:100240002F70820F90E00895FC012581922F9695E2
:10025000969596959E71892F880F880F890F2F701C
:10026000820F90E00895FC012481922F9695969537
:1002700096959E71892F880F880F890F2F70820F96
:1002800090E0089584E391E00C944302CF93DF93D0
:10029000D82FC62F68E670E084E391E00E946702E1
:1002A0006D2F84E391E00E9404026C2F84E391E0BF
:1002B0000E94040284E391E0DF91CF910C947C02D0
:1002C000FC0160816F77608380E00C944601CF93DE
:1002D000DF93EC0168E670E084E391E00E9467023E
:1002E00060E084E391E00E94040284E391E00E94D4
:1002F0007C0248E050E068E670E084E391E00E9410
:100300005A0284E391E00E94B401888384E391E07F
:100310000E94B401898384E391E00E94B4018A833E
:1003200084E391E00E94B4018B8384E391E00E9416
:10033000B4018C8384E391E00E94B4018D8384E353
:1003400091E00E94B4018E8384E391E00E94B401A5
:100350008F83DF91CF9108958091640190E0209187
:100360006501821B910908952091650180916401C6
:10037000281750F4E22FF0E0EA59FE4F808190E018
:100380002F5F2093650108958FEF9FEF0895E0910F
:10039000650180916401E81730F4F0E0EA59FE4FFE
:1003A000808190E008958FEF9FEF08950895CF9298
:1003B000DF92EF92FF920F931F93CF93DF937C0115
:1003C000CB018A0120914001222389F0EB016B01CE
:1003D000C40ED51ECC15DD0569F06991D701ED91EC
:1003E000FC910190F081E02DC7010995F3CF642FB6
:1003F0000E943803C801DF91CF911F910F91FF90A8
:10040000EF90DF90CF900895CF93DF931F92CDB7F9
:10041000DEB76983209140012223D1F02091410170
:10042000203240F021E030E0FC013383228380E081
:1004300090E015C080914201E82FF0E0ED5BFE4FA7
:10044000998190838F5F809342018093410105C021
:1004500061E0CE0101960E94380381E090E00F90A8
:10046000DF91CF910895FC011382128248EE53E090
:1004700060E070E0448355836683778384E091E095
:100480009183808308951092650110926401109207
:100490004201109241010C948302862F413208F0F0
:1004A00040E266E671E00E94A1021092650180932D
:1004B0006401089521E00C944D0281E08093400195
:1004C00060936301109242011092410108950C94CF
:1004D0005D020F93062F21E04091410163E471E03A
:1004E000809163010E94E502109242011092410145
:1004F000109240010F91089561E00C94690284E329
:1005000091E00C9433021092F30181E08093F101A9
:100510001092F00161E082E10E94F00461E083E169
:100520000E94F004E9EBF0E080818E7F808380817F
:100530008D7F808388E48093B80085E48093BC003D
:100540000895413208F03FC09091F3019111FCCF22
:1005500091E09093F3012093F1012FEF2093860116
:100560001092CB01240F2093CA019093F201909135
:10057000F201880F892B8093F2018091F001813084
:1005800041F41092F0018091F2018093BB0085EC60
:1005900001C085EE8093BC008091F3018130E1F3CE
:1005A0008091CB01841710F44091CB012CEC31E009
:1005B000FB01D9018A2F821B841718F48D91819336
:1005C000F9CF842F089580E008950F93413208F009
:1005D00046C09091F3019111FCCF92E09093F3010A
:1005E0000093F1019FEF909386011092CB0140930D
:1005F000CA01FB016CEC71E0DB019A2F961B94178A
:1006000018F491919D93F9CF1092F2019091F2011B
:10061000880F892B8093F2018091F001813041F4A1
:100620001092F0018091F2018093BB0085EC01C033
:1006300085EE8093BC00222321F08091F30182306B
:10064000E1F3809186018F3F61F0809186018032D5
:1006500051F080918601803341F483E007C081E04E
:1006600005C080E003C082E001C084E00F910895DE
:10067000613298F42091F301243089F46093A80149
:10068000FC018AEA91E0DC012A2F281B261718F4C6
:1006900021912D93F9CF80E0089581E0089582E0C3
:1006A000089585ED8093BC008091BC0084FDFCCF53
:1006B0001092F301089585EC8093BC001092F30131
:1006C00008951F920F920FB60F9211242F933F930C
:1006D0004F935F936F937F938F939F93AF93BF934A
:1006E000EF93FF938091B900887F803609F49CC016
:1006F00068F5883209F45BC090F4803109F454C085
:1007000038F4882309F4F5C0883009F44DC0F5C0E9
:10071000883109F44CC0803209F45DC0EEC08034E9
:1007200009F468C048F4803309F455C0883309F0EF
:10073000E4C080938601A8C0803509F44FC0883595
:1007400009F45DC0883409F0D8C0D5C0883909F4EF
:10075000C6C0A8F4883709F467C038F4883609F4AD
:1007600063C0803709F460C0C8C0883809F4B7C0D6
:10077000803909F45FC0803809F0BFC05BC0803B9E
:1007800009F485C038F4803A09F466C0883A09F45F
:100790007EC0B3C0803C09F4A6C0883C09F4A3C065
:1007A000883B09F489C0A9C08091F20110C09091E2
:1007B000CB018091CA01981770F5E091CB0181E0DF
:1007C0008E0F8093CB01F0E0E453FE4F8081809345
:1007D000BB0085EC85C0809386018DC0E091CB0184
:1007E00081E08E0F8093CB018091BB00F0E0E45359
:1007F000FE4F80839091CB018091CA016DC0E09142
:10080000CB0181E08E0F8093CB018091BB00F0E0A3
:10081000E453FE4F80838091F10181116CC081E02F
:100820008093F00184EA60C083E08093F30110922A
:100830008701CFCF80918701803208F050C0E091CE
:10084000870181E08E0F809387018091BB00F0E0EB
:10085000E857FE4F8083BDCF80918701803230F40E
:10086000E0918701F0E0E857FE4F10820E945103AB
:100870006091870170E0E091EC01F091ED0188E872
:1008800091E00995109287010E945B0336C084E0D5
:100890008093F3011092A9011092A801E091EE015A
:1008A000F091EF0109958091A801811105C081E0C7
:1008B0008093A8011092AA01E091A90181E08E0F16
:1008C0008093A901F0E0E655FE4F80818093BB0044
:1008D0009091A9018091A801981708F47ACF85E832
:1008E0008093BC000AC085EC8093BC001092F30199
:1008F00004C0109286010E945103FF91EF91BF91B5
:10090000AF919F918F917F916F915F914F913F91A7
:100910002F910F900FBE0F901F901895833081F08C
:1009200028F4813099F08230A1F008958730A9F041
:100930008830B9F08430D1F4809180008F7D03C07D
:10094000809180008F7780938000089584B58F77A1
:1009500002C084B58F7D84BD08958091B0008F77EB
:1009600003C08091B0008F7D8093B0000895CF9335
:10097000DF9390E0FC01E458FF4F2491FC01E05725
:10098000FF4F8491882349F190E0880F991FFC0163
:10099000E255FF4FA591B4918C559F4FFC01C59135
:1009A000D4919FB7611108C0F8948C91209582234F
:1009B0008C93888182230AC0623051F4F8948C9120
:1009C000322F309583238C938881822B888304C0B7
:1009D000F8948C91822B8C939FBFDF91CF910895D7
:1009E0000F931F93CF93DF931F92CDB7DEB7282FBE
:1009F00030E0F901E859FF4F8491F901E458FF4FC5
:100A00001491F901E057FF4F04910023C9F08823A6
:100A100021F069830E948E046981E02FF0E0EE0FDF
:100A2000FF1FEC55FF4FA591B4919FB7F8948C919F
:100A3000611103C01095812301C0812B8C939FBF4E
:100A40000F90DF91CF911F910F910895FC01818D3F
:100A5000228D90E0805C9F4F821B91098F739927B4
:100A60000895FC01918D828D981731F0828DE80FE9
:100A7000F11D858D90E008958FEF9FEF0895FC01A3
:100A8000918D828D981761F0828DDF01A80FB11DC5
:100A90005D968C91928D9F5F9F73928F90E00895E9
:100AA0008FEF9FEF089583EC96E0892B49F080E06B
:100AB00090E0892B29F00E94C30681110C9400005C
:100AC0000895FC01848DDF01A80FB11DA35ABF4F0B
:100AD0002C91848D90E001968F739927848FA6893D
:100AE000B7892C93A089B1898C9180648C93938D64
:100AF000848D981306C00288F389E02D80818F7D54
:100B000080830895CF93DF93EC01888D8823C9F00B
:100B1000EA89FB89808185FD05C0A889B9898C9106
:100B200086FD0FC00FB607FCF5CF808185FFF2CFA1
:100B3000A889B9898C9185FFEDCFCE010E9461050E
:100B4000E7CFDF91CF910895CF92DF92FF920F937D
:100B50001F93CF93DF931F92CDB7DEB76C01DC01FB
:100B60005B969C915B975C968C915C97981307C001
:100B70005096ED91FC915197808185FD32C0F60130
:100B8000038D10E00F5F1F4F0F731127F02EF6013A
:100B9000848DF81211C00FB607FCF9CFD60150961C
:100BA000ED91FC915197808185FFF1CFC60169835A
:100BB0000E9461056981EBCF838DE80FF11DE35A37
:100BC000FF4F6083D6015B960C935B975296ED9135
:100BD000FC91539780818062808381E058968C934A
:100BE0000DC0D6015696ED91FC91579760835096B3
:100BF000ED91FC91519780818064808381E090E049
:100C00000F90DF91CF911F910F91FF90DF90CF90C8
:100C10000895BF92CF92DF92EF92FF92CF93DF932E
:100C2000EC016A017B01B22EE889F98982E08083B8
:100C3000411581EE580761057105A1F060E079E08A
:100C40008DE390E0A70196010E94CD072150310964
:100C5000410951095695479537952795211580E10A
:100C6000380798F0E889F989108260E874E88EE125
:100C700090E0A70196010E94CD072150310941095A
:100C800051095695479537952795EC85FD85308315
:100C9000EE85FF852083188EEC89FD89B082EA8974
:100CA000FB89808180618083EA89FB8980818860FB
:100CB0008083EA89FB89808180688083EA89FB8957
:100CC00080818F7D8083DF91CF91FF90EF90DF90C7
:100CD000CF90BF9008951F920F920FB60F921124DC
:100CE0002F938F939F93EF93FF93E0910402F091E2
:100CF00005028081E0910A02F0910B0282FD12C090
:100D0000908180910D028F5F8F7320910E02821768
:100D100051F0E0910D02F0E0EC50FE4F958F809382
:100D20000D0201C08081FF91EF919F918F912F91D2
:100D30000F900FBE0F901F9018951F920F920FB635
:100D40000F9211242F933F934F935F936F937F9351
:100D50008F939F93AF93BF93EF93FF9384EF91E0B3
:100D60000E946105FF91EF91BF91AF919F918F918B
:100D70007F916F915F914F913F912F910F900FBE97
:100D80000F901F90189584EF91E00E94260521E0B6
:100D9000892B09F420E0822F08951092F701109218
:100DA000F60188EE93E0A0E0B0E08093F801909324
:100DB000F901A093FA01B093FB0184E191E09093D3
:100DC000F5018093F40185EC90E09093010280930B
:100DD000000284EC90E0909303028093020280EC86
:100DE00090E0909305028093040281EC90E0909350
:100DF00007028093060282EC90E0909309028093B0
:100E0000080286EC90E090930B0280930A02109205
:100E10000D0210920E0210920F021092100208950D
:100E200008950E9492070E9410070E948900C3E55E
:100E3000D5E00E94CF002097E1F30E945305F9CF3F
:100E4000CF92DF92EF92FF920F931F93CF93DF9396
:100E50006C017A01EB01E60EF71E00E010E0CE1502
:100E6000DF0561F06991D601ED91FC910190F0816F
:100E7000E02DC6010995080F191FF1CFC801DF91B8
:100E8000CF911F910F91FF90EF90DF90CF90089539
:100E90001F920F920FB60F9211242F933F938F93AF
:100EA0009F93AF93BF938091920290919302A091F0
:100EB0009402B09195023091910223E0230F2D37D7
:100EC00020F40196A11DB11D05C026E8230F02964E
:100ED000A11DB11D209391028093920290939302E1
:100EE000A0939402B09395028091960290919702FC
:100EF000A0919802B09199020196A11DB11D809315
:100F0000960290939702A0939802B0939902BF9192
:100F1000AF919F918F913F912F910F900FBE0F90A6
:100F20001F901895789484B5826084BD84B58160E3
:100F300084BD85B5826085BD85B5816085BDEEE6E1
:100F4000F0E0808181608083E1E8F0E010828081C0
:100F500082608083808181608083E0E8F0E080812E
:100F600081608083E1EBF0E0808184608083E0EB4E
:100F7000F0E0808181608083EAE7F0E08081846036
:100F80008083808182608083808181608083808192
:100F9000806880831092C1000895A1E21A2EAA1BD6
:100FA000BB1BFD010DC0AA1FBB1FEE1FFF1FA21719
:100FB000B307E407F50720F0A21BB30BE40BF50B16
:100FC000661F771F881F991F1A9469F7609570959F
:100FD000809590959B01AC01BD01CF010895EE0F66
:0E0FE000FF1F0590F491E02D0994F894FFCFC7
:100FEE00000000000402D701AC01B401C701D60114
:100FFE0000000000A405200726053F0531058205E7
:00000001FF
