:100000000C945F000C9487000C9487000C9487007C
:100010000C9487000C9487000C9487000C94870044
:100020000C9487000C9487000C9487000C94870034
:100030000C9487000C9487000C9487000C94870024
:100040000C94EE080C9487000C949B0B0C94CD0B35
:100050000C9487000C9487000C9487000C94870004
:100060000C94C1070C9487000000000800020100F6
:100070000003040700000000000000000102040863
:100080001020408001020408102001020408102002
:10009000040404040404040402020202020203032E
:1000A0000303030300000000250028002B000000CC
:1000B0000000240027002A006105DF06FD0B112443
:1000C0001FBECFEFD8E0DEBFCDBF13E0A0E0B1E0B0
:1000D000EAE1F2E202C005900D92A630B107D9F72D
:1000E00024E0A6E0B3E001C01D92AD38B207E1F70D
:1000F00010E0CEEBD0E004C02297FE010E94071171
:10010000C83BD107C9F70E94410C0C940B110C9409
:100110000000DC01ED91FC910190F081E02D09944B
:100120001F93CF93DF93162FEA0166E370E087E217
:1001300093E00E94C7066EEF70E087E293E00E94B2
:100140008900612F87E293E00E946406BE0187E286
:1001500093E00E94890087E293E0DF91CF911F91A5
:100160000C94DC0640E050E064E50C94900040E024
:1001700050E060E40C949000FF920F931F93CF9394
:10018000DF93F62EEA01890166E370E087E293E0EF
:100190000E94C7066F2D87E293E00E94640687E203
:1001A00093E00E94DC0642E050E066E370E087E204
:1001B00093E00E94BA0687E293E00E940C0687E271
:1001C00093E00E941406888387E293E00E9414065D
:1001D000F801808387E293E0DF91CF911F910F9127
:1001E000FF900C94DC06CF92DF92EF92FF92CF93B8
:1001F000DF9300D0CDB7DEB71A8219829E012F5F40
:100200003F4FAE014E5F5F4F64E00E94BC006A81C9
:1002100070E080E090E00E94BC0F6B017C0169817E
:1002200070E080E090E00E94BC0F20E030E040E809
:100230005BE30E9470109B01AC01C701B6010E94F4
:10024000B90E0F900F90DF91CF91FF90EF90DF905C
:10025000CF900895CF93DF9300D0CDB7DEB71A8249
:1002600019829E012F5F3F4FAE014E5F5F4F68E0E6
:100270000E94BC0089810F900F90DF91CF9108956B
:10028000CF93DF9300D0CDB7DEB71A8219829E01DB
:100290002F5F3F4FAE014E5F5F4F6CE00E94BC008E
:1002A00029812F7180E290E0821B91090F900F90BD
:1002B000DF91CF910895CF93DF9300D0CDB7DEB714
:1002C0001A8219829E012F5F3F4FAE014E5F5F4F32
:1002D0006CE00E94BC00898185FB882780F90F9023
:1002E0000F90DF91CF910895CF93DF9300D0CDB7DA
:1002F000DEB71A8219829E012F5F3F4FAE014E5F1B
:100300005F4F6CE00E94BC009981892F881F88276D
:10031000881F0F900F90DF91CF910895EF92FF9279
:100320000F931F93CF93DF93EC010E9440018C0148
:10033000CE010E947401E82ECE010E945B01F82ECE
:10034000CE010E942A01C82F60E071E080EF93E0A7
:100350000E948E0C40E150E06C2F80EF93E00E94F1
:100360008D0D6BE071E080EF93E00E948E0C6E2D9E
:1003700070E040E150E080EF93E00E94680D64E19E
:1003800071E080EF93E00E948E0C6F2D70E040E1F1
:1003900050E080EF93E00E94680D6DE171E080EF26
:1003A00093E00E948E0C4AE050E0B80180EF93E0A9
:1003B0000E94600D60E371E080EF93E0DF91CF91E8
:1003C0001F910F91FF90EF900C94AB0C80E4809301
:1003D0007C0087E880937A00089587E293E00E948A
:1003E000A30626E040E855E260E070E080EF93E08D
:1003F0000E94390B0E94E60161E085E00E94E70956
:100400008FE193E00E9486058EE193E00E94B200A6
:100410008EE193E00E94B7008EE193E00E948E018E
:1004200068EE73E080E090E00C945B0990917C00B2
:100430008770987F892B80937C0080917A008064FC
:1004400080937A0080917A0086FDFCCF80917800BD
:100450009091790008958FE193E00E94C7058FE1A4
:1004600093E00E94D80490931103809310038FE1CE
:1004700093E00E94C90490930F0380930E038FE1D1
:1004800093E00E94BA0490930D0380930C038FE1D4
:1004900093E00E94860490930B0380930A038FE1FC
:1004A00093E00E949C0490930903809308038FE1DA
:1004B00093E00E94AB049093070380930603089592
:1004C0000F931F93CF93DF9310E0C0E0D0E00AE0DA
:1004D00080EF93E00E94560A892BC9F0111117C0D2
:1004E00080EF93E00E946F0A90ED980F9A3068F4C5
:1004F0009E01029FE001039FD00D1124992787FDE3
:100500009095C097C80FD91FE3CF11E0E1CFCE017E
:10051000DF91CF911F910F910895CF93DF9380EFDB
:1005200093E00E94560A892B09F4E3C080EF93E020
:100530000E946F0A8A3509F4A8C0B4F48D3409F416
:1005400071C044F4883431F1893499F1843409F06C
:10055000A8C077C0873509F483C0893509F453C032
:10056000833509F09EC040C08D3609F45BC044F469
:10057000883681F08936E9F0843609F092C061C08E
:10058000893709F440C08A3709F478C0833709F005
:1005900088C02AC00E946002EC01BC018FE193E098
:1005A0000E9415058FE193E00E948D0562E371E0E2
:1005B0000EC00E946002EC01BC018FE193E00E943A
:1005C00007058FE193E00E948D0564E471E080EF00
:1005D00093E00E948E0C4AE050E0BE0180EF93E071
:1005E000DF91CF910C94680D0E946002EC01BC0178
:1005F0008FE193E00E94F6048FE193E00E948D0565
:1006000068E571E0E4CF0E946002EC01BC018FE17B
:1006100093E00E9453058FE193E00E948D056CE604
:1006200071E0D5CF0E946002EC01BC018FE193E044
:100630000E9444058FE193E00E948D056DE771E013
:10064000C6CF0E946002EC01BC018FE193E00E94E2
:1006500035058FE193E00E948D056FE871E0B7CF1B
:1006600060EA71E080EF93E00E948E0C8FE193E0EE
:100670000E94E7044AE050E0BC01B0CF8FE193E074
:100680000E94860560EB71E006C08FE193E00E9456
:100690007F056AEC71E080EF93E0DF91CF910C94DD
:1006A000AB0C64EE71E080EF93E00E94AB0C60E075
:1006B00072E080EF93E00E94AB0C60E272E080EFAA
:1006C00093E00E94AB0C63E472E080EF93E00E9441
:1006D000AB0C80EF93E00E94970C65E672E080EF30
:1006E00093E00E94AB0C80EF93E0DF91CF910C94EC
:1006F000970CDF91CF91089582E00E9416026AE084
:1007000070E080E090E00E945B0982E00E941602A7
:1007100090931B0380931A03BC0180E090E00E9439
:10072000BA0F20E030E04AEF5EE30E947010609361
:10073000160370931703809318039093190365E8C9
:1007400072E080EF93E00E948E0C4091160350916E
:100750001703609118037091190322E030E080EFD5
:1007600093E00E94A50E64E670E080E090E00E94B5
:100770005B0983E00E9416026AE070E080E090E08E
:100780000E945B0983E00E94160290931D038093F0
:100790001C0363E972E080EF93E00E948E0C60918D
:1007A0001C0370911D034AE050E080EF93E00E942B
:1007B000A40D80EF93E00E94560A892B11F00E944D
:1007C0008D020E942B0260EA72E080EF93E00E94AB
:1007D0008E0C60911003709111034AE050E080EF9D
:1007E00093E00E94600D6FE280EF93E00E94900C16
:1007F00060910E0370910F034AE050E080EF93E0A8
:100800000E94600D6FE280EF93E00E94900C609177
:100810000C0370910D034AE050E080EF93E00E94DA
:10082000600D6EEA72E080EF93E00E948E0C6091A2
:100830000A0370910B034AE050E080EF93E00E94BE
:10084000600D6AE380EF93E00E94900C60910803D2
:10085000709109034AE050E080EF93E00E94600D40
:100860006AE380EF93E00E94900C60910603709120
:1008700007034AE050E080EF93E00E94680D8EE1AC
:1008800093E00E94F300609312037093130380932C
:1008900014039093150363EB72E080EF93E00E94E2
:1008A0008E0C4091120350911303609114037091C8
:1008B000150322E030E080EF93E00E94A50E8091C6
:1008C0000603909107038330910538F461E085E0D9
:1008D0000E94200A6DEB72E009C04E97039750F416
:1008E00060E085E00E94200A66EC72E080EF93E011
:1008F0000E94AB0C68E873E180E090E00E945B0925
:1009000060ED72E080EF93E00C94AB0CFC019281FF
:10091000292F2F7096FF05C0969596959695927003
:1009200004C09695969596959670892F880F880F96
:10093000890F820F90E00895FC012181922F9695F6
:10094000969596959E71892F880F880F890F2F7025
:10095000820F90E00895FC012081922F9695969544
:1009600096959E70892F880F880F890F2F70820FA0
:1009700090E00895FC012681922F96959695969584
:100980009E71892F880F880F890F2F70820F90E03A
:100990000895FC012581922F9695969596959E71C6
:1009A000892F880F880F890F2F70820F90E008958C
:1009B000FC012481922F9695969596959E71892F8C
:1009C000880F880F890F2F70820F90E00895FC0127
:1009D0002381922F9695969596959E71892F880FD3
:1009E000880F890F2F70820F90E00895FC016C33FF
:1009F000710560F4862F6AE00E94D71020E1829F83
:100A0000900D112480818078982B90830895FC01AB
:100A10006C33710548F4862F6AE00E94D71020E1FC
:100A2000829F900D112491830895FC01228126FF5D
:100A30000FC0CB0101970C97B8F4862F6AE00E9493
:100A4000D71030E1839F900D11242076922B0BC09C
:100A50006931710548F4862F6AE00E94D71020E1C1
:100A6000829F900D112492830895FC01CB01019780
:100A70004F9748F4862F6AE00E94D71020E1829FAA
:100A8000900D112494830895FC01CB0101970C97DC
:100A900048F4862F6AE00E94D71020E1829F900DD3
:100AA000112495830895FC016436710548F4862F5E
:100AB0006AE00E94D71020E1829F900D1124968356
:100AC000089587E293E00C94A306CF93DF93D82F89
:100AD000C62F68E670E087E293E00E94C7066D2F9C
:100AE00087E293E00E9464066C2F87E293E00E9405
:100AF000640687E293E0DF91CF910C94DC06FC0161
:100B000060816068608380E00C946505FC01608111
:100B10006F77608380E00C946505CF93DF93EC01E1
:100B200060E880E00E94650568E670E087E293E097
:100B30000E94C70661E087E293E00E946406698133
:100B400087E293E00E9464066A8187E293E00E9454
:100B500064066B8187E293E00E9464066C8187E201
:100B600093E00E9464066D8187E293E00E94640630
:100B70006E8187E293E00E94640687E293E00E9420
:100B8000DC06688180E0DF91CF910C946505CF93FE
:100B9000DF93EC0168E670E087E293E00E94C7060D
:100BA00060E087E293E00E94640687E293E00E949F
:100BB000DC0648E050E068E670E087E293E00E94DF
:100BC000BA0687E293E00E941406888387E293E0E6
:100BD0000E941406898387E293E00E9414068A83A8
:100BE00087E293E00E9414068B8387E293E00E94E1
:100BF00014068C8387E293E00E9414068D8387E2BB
:100C000093E00E9414068E8387E293E00E9414060C
:100C10008F83DF91CF9108958091570390E02091C9
:100C20005803821B9109089520915803809157031E
:100C3000281750F4E22FF0E0E75AFC4F808190E053
:100C40002F5F2093580308958FEF9FEF0895E09151
:100C5000580380915703E81730F4F0E0E75AFC4F4F
:100C6000808190E008958FEF9FEF08950895CF92CF
:100C7000DF92EF92FF920F931F93CF93DF937C014C
:100C8000CB018A0120913303222389F0EB016B0110
:100C9000C40ED51ECC15DD0569F06991D701ED9123
:100CA000FC910190F081E02DC7010995F3CF642FED
:100CB0000E949807C801DF91CF911F910F91FF907B
:100CC000EF90DF90CF900895CF93DF931F92CDB731
:100CD000DEB76983209133032223D1F020913403BE
:100CE000203240F021E030E0FC013383228380E0B9
:100CF00090E015C080913503E82FF0E0EA5CFC4FEE
:100D0000998190838F5F809335038093340305C06E
:100D100061E0CE0101960E94980781E090E00F907B
:100D2000DF91CF910895FC011382128248EE53E0C7
:100D300060E070E044835583668377838EED92E0B4
:100D40009183808308951092580310925703109254
:100D50003503109234030C94E306862F413208F0D9
:100D600040E269E573E00E94010710925803809306
:100D70005703089521E00C94AD0681E0809333037E
:100D800060935603109235031092340308950C9427
:100D9000BD060F93062F21E04091340366E373E014
:100DA000809156030E944507109235031092340338
:100DB000109233030F91089561E00C94C90687E205
:100DC00093E00C9493061092E60381E08093E40391
:100DD0001092E30361E082E10E94200A61E083E176
:100DE0000E94200AE9EBF0E080818E7F8083808181
:100DF0008D7F808388E48093B80085E48093BC0075
:100E00000895413208F03FC09091E6039111FCCF64
:100E100091E09093E6032093E4032FEF209379036E
:100E20001092BE03240F2093BD039093E50390918D
:100E3000E503880F892B8093E5038091E3038130DC
:100E400041F41092E3038091E5038093BB0085ECAD
:100E500001C085EE8093BC008091E6038130E1F310
:100E60008091BE03841710F44091BE032FEB33E052
:100E7000FB01D9018A2F821B841718F48D9181936D
:100E8000F9CF842F089580E008950F93413208F040
:100E900046C09091E6039111FCCF92E09093E60357
:100EA0000093E4039FEF909379031092BE03409365
:100EB000BD03FB016FEB73E0DB019A2F961B9417C8
:100EC00018F491919D93F9CF1092E5039091E50369
:100ED000880F892B8093E5038091E303813041F4EF
:100EE0001092E3038091E5038093BB0085EC01C081
:100EF00085EE8093BC00222321F08091E6038230AE
:100F0000E1F3809179038F3F61F080917903803222
:100F100051F080917903803341F483E007C081E090
:100F200005C080E003C082E001C084E00F91089515
:100F3000613298F42091E603243089F460939B0396
:100F4000FC018DE993E0DC012A2F281B261718F4F9
:100F500021912D93F9CF80E0089581E0089582E0FA
:100F6000089585ED8093BC008091BC0084FDFCCF8A
:100F70001092E603089585EC8093BC001092E6037E
:100F800008951F920F920FB60F9211242F933F9343
:100F90004F935F936F937F938F939F93AF93BF9381
:100FA000EF93FF938091B900887F803609F49CC04D
:100FB00068F5883209F45BC090F4803109F454C0BC
:100FC00038F4882309F4F5C0883009F44DC0F5C021
:100FD000883109F44CC0803209F45DC0EEC0803421
:100FE00009F468C048F4803309F455C0883309F027
:100FF000E4C080937903A8C0803509F44FC08835D8
:1010000009F45DC0883409F0D8C0D5C0883909F426
:10101000C6C0A8F4883709F467C038F4883609F4E4
:1010200063C0803709F460C0C8C0883809F4B7C00D
:10103000803909F45FC0803809F0BFC05BC0803BD5
:1010400009F485C038F4803A09F466C0883A09F496
:101050007EC0B3C0803C09F4A6C0883C09F4A3C09C
:10106000883B09F489C0A9C08091E50310C0909124
:10107000BE038091BD03981770F5E091BE0381E037
:101080008E0F8093BE03F0E0E154FC4F808180938B
:10109000BB0085EC85C0809379038DC0E091BE03D1
:1010A00081E08E0F8093BE038091BB00F0E0E1549D
:1010B000FC4F80839091BE038091BD036DC0E09191
:1010C000BE0381E08E0F8093BE038091BB00F0E0F1
:1010D000E154FC4F80838091E40381116CC081E076
:1010E0008093E30384EA60C083E08093E603109278
:1010F0007A03CFCF80917A03803208F050C0E0911C
:101100007A0381E08E0F80937A038091BB00F0E038
:10111000E558FC4F8083BDCF80917A03803230F454
:10112000E0917A03F0E0E558FC4F10820E94B1078D
:1011300060917A0370E0E091DF03F091E0038BE7C8
:1011400093E0099510927A030E94BB0736C084E0B1
:101150008093E60310929C0310929B03E091E103BD
:10116000F091E203099580919B03811105C081E014
:1011700080939B0310929D03E0919C0381E08E0F6E
:1011800080939C03F0E0E356FC4F80818093BB008A
:1011900090919C0380919B03981708F47ACF85E87F
:1011A0008093BC000AC085EC8093BC001092E603DB
:1011B00004C0109279030E94B107FF91EF91BF9193
:1011C000AF919F918F917F916F915F914F913F91DF
:1011D0002F910F900FBE0F901F9018951F920F9296
:1011E0000FB60F9211242F933F938F939F93AF933A
:1011F000BF938091E8039091E903A091EA03B09135
:10120000EB033091E70323E0230F2D3720F4019601
:10121000A11DB11D05C026E8230F0296A11DB11D19
:101220002093E7038093E8039093E903A093EA03F4
:10123000B093EB038091EC039091ED03A091EE034A
:10124000B091EF030196A11DB11D8093EC03909323
:10125000ED03A093EE03B093EF03BF91AF919F9185
:101260008F913F912F910F900FBE0F901F90189567
:101270003FB7F8948091EC039091ED03A091EE03B9
:10128000B091EF0326B5A89B05C02F3F19F001963A
:10129000A11DB11D3FBF6627782F892F9A2F620F9E
:1012A000711D811D911D42E0660F771F881F991FD8
:1012B0004A95D1F70895CF92DF92EF92FF92CF93A4
:1012C000DF936B017C010E943809EB01C114D1044A
:1012D000E104F10489F00E94B70E0E9438096C1BEA
:1012E0007D0B683E734090F381E0C81AD108E10895
:1012F000F108C851DC4FEACFDF91CF91FF90EF901A
:10130000DF90CF900895789484B5826084BD84B5D1
:10131000816084BD85B5826085BD85B5816085BDF0
:10132000EEE6F0E0808181608083E1E8F0E0108209
:10133000808182608083808181608083E0E8F0E04A
:10134000808181608083E1EBF0E080818460808334
:10135000E0EBF0E0808181608083EAE7F0E080816B
:1013600084608083808182608083808181608083CB
:101370008081806880831092C1000895833081F05D
:1013800028F4813099F08230A1F008958730A9F0D7
:101390008830B9F08430D1F4809180008F7D03C013
:1013A000809180008F7780938000089584B58F7737
:1013B00002C084B58F7D84BD08958091B0008F7781
:1013C00003C08091B0008F7D8093B0000895CF93CB
:1013D000DF9390E0FC01E458FF4F2491FC01E057BB
:1013E000FF4F8491882349F190E0880F991FFC01F9
:1013F000E255FF4FA591B4918C559F4FFC01C591CB
:10140000D4919FB7611108C0F8948C9120958223E4
:101410008C93888182230AC0623051F4F8948C91B5
:10142000322F309583238C938881822B888304C04C
:10143000F8948C91822B8C939FBFDF91CF9108956C
:101440000F931F93CF93DF931F92CDB7DEB7282F53
:1014500030E0F901E859FF4F8491F901E458FF4F5A
:101460001491F901E057FF4F04910023C9F088233C
:1014700021F069830E94BE096981E02FF0E0EE0F40
:10148000FF1FEC55FF4FA591B4919FB7F8948C9135
:10149000611103C01095812301C0812B8C939FBFE4
:1014A0000F90DF91CF911F910F910895FC01818DD5
:1014B000228D90E0805C9F4F821B91098F7399274A
:1014C0000895FC01918D828D981731F0828DE80F7F
:1014D000F11D858D90E008958FEF9FEF0895FC0139
:1014E000918D828D981761F0828DDF01A80FB11D5B
:1014F0005D968C91928D9F5F9F73928F90E008957F
:101500008FEF9FEF089583EF9BE0892B49F080E0F8
:1015100090E0892B29F00E94F30B81110C940000BC
:101520000895FC01848DDF01A80FB11DA35ABF4FA0
:101530002C91848D90E001968F739927848FA689D2
:10154000B7892C93A089B1898C9180648C93938DF9
:10155000848D981306C00288F389E02D80818F7DE9
:1015600080830895CF93DF93EC01888D8823C9F0A1
:10157000EA89FB89808185FD05C0A889B9898C919C
:1015800086FD0FC00FB607FCF5CF808185FFF2CF37
:10159000A889B9898C9185FFEDCFCE010E94910A6F
:1015A000E7CFDF91CF910895CF92DF92FF920F9313
:1015B0001F93CF93DF931F92CDB7DEB76C01DC0191
:1015C0005B969C915B975C968C915C97981307C097
:1015D0005096ED91FC915197808185FD32C0F601C6
:1015E000038D10E00F5F1F4F0F731127F02EF601D0
:1015F000848DF81211C00FB607FCF9CFD6015096B2
:10160000ED91FC915197808185FFF1CFC6016983EF
:101610000E94910A6981EBCF838DE80FF11DE35A97
:10162000FF4F6083D6015B960C935B975296ED91CA
:10163000FC91539780818062808381E058968C93DF
:101640000DC0D6015696ED91FC9157976083509648
:10165000ED91FC91519780818064808381E090E0DE
:101660000F90DF91CF911F910F91FF90DF90CF905E
:101670000895BF92CF92DF92EF92FF92CF93DF93C4
:10168000EC016A017B01B22EE889F98982E080834E
:10169000411581EE580761057105A1F060E079E020
:1016A0008DE390E0A70196010E94E31021503109DB
:1016B000410951095695479537952795211580E1A0
:1016C000380798F0E889F989108260E874E88EE1BB
:1016D00090E0A70196010E94E310215031094109D1
:1016E00051095695479537952795EC85FD853083AB
:1016F000EE85FF852083188EEC89FD89B082EA890A
:10170000FB89808180618083EA89FB898081886090
:101710008083EA89FB89808180688083EA89FB89EC
:1017200080818F7D8083DF91CF91FF90EF90DF905C
:10173000CF90BF9008951F920F920FB60F92112471
:101740002F938F939F93EF93FF93E0910004F09179
:1017500001048081E0910604F091070482FD12C02B
:101760009081809109048F5F8F7320910A04821702
:1017700051F0E0910904F0E0E051FC4F958F809327
:10178000090401C08081FF91EF919F918F912F916A
:101790000F900FBE0F901F9018951F920F920FB6CB
:1017A0000F9211242F933F934F935F936F937F93E7
:1017B0008F939F93AF93BF93EF93FF9380EF93E04B
:1017C0000E94910AFF91EF91BF91AF919F918F91EC
:1017D0007F916F915F914F913F912F910F900FBE2D
:1017E0000F901F90189580EF93E00E94560A21E019
:1017F000892B09F420E0822F08951092F3031092B0
:10180000F20388EE93E0A0E0B0E08093F4039093BD
:10181000F503A093F603B093F7038EEE92E0909356
:10182000F1038093F00385EC90E09093FD038093A7
:10183000FC0384EC90E09093FF038093FE0380EC24
:1018400090E0909301048093000481EC90E09093E9
:1018500003048093020482EC90E09093050480934B
:10186000040486EC90E090930704809306041092A1
:10187000090410920A0410920B0410920C040895AB
:1018800008950E9483090E94400C0E94ED01C3E864
:10189000DAE00E947C032097E1F30E94830AF9CFEB
:1018A000CF92DF92EF92FF920F931F93CF93DF932C
:1018B0006C017A01EB01E60EF71E00E010E0CE1598
:1018C000DF0561F06991D601ED91FC910190F08105
:1018D000E02DC6010995080F191FF1CFC801DF914E
:1018E000CF911F910F91FF90EF90DF90CF900895CF
:1018F0006115710581F0DB010D900020E9F7AD0164
:1019000041505109461B570BDC01ED91FC910280BF
:10191000F381E02D099480E090E008950C94780C18
:10192000DC01ED91FC910190F081E02D09940F9381
:101930001F93CF93DF93EC016DE00E94900C8C011C
:101940006AE0CE010E94900C800F911FDF91CF9131
:101950001F910F9108950F931F93CF93DF93EC0185
:101960000E94780C8C01CE010E94970C800F911F71
:10197000DF91CF911F910F9108958F929F92AF9217
:10198000BF92CF92DF92EF92FF920F931F93CF936C
:10199000DF93CDB7DEB7A1970FB6F894DEBF0FBEC9
:1019A000CDBF7C01C42EE52FCB01D22E19A221E0A0
:1019B0002D1510F02AE0D22E8E010F5D1F4F8D2CB9
:1019C000912CA12CB12C6C2D7E2FA50194010E948D
:1019D000E3108C2DD29E80191124015011098A30F8
:1019E00014F4805D01C0895CF80180832115310504
:1019F0004105510521F0C22EE32FCA01E4CFB80101
:101A0000C7010E94780CA1960FB6F894DEBF0FBEF6
:101A1000CDBFDF91CF911F910F91FF90EF90DF909D
:101A2000CF90BF90AF909F908F900895CF92DF920C
:101A3000EF92FF920F931F93CF93DF93EC016A0114
:101A40007B012115310579F4E881F9810190F0815C
:101A5000E02D642FDF91CF911F910F91FF90EF90B8
:101A6000DF90CF9009942A303105E9F477FF1AC04E
:101A70006DE20E94900C8C0144275527BA014C1945
:101A80005D096E097F092AE0CE010E94BD0C800F1E
:101A9000911FDF91CF911F910F91FF90EF90DF90F9
:101AA000CF9008952AE0B701A601CE01DF91CF9132
:101AB0001F910F91FF90EF90DF90CF900C94BD0C91
:101AC0009A01AB01662757FD6095762F0C94160D91
:101AD0000F931F93CF93DF93EC019A01AB0166271D
:101AE00057FD6095762F0E94160D8C01CE010E9445
:101AF000970C800F911FDF91CF911F910F91089547
:101B00002115310541F4DC01ED91FC910190F0814A
:101B1000E02D642F09940C94BD0C0F931F93CF9369
:101B2000DF93EC019A01462F50E060E070E00E94E4
:101B3000800D8C01CE010E94970C800F911FDF91C8
:101B4000CF911F910F9108950F931F93CF93DF9320
:101B5000EC019A01AB0160E070E00E94800D8C0105
:101B6000CE010E94970C800F911FDF91CF911F91A2
:101B70000F9108954F925F926F927F928F929F92F2
:101B8000AF92BF92CF92DF92EF92FF920F931F938B
:101B9000CF93DF93EC016A017B01B22E9A01AB0176
:101BA000C701B6010E94D310882319F06AEF72E0D2
:101BB00027C026013701E89477F82FEF3FEF4FE772
:101BC0005FE7C301B2010E94D31081110DC02FEF56
:101BD0003FEF4FE75FE7C301B2010E941D0F1816E8
:101BE0001CF46EEF72E00CC02FEF3FEF4FE75FE4A5
:101BF000C701B6010E946C101816ACF462E073E0E5
:101C0000CE01DF91CF911F910F91FF90EF90DF9068
:101C1000CF90BF90AF909F908F907F906F905F908C
:101C20004F900C94780C2FEF3FEF4FE75FECC7011C
:101C3000B6010E941D0F87FDE1CF20E030E0A90131
:101C4000C701B6010E941D0F87FF0AC06DE2CE01D9
:101C50000E94900C8C01F7FAF094F7F8F09402C00F
:101C600000E010E0A12C60E070E080E09FE3AB14A6
:101C700041F020E030E040E251E40E94210FA394C3
:101C8000F6CF9B01AC01C701B6010E94B90E6B01F2
:101C90007C010E948E0F2B013C010E94BA0F9B0118
:101CA000AC01C701B6010E94B80E6B017C012AE0AD
:101CB000B301A201CE010E94BD0C080F191FBB2069
:101CC00039F062EE71E0CE010E94780C080F191F06
:101CD0007B2C772041F120E030E040E251E4C70165
:101CE000B6010E9470106B017C010E94890F4B01AC
:101CF000AA2497FCA094BA2C2AE030E0B501A401F4
:101D0000CE010E94160D080F191FC501B4010E94D3
:101D1000BC0F9B01AC01C701B6010E94B80E6B015C
:101D20007C017A94D6CFC801DF91CF911F910F919A
:101D3000FF90EF90DF90CF90BF90AF909F908F90EB
:101D40007F906F905F904F9008950F931F93CF9364
:101D5000DF93EC010E94BA0D8C01CE010E94970C1A
:101D6000800F911FDF91CF911F910F9108950895DA
:101D70005058BB27AA270ED075C166D130F06BD161
:101D800020F031F49F3F11F41EF45BC10EF4E09596
:101D9000E7FB51C1E92F77D180F3BA1762077307C8
:101DA0008407950718F071F49EF58FC10EF4E09545
:101DB0000B2EBA2FA02D0B01B90190010C01CA0105
:101DC000A0011124FF27591B99F0593F50F4503EB0
:101DD00068F11A16F040A22F232F342F4427585FA2
:101DE000F3CF469537952795A795F0405395C9F7BA
:101DF0007EF41F16BA0B620B730B840BBAF0915072
:101E0000A1F0FF0FBB1F661F771F881FC2F70EC010
:101E1000BA0F621F731F841F48F4879577956795E3
:101E2000B795F7959E3F08F0B3CF9395880F08F0CC
:101E30009927EE0F979587950895D9D008F481E0FA
:101E400008950CD00FC107D140F0FED030F021F43E
:101E50005F3F19F0F0C0511139C1F3C014D198F3AC
:101E60009923C9F35523B1F3951B550BBB27AA271B
:101E700062177307840738F09F5F5F4F220F331F8D
:101E8000441FAA1FA9F333D00E2E3AF0E0E830D059
:101E900091505040E695001CCAF729D0FE2F27D05C
:101EA000660F771F881FBB1F261737074807AB072A
:101EB000B0E809F0BB0B802DBF01FF2793585F4F9F
:101EC0002AF09E3F510568F0B6C000C15F3FECF3B9
:101ED000983EDCF3869577956795B795F7959F5F64
:101EE000C9F7880F911D9695879597F90895E1E0B8
:101EF000660F771F881FBB1F621773078407BA0717
:101F000020F0621B730B840BBA0BEE1F88F7E09571
:101F1000089504D06894B111D9C00895BCD088F058
:101F20009F5790F0B92F9927B751A0F0D1F0660FC5
:101F3000771F881F991F1AF0BA95C9F712C0B130E0
:101F400081F0C3D0B1E00895C0C0672F782F8827F3
:101F5000B85F39F0B93FCCF3869577956795B3951F
:101F6000D9F73EF490958095709561957F4F8F4F8E
:101F70009F4F0895E89409C097FB3EF49095809593
:101F8000709561957F4F8F4F9F4F9923A9F0F92F3F
:101F900096E9BB279395F695879577956795B795BD
:101FA000F111F8CFFAF4BB0F11F460FF1BC06F5FA3
:101FB0007F4F8F4F9F4F16C0882311F096E911C0B5
:101FC000772321F09EE8872F762F05C0662371F0D6
:101FD00096E8862F70E060E02AF09A95660F771FEA
:101FE000881FDAF7880F9695879597F90895990FC6
:101FF0000008550FAA0BE0E8FEEF16161706E807D3
:10200000F907C0F012161306E407F50798F0621BF3
:10201000730B840B950B39F40A2661F0232B242BC8
:10202000252B21F408950A2609F4A140A6958FEFE7
:10203000811D811D089597F99F6780E870E060E039
:1020400008959FEF80EC089500240A941616170651
:1020500018060906089500240A9412161306140699
:1020600005060895092E0394000C11F4882352F0FC
:10207000BB0F40F4BF2B11F460FF04C06F5F7F4FB4
:102080008F4F9F4F089557FD9058440F551F59F09B
:102090005F3F71F04795880F97FB991F61F09F3F55
:1020A00079F087950895121613061406551FF2CF7E
:1020B0004695F1DF08C0161617061806991FF1CFCE
:1020C00086957105610508940895E894BB276627F5
:1020D0007727CB0197F908958ADF08F48FEF0895E9
:1020E0000BD0C0CFB1DF28F0B6DF18F0952309F090
:1020F000A2CFA7CF1124EACFC6DFA0F3959FD1F3DB
:10210000950F50E0551F629FF001729FBB27F00DA5
:10211000B11D639FAA27F00DB11DAA1F649F6627FA
:10212000B00DA11D661F829F2227B00DA11D621F49
:10213000739FB00DA11D621F839FA00D611D221F03
:10214000749F3327A00D611D231F849F600D211DE7
:10215000822F762F6A2F11249F5750408AF0E1F08A
:1021600088234AF0EE0FFF1FBB1F661F771F881FD3
:1021700091505040A9F79E3F510570F05CCFA6CF1B
:102180005F3FECF3983EDCF3869577956795B795BE
:10219000F795E7959F5FC1F7FE2B880F911D9695E8
:1021A000879597F9089523DF880B990B0895991B5C
:1021B00079E004C0991F961708F0961B881F7A953E
:1021C000C9F780950895A1E21A2EAA1BBB1BFD0139
:1021D0000DC0AA1FBB1FEE1FFF1FA217B307E40706
:1021E000F50720F0A21BB30BE40BF50B661F771F5E
:1021F000881F991F1A9469F760957095809590953E
:102200009B01AC01BD01CF010895EE0FFF1F0590AA
:0A221000F491E02D0994F894FFCF3B
:10221A0056657273696F6E203D2000536C65657058
:10222A00203D2000416C657274203D2000416C65A0
:10223A007274205468726573686F6C64203D200064
:10224A00250053657474696E6720686F7572732010
:10225A00746F200053657474696E67206D696E75BA
:10226A0074657320746F200053657474696E6720F7
:10227A007365636F6E647320746F200053657474A2
:10228A00696E67207965617220746F2000536574E6
:10229A0074696E67206D6F6E746820746F200053C6
:1022AA00657474696E67206461746520746F2000B8
:1022BA00446179206F66207765656B206973200019
:1022CA00436C6F636B206F7363696C6C61746F72BC
:1022DA0020737461727465642E00436C6F636B20A3
:1022EA006F7363696C6C61746F722073746F707052
:1022FA0065642E00556E6B6E6F776E20636F6D6D21
:10230A00616E642E205472792074686573653A0090
:10231A0020682323202D2073657420486F757273FB
:10232A0020642323202D2073657420446174650082
:10233A0020692323202D20736574206D496E7574DE
:10234A006573206D2323202D20736574204D6F6ED5
:10235A0074680020732323202D207365742053652D
:10236A00636F6E647320792323202D207365742094
:10237A005965617200207A202D207374617274206D
:10238A00636C6F636B205A202D2073746F70206307
:10239A006C6F636B0054656D7065726174757265FC
:1023AA003A20005261696E2056616C75653A2000C8
:1023BA004461746520262054696D653A2000202DF9
:1023CA002D2000426174746572793A200052656C5E
:1023DA006179204F4E0052656C6179204F46460064
:1023EA002D2D2D2D2D2D2D2D2D00000000006406E4
:1023FA0037060C0614062706360600000000D40A23
:10240A00500C560A6F0A610AB20A6E616E00696E52
:06241A0066006F7666000B
:00000001FF
