:100000000C945A000C9482000C9482000C94820090
:100010000C9482000C9482000C9482000C94820058
:100020000C9482000C9482000C9482000C94820048
:100030000C9482000C9482000C9482000C94820038
:100040000C94A6040C9482000C941A070C944C0790
:100050000C9482000C9482000C9482000C94820018
:100060000C9479030C948200000000080002010047
:100070000003040700000000000000000102040863
:100080001020408001020408102001020408102002
:10009000040404040404040402020202020203032E
:1000A0000303030300000000250028002B005A0171
:1000B00097027C0711241FBECFEFD8E0DEBFCDBF73
:1000C00011E0A0E0B1E0EAECF0E102C005900D9291
:1000D000A433B107D9F722E0A4E3B1E001C01D9237
:1000E000A23AB207E1F710E0C4EBD0E004C02297D7
:1000F000FE010E945F08CE3AD107C9F70E94C007EF
:100100000C9463080C94000026E040E855E260E09F
:1001100070E085E092E00E94B80684E391E00C94E0
:10012000780184E391E00E947F0160E071E084E364
:1001300091E00E94DD0060E071E085E092E00E94C5
:10014000280868E873E180E090E00C941305FC0156
:100150009281292F2F7096FF05C0969596959695BA
:10016000927004C09695969596959670892F880FF3
:10017000880F890F820F90E00895FC01228126FFED
:1001800004C025FB222720F906C00E94A70021E019
:100190000C970CF420E0822F08956F706A3010F4F1
:1001A00080E301C087E3860F089570E024E0759531
:1001B00067952A95E1F70C94CD00FF920F931F935A
:1001C000CF93DF93EC018B016E810E94D500F80183
:1001D00080836E81CE010E94CD00F80181834DE2C3
:1001E000F42EF2826D816F71CE010E94D500F8016C
:1001F00083836D81CE010E94CD00F8018483F58256
:100200006C816F73CE010E94D500F80186836C81EA
:10021000CE010E94CD00F801878380E280876A8149
:1002200066FF02C06F7101C06F73CE010E94D500DE
:10023000F80181876A81CE010E94CD00F801828792
:100240003AE3F32EF38669816F77CE010E94D500E1
:10025000F80184876981CE010E94CD00F80185876D
:10026000F68668816F77CE010E94D500F8018787F6
:100270006881CE010E94CD00F801808B8A8186FFC3
:100280000DC0CE010E94BD00882311F080E501C0A1
:1002900081E4F801818B82E190E002C081E190E08D
:1002A000F801E80FF91F1082DF91CF911F910F9194
:1002B000FF9008958CE391E00C945B02CF93DF9361
:1002C000D82FC62F68E670E08CE391E00E947F0291
:1002D0006D2F8CE391E00E941C026C2F8CE391E067
:1002E0000E941C028CE391E0DF91CF910C94940268
:1002F000FC0160816F77608380E00C945E01CF9396
:10030000DF93EC0168E670E08CE391E00E947F02ED
:1003100060E08CE391E00E941C028CE391E00E947B
:10032000940248E050E068E670E08CE391E00E94BF
:1003300072028CE391E00E94CC0188838CE391E00F
:100340000E94CC0189838CE391E00E94CC018A83D6
:100350008CE391E00E94CC018B838CE391E00E94BE
:10036000CC018C838CE391E00E94CC018D838CE3E3
:1003700091E00E94CC018E838CE391E00E94CC013D
:100380008F83DF91CF91089580916C0190E020914F
:100390006D01821B9109089520916D0180916C017E
:1003A000281750F4E22FF0E0E259FE4F808190E0F0
:1003B0002F5F20936D0108958FEF9FEF0895E091D7
:1003C0006D0180916C01E81730F4F0E0E259FE4FC6
:1003D000808190E008958FEF9FEF08950895CF9268
:1003E000DF92EF92FF920F931F93CF93DF937C01E5
:1003F000CB018A0120914801222389F0EB016B0196
:10040000C40ED51ECC15DD0569F06991D701ED91BB
:10041000FC910190F081E02DC7010995F3CF642F85
:100420000E945003C801DF91CF911F910F91FF905F
:10043000EF90DF90CF900895CF93DF931F92CDB7C9
:10044000DEB76983209148012223D1F02091490130
:10045000203240F021E030E0FC013383228380E051
:1004600090E015C080914A01E82FF0E0E55BFE4F77
:10047000998190838F5F80934A018093490105C0E1
:1004800061E0CE0101960E94500381E090E00F9060
:10049000DF91CF910895FC011382128248EE53E060
:1004A00060E070E0448355836683778387E191E061
:1004B00091838083089510926D0110926C011092C7
:1004C0004A01109249010C949B02862F413208F098
:1004D00040E26EE671E00E94B90210926D018093D5
:1004E0006C01089521E00C94650281E0809348013D
:1004F00060936B0110924A011092490108950C9487
:1005000075020F93062F21E0409149016BE471E0E1
:1005100080916B010E94FD0210924A0110924901E4
:10052000109248010F91089561E00C9481028CE3D0
:1005300091E00C944B021092FB0181E08093F90151
:100540001092F80161E082E10E949F0561E083E181
:100550000E949F05E9EBF0E080818E7F808380819F
:100560008D7F808388E48093B80085E48093BC000D
:100570000895413208F03FC09091FB019111FCCFEA
:1005800091E09093FB012093F9012FEF20938E01CE
:100590001092D301240F2093D2019093FA019091ED
:1005A000FA01880F892B8093FA018091F80181303C
:1005B00041F41092F8018091FA018093BB0085EC20
:1005C00001C085EE8093BC008091FB018130E1F396
:1005D0008091D301841710F44091D30124ED31E0D0
:1005E000FB01D9018A2F821B841718F48D91819306
:1005F000F9CF842F089580E008950F93413208F0D9
:1006000046C09091FB019111FCCF92E09093FB01C9
:100610000093F9019FEF90938E011092D3014093C4
:10062000D201FB0164ED71E0DB019A2F961B941758
:1006300018F491919D93F9CF1092FA019091FA01DB
:10064000880F892B8093FA018091F801813041F461
:100650001092F8018091FA018093BB0085EC01C0F3
:1006600085EE8093BC00222321F08091FB01823033
:10067000E1F380918E018F3F61F080918E01803295
:1006800051F080918E01803341F483E007C081E016
:1006900005C080E003C082E001C084E00F910895AE
:1006A000613298F42091FB01243089F46093B00109
:1006B000FC0182EB91E0DC012A2F281B261718F49D
:1006C00021912D93F9CF80E0089581E0089582E093
:1006D000089585ED8093BC008091BC0084FDFCCF23
:1006E0001092FB01089585EC8093BC001092FB01F1
:1006F00008951F920F920FB60F9211242F933F93DC
:100700004F935F936F937F938F939F93AF93BF9319
:10071000EF93FF938091B900887F803609F49CC0E5
:1007200068F5883209F45BC090F4803109F454C054
:1007300038F4882309F4F5C0883009F44DC0F5C0B9
:10074000883109F44CC0803209F45DC0EEC08034B9
:1007500009F468C048F4803309F455C0883309F0BF
:10076000E4C080938E01A8C0803509F44FC088355D
:1007700009F45DC0883409F0D8C0D5C0883909F4BF
:10078000C6C0A8F4883709F467C038F4883609F47D
:1007900063C0803709F460C0C8C0883809F4B7C0A6
:1007A000803909F45FC0803809F0BFC05BC0803B6E
:1007B00009F485C038F4803A09F466C0883A09F42F
:1007C0007EC0B3C0803C09F4A6C0883C09F4A3C035
:1007D000883B09F489C0A9C08091FA0110C09091AA
:1007E000D3018091D201981770F5E091D30181E097
:1007F0008E0F8093D301F0E0EC52FE4F8081809306
:10080000BB0085EC85C080938E018DC0E091D30143
:1008100081E08E0F8093D3018091BB00F0E0EC5219
:10082000FE4F80839091D3018091D2016DC0E09101
:10083000D30181E08E0F8093D3018091BB00F0E063
:10084000EC52FE4F80838091F90181116CC081E0F0
:100850008093F80184EA60C083E08093FB011092EA
:100860008F01CFCF80918F01803208F050C0E0918E
:100870008F0181E08E0F80938F018091BB00F0E0AB
:10088000E057FE4F8083BDCF80918F01803230F4DE
:10089000E0918F01F0E0E057FE4F10820E94690363
:1008A00060918F0170E0E091F401F091F50180E931
:1008B00091E0099510928F010E94730336C084E085
:1008C0008093FB011092B1011092B001E091F6010A
:1008D000F091F70109958091B001811105C081E087
:1008E0008093B0011092B201E091B10181E08E0FCE
:1008F0008093B101F0E0EE54FE4F80818093BB0005
:100900009091B1018091B001981708F47ACF85E8F1
:100910008093BC000AC085EC8093BC001092FB0160
:1009200004C010928E010E946903FF91EF91BF9164
:10093000AF919F918F917F916F915F914F913F9177
:100940002F910F900FBE0F901F9018951F920F922E
:100950000FB60F9211242F933F938F939F93AF93D2
:10096000BF938091FD019091FE01A091FF01B09194
:1009700000023091FC0123E0230F2D3720F4019673
:10098000A11DB11D05C026E8230F0296A11DB11DB2
:100990002093FC018093FD019093FE01A093FF0141
:1009A000B09300028091010290910202A091030293
:1009B000B09104020196A11DB11D80930102909394
:1009C0000202A0930302B0930402BF91AF919F91E2
:1009D0008F913F912F910F900FBE0F901F90189500
:1009E0003FB7F8948091010290910202A091030216
:1009F000B091040226B5A89B05C02F3F19F00196BF
:100A0000A11DB11D3FBF6627782F892F9A2F620F36
:100A1000711D811D911D42E0660F771F881F991F70
:100A20004A95D1F70895CF92DF92EF92FF92CF933C
:100A3000DF936B017C010E94F004EB01C114D1042F
:100A4000E104F10489F00E943A080E94F0046C1B52
:100A50007D0B683E734090F381E0C81AD108E1082D
:100A6000F108C851DC4FEACFDF91CF91FF90EF90B2
:100A7000DF90CF900895789484B5826084BD84B56A
:100A8000816084BD85B5826085BD85B5816085BD89
:100A9000EEE6F0E0808181608083E1E8F0E01082A2
:100AA000808182608083808181608083E0E8F0E0E3
:100AB000808181608083E1EBF0E0808184608083CD
:100AC000E0EBF0E0808181608083EAE7F0E0808104
:100AD0008460808380818260808380818160808364
:100AE0008081806880831092C1000895833081F0F6
:100AF00028F4813099F08230A1F008958730A9F070
:100B00008830B9F08430D1F4809180008F7D03C0AB
:100B1000809180008F7780938000089584B58F77CF
:100B200002C084B58F7D84BD08958091B0008F7719
:100B300003C08091B0008F7D8093B00008950F9323
:100B40001F93CF93DF931F92CDB7DEB7282F30E0EE
:100B5000F901E859FF4F8491F901E458FF4F1491CE
:100B6000F901E057FF4F04910023C9F0882321F0D9
:100B700069830E9476056981E02FF0E0EE0FFF1F88
:100B8000EC55FF4FA591B4919FB7F8948C916111EA
:100B900003C01095812301C0812B8C939FBF0F90C0
:100BA000DF91CF911F910F910895FC01818D228DCE
:100BB00090E0805C9F4F821B91098F739927089565
:100BC000FC01918D828D981731F0828DE80FF11D17
:100BD000858D90E008958FEF9FEF0895FC01918D32
:100BE000828D981761F0828DDF01A80FB11D5D968F
:100BF0008C91928D9F5F9F73928F90E008958FEFFD
:100C00009FEF089582E797E0892B49F080E090E01C
:100C1000892B29F00E94720781110C94000008951D
:100C2000FC01848DDF01A80FB11DA35ABF4F2C9189
:100C3000848D90E001968F739927848FA689B78958
:100C40002C93A089B1898C9180648C93938D848D31
:100C5000981306C00288F389E02D80818F7D808300
:100C60000895CF93DF93EC01888D8823C9F0EA893A
:100C7000FB89808185FD05C0A889B9898C9186FD95
:100C80000FC00FB607FCF5CF808185FFF2CFA88992
:100C9000B9898C9185FFEDCFCE010E941006E7CF78
:100CA000DF91CF910895CF92DF92FF920F931F9320
:100CB000CF93DF931F92CDB7DEB76C01DC015B965B
:100CC0009C915B975C968C915C97981307C05096AB
:100CD000ED91FC915197808185FD32C0F601038D25
:100CE00010E00F5F1F4F0F731127F02EF601848D58
:100CF000F81211C00FB607FCF9CFD6015096ED914E
:100D0000FC915197808185FFF1CFC60169830E94D4
:100D100010066981EBCF838DE80FF11DE35AFF4F79
:100D20006083D6015B960C935B975296ED91FC9194
:100D3000539780818062808381E058968C930DC0A8
:100D4000D6015696ED91FC91579760835096ED91A0
:100D5000FC91519780818064808381E090E00F90C6
:100D6000DF91CF911F910F91FF90DF90CF90089569
:100D7000BF92CF92DF92EF92FF92CF93DF93EC017D
:100D80006A017B01B22EE889F98982E080834115EE
:100D900081EE580761057105A1F060E079E08DE30F
:100DA00090E0A70196010E943B08215031094109BA
:100DB00051095695479537952795211580E13807B4
:100DC00098F0E889F989108260E874E88EE190E093
:100DD000A70196010E943B082150310941095109A0
:100DE0005695479537952795EC85FD853083EE859B
:100DF000FF852083188EEC89FD89B082EA89FB8902
:100E0000808180618083EA89FB898081886080831A
:100E1000EA89FB89808180688083EA89FB898081F7
:100E20008F7D8083DF91CF91FF90EF90DF90CF9007
:100E3000BF9008951F920F920FB60F9211242F9317
:100E40008F939F93EF93FF93E0911502F091160219
:100E50008081E0911B02F0911C0282FD12C0908102
:100E600080911E028F5F8F7320911F02821751F0B5
:100E7000E0911E02F0E0EB5FFD4F958F80931E0224
:100E800001C08081FF91EF919F918F912F910F90E1
:100E90000FBE0F901F9018951F920F920FB60F92D2
:100EA00011242F933F934F935F936F937F938F936F
:100EB0009F93AF93BF93EF93FF9385E092E00E94DF
:100EC0001006FF91EF91BF91AF919F918F917F910C
:100ED0006F915F914F913F912F910F900FBE0F90A7
:100EE0001F90189585E092E00E94D50521E0892B9E
:100EF00009F420E0822F0895109208021092070250
:100F000088EE93E0A0E0B0E08093090290930A029B
:100F1000A0930B02B0930C0287E291E0909306023B
:100F20008093050285EC90E0909312028093110269
:100F300084EC90E0909314028093130280EC90E094
:100F4000909316028093150281EC90E09093180222
:100F50008093170282EC90E090931A02809319021A
:100F600086EC90E090931C0280931B0210921E026C
:100F700010921F02109220021092210208950895EB
:100F80000E943B050E94BF070E948400C2E0D6E099
:100F90000E9491002097E1F30E940206F9CFCF92C0
:100FA000DF92EF92FF920F931F93CF93DF936C0129
:100FB0007A01EB01E60EF71E00E010E0CE15DF052A
:100FC00061F06991D601ED91FC910190F081E02DE5
:100FD000C6010995080F191FF1CFC801DF91CF9104
:100FE0001F910F91FF90EF90DF90CF9008956115C2
:100FF000710581F0DB010D900020E9F7AD01415052
:101000005109461B570BDC01ED91FC910280F381E5
:10101000E02D099480E090E00895DC01ED91FC91D1
:101020000190F081E02D09940F931F93CF93DF93EC
:10103000EC016DE00E940D088C016AE0CE010E9477
:101040000D08800F911FDF91CF911F910F9108958F
:101050000F931F93CF93DF93EC010E94F7078C014E
:10106000CE010E941408800F911FDF91CF911F9134
:101070000F9108950895A1E21A2EAA1BBB1BFD0132
:101080000DC0AA1FBB1FEE1FFF1FA217B307E40767
:10109000F50720F0A21BB30BE40BF50B661F771FBF
:1010A000881F991F1A9469F760957095809590959F
:1010B0009B01AC01BD01CF010895EE0FFF1F05900C
:0A10C000F491E02D0994F894FFCF9D
:1010CA0030302D30302D30302030303A30303A3018
:1010DA00307800000000001C02EF01C401CC01DFDF
:1010EA0001EE01000000005306CF07D505EE05E02A
:0410FA0005310600B6
:00000001FF
