:100000000C9499000C94C1000C94C1000C94C10094
:100010000C94C1000C94C1000C94C1000C94C1005C
:100020000C94C1000C94C1000C94C1000C94C1004C
:100030000C94C1000C94C1000C94C1000C94C1003C
:100040000C9453080C94C1000C94C70A0C94F90A40
:100050000C94C1000C94C1000C94C1000C94C1001C
:100060000C9426070C94C100B204D5048B04D5046B
:10007000D5044804D504D504FD03D504D504D5041E
:10008000A403B303D504D504D504EE03D504D504E5
:100090005C047504D504D0032904D504D5040C04EC
:1000A000D504DF038404D504D504D504D504D504D0
:1000B000D5044804D504D504FD03D504D504D504DE
:1000C000A403B303D504D504D504EE03D504D504A5
:1000D0005C046D04D504D0032904D504D5041A04A6
:1000E000D504DF037D0400000008000201000003C6
:1000F00004070000000000000000010204081020B6
:1001000040800102040810200102040810200404A9
:1001100004040404040402020202020203030303AF
:10012000030300000000250028002B0062024406A3
:10013000290B11241FBECFEFD8E0DEBFCDBF14E0E6
:10014000A0E0B1E0E6E1FAE102C005900D92A6362A
:10015000B107D9F725E0A6E6B4E001C01D92A63D9F
:10016000B207E1F711E0C2E3D1E004C02297FE013B
:100170000E94F10CCC32D107C9F70E946D0B0C9490
:10018000090D0C940000FC01828186FB882780F910
:100190000895FC019281292F2F7096FF05C0969536
:1001A00096959695927004C09695969596959670AC
:1001B000892F880F880F890F820F90E00895FC0126
:1001C000228126FF04C025FB222720F906C00E94B9
:1001D000C90021E00C970CF420E0822F0895FC0167
:1001E0002381922F9695969596959E71892F880FCB
:1001F000880F890F2F70820F90E00895FC016C33F7
:10020000710560F4862F6AE00E94AD0C20E1829FA8
:10021000900D112480818078982B90830895FC01A3
:100220006C33710548F4862F6AE00E94AD0C20E122
:10023000829F900D112491830895FC01228126FF55
:100240000FC0CB0101970C97B8F4862F6AE00E948B
:10025000AD0C30E1839F900D11242076922B0BC0C2
:100260006931710548F4862F6AE00E94AD0C20E1E7
:10027000829F900D112492830895FC0122812F7991
:10028000206422830895FC01228120662283089540
:10029000FF920F931F93CF93DF938C01FC01F280A9
:1002A000F6FC1CC00E94C900EC018C30910524F4BE
:1002B000C8010E943D0105C02C978F2D8066F80172
:1002C0008283209711F4CCE0D0E0BE01C801DF9119
:1002D000CF911F910F91FF900C941D01DF91CF9151
:1002E0001F910F91FF900895FF920F931F93CF934B
:1002F000DF93EC01FA80F6FE1BC00E94C9008C015E
:100300008C30910511F400E010E0CE010E94DF0076
:10031000882311F0045F1F4F8F2D8F7B8A83B801D4
:10032000CE01DF91CF911F910F91FF900C941D0191
:10033000DF91CF911F910F91FF900895FC01CB01A8
:100340000197079728F4862F6AE00E94AD0C9383EB
:100350000895FC01CB0101974F9748F4862F6AE07E
:100360000E94AD0C20E1829F900D1124948308958A
:10037000FC01CB0101970C9748F4862F6AE00E949C
:10038000AD0C20E1829F900D112495830895FC010E
:100390006436710548F4862F6AE00E94AD0C20E1B6
:1003A000829F900D1124968308956F706A3010F427
:1003B00080E301C087E3860F089570E024E075951F
:1003C00067952A95E1F70C94D501FF920F931F933F
:1003D000CF93DF93EC018B016E810E94DD01F80168
:1003E00080836E81CE010E94D501F80181834DE2A8
:1003F000F42EF2826D816F71CE010E94DD01F80151
:1004000083836D81CE010E94D501F8018483F5823A
:100410006C816F73CE010E94DD01F80186836C81CF
:10042000CE010E94D501F801878380E280876A812E
:1004300066FF02C06F7101C06F73CE010E94DD01C3
:10044000F80181876A81CE010E94D501F801828777
:100450003AE3F32EF38669816F77CE010E94DD01C6
:10046000F80184876981CE010E94D501F801858752
:10047000F68668816F77CE010E94DD01F8018787DB
:100480006881CE010E94D501F801808B8A8186FFA8
:100490000DC0CE010E94DF00882311F080E501C06D
:1004A00081E4F801818B82E190E002C081E190E07B
:1004B000F801E80FF91F1082DF91CF911F910F9182
:1004C000FF90089580E794E00C940806CF93DF93A3
:1004D000D82FC62F68E670E080E794E00E942C06D3
:1004E0006D2F80E794E00E94C9056C2F80E794E0AF
:1004F0000E94C90580E794E0DF91CF910C944106FA
:10050000862F603418F4642F0C94660208956430CA
:1005100050F4FC01278120782061262B2783622F4D
:1005200087E00C9466020895FC0160816068608336
:1005300080E00C94660240E8649F90011124FC0165
:1005400067816F76622B678387E00C946602FC01FB
:1005500060816F77608380E00C946602CF93DF93B5
:10056000EC0160E880E00E94660268E670E080E7E7
:1005700094E00E942C0661E080E794E00E94C905A7
:10058000698180E794E00E94C9056A8180E794E070
:100590000E94C9056B8180E794E00E94C9056C81C7
:1005A00080E794E00E94C9056D8180E794E00E9495
:1005B000C9056E8180E794E00E94C90580E794E058
:1005C0000E944106688180E0DF91CF910C94660221
:1005D000CF93DF93EC0168E670E080E794E00E943F
:1005E0002C0660E080E794E00E94C90580E794E073
:1005F0000E94410648E050E068E670E080E794E041
:100600000E941F0680E794E00E947905888380E7B6
:1006100094E00E947905898380E794E00E9479053F
:100620008A8380E794E00E9479058B8380E794E0D9
:100630000E9479058C8380E794E00E9479058D8380
:1006400080E794E00E9479058E8380E794E00E9421
:1006500079058F83DF91CF910895CF93C62F6034B2
:10066000E0F468E670E080E794E00E942C066C2FCE
:1006700080E794E00E94C90580E794E00E9441066B
:1006800041E050E068E670E080E794E00E941F06D9
:1006900080E794E00E94790501C08FEFCF91089523
:1006A00026E040E855E260E070E089E395E00C94D4
:1006B000650A0F931F93CF93DF9310E0C0E0D0E063
:1006C0000AE089E395E00E948209892BC9F01111A3
:1006D00017C089E395E00E949B0990ED980F9A302E
:1006E00068F49E01029FE001039FD00D1124992719
:1006F00087FD9095C097C80FD91FE3CF11E0E1CFD8
:10070000CE01DF91CF911F910F9108950F931F9309
:10071000CF93DF9389E395E00E948209892B09F446
:1007200092C189E395E00E949B09992787FD9095E6
:10073000A92FB92FFC01FC97EF33F10508F035C163
:10074000EC5CFF4F0C94EF0C0E945903EC01BC01D0
:1007500086E694E00E941D0186E694E00E94AE02C7
:1007600063E171E00EC00E945903EC01BC0186E612
:1007700094E00E940F0186E694E00E94AE0265E2DA
:1007800071E089E395E00E94BA0B4AE050E0BE01B7
:1007900089E395E0DF91CF911F910F910C94940C18
:1007A0000E945903EC01BC0186E694E00E94FE0021
:1007B00086E694E00E94AE0269E371E0E2CF0E9417
:1007C0005903EC01BC0186E694E00E94C70186E66D
:1007D00094E00E94AE026DE471E0D3CF0E94590311
:1007E000EC01BC0186E694E00E94B80186E694E044
:1007F0000E94AE026EE571E0C4CF0E945903EC0185
:10080000BC0186E694E00E94A90186E694E00E947D
:10081000AE0260E771E0B5CF61E871E089E395E091
:100820000E94BA0B86E694E00E94EF004AE050E096
:10083000BC01AECF0E945903EC01BC0186E694E0F6
:100840000E949E0186E694E00E94AE0261E971E09A
:1008500098CF86E694E00E94C300882339F086E6AC
:1008600094E00E94740169EA71E006C086E694E0B3
:100870000E94480165EC71E089E395E00E94D70B86
:1008800086E694E0DF91CF911F910F910C94AE0218
:1008900086E694E00E94C300882359F086E694E03F
:1008A0000E943D0186E694E00E94AE0261EE71E096
:1008B000C2C069EE71E0BFC086E694E00E94C3004A
:1008C0008823B9F386E694E00E94430186E694E02B
:1008D0000E94AE026BE072E0AEC060E086E694E09B
:1008E0000E94870263E172E0A6C060E086E694E0C1
:1008F0000E949B0261E372E09EC086E694E00E9443
:10090000A70263E572E097C086E694E00E94940235
:100910006DE672E090C00E945903C82F092F0E9413
:100920005903D82F192F482F6C2F86E694E00E9488
:10093000800267E872E089E395E00E94BA0B4AE022
:1009400050E06C2F702F89E395E00E948C0C6AE9CF
:1009500072E089E395E00E94BA0B4AE050E06D2F07
:10096000712F16CF0E945903C82F192F682F86E6C2
:1009700094E00E942D03D82F66EA72E089E395E0A7
:100980000E94BA0B4AE050E06C2F712F89E395E08A
:100990000E948C0C6AE972E089E395E00E94BA0B30
:1009A0006D2F70E04AE050E0F3CE6AEB72E089E32D
:1009B00095E00E94D70B66ED72E089E395E00E9416
:1009C000D70B66EF72E089E395E00E94D70B69E1EF
:1009D00073E089E395E00E94D70B6BE373E089E352
:1009E00095E00E94D70B6CE573E089E395E00E94E7
:1009F000D70B65E773E089E395E00E94D70B89E3A5
:100A000095E00E94C30B6CE873E089E395E00E94D7
:100A1000D70B6CEA73E089E395E00E94D70B89E37A
:100A200095E00E94C30B60ED73E089E395E00E94BE
:100A3000D70B6EEF73E089E395E0DF91CF911F91C3
:100A40000F910C94D70BDF91CF911F910F910895C7
:100A500089E395E00E948209892B11F00E948603A8
:100A600068EB7BE080E090E00E94C00886E694E0BE
:100A70000E94E80260916E0470916F046F5F7F4F77
:100A800070936F0460936E044AE050E089E395E050
:100A90000E948C0C63E274E089E395E00E94BA0B3B
:100AA00060E071E086E694E00E94E50160E071E0BC
:100AB00089E395E00E94BA0B89E395E00E94C30B9D
:100AC00080916E0490916F0469E170E00E94B90C0E
:100AD000892B31F466E274E089E395E00C94D70B3E
:100AE00008958091A00490E02091A104821B9109B7
:100AF00008952091A1048091A004281750F4E22FBA
:100B0000F0E0EE55FB4F808190E02F5F2093A10431
:100B100008958FEF9FEF0895E091A1048091A004C4
:100B2000E81730F4F0E0EE55FB4F808190E0089537
:100B30008FEF9FEF08950895CF92DF92EF92FF928B
:100B40000F931F93CF93DF937C01CB018A012091F8
:100B50007C04222389F0EB016B01C40ED51ECC1559
:100B6000DD0569F06991D701ED91FC910190F0816B
:100B7000E02DC7010995F3CF642F0E94FD06C8013F
:100B8000DF91CF911F910F91FF90EF90DF90CF9069
:100B90000895CF93DF931F92CDB7DEB7698320917D
:100BA0007C042223D1F020917D04203240F021E00A
:100BB00030E0FC013383228380E090E015C0809117
:100BC0007E04E82FF0E0E158FB4F998190838F5F1E
:100BD00080937E0480937D0405C061E0CE01019680
:100BE0000E94FD0681E090E00F90DF91CF91089583
:100BF000FC011382128248EE53E060E070E044830F
:100C000055836683778389E494E091838083089594
:100C10001092A1041092A00410927E0410927D0400
:100C20000C944806862F413208F040E262EA74E0F4
:100C30000E9466061092A1048093A004089521E00A
:100C40000C94120681E080937C0460939F041092C0
:100C50007E0410927D0408950C9422060F93062FB3
:100C600021E040917D046FE774E080919F040E9431
:100C7000AA0610927E0410927D0410927C040F91BB
:100C8000089561E00C942E0680E794E00C94F8053A
:100C900010922F0581E080932D0510922C0561E0C4
:100CA00082E10E944C0961E083E10E944C09E9EB7A
:100CB000F0E080818E7F808380818D7F808388E4D7
:100CC0008093B80085E48093BC000895413208F019
:100CD0003FC090912F059111FCCF91E090932F058B
:100CE00020932D052FEF2093C20410920705240FA7
:100CF0002093060590932E0590912E05880F892B41
:100D000080932E0580912C05813041F410922C05A2
:100D100080912E058093BB0085EC01C085EE809309
:100D2000BC0080912F058130E1F380910705841785
:100D300010F44091070528E035E0FB01D9018A2F26
:100D4000821B841718F48D918193F9CF842F089515
:100D500080E008950F93413208F046C090912F052E
:100D60009111FCCF92E090932F0500932D059FEFFA
:100D70009093C2041092070540930605FB0168E0BA
:100D800075E0DB019A2F961B941718F491919D93AF
:100D9000F9CF10922E0590912E05880F892B809304
:100DA0002E0580912C05813041F410922C05809104
:100DB0002E058093BB0085EC01C085EE8093BC00BE
:100DC000222321F080912F058230E1F38091C2042B
:100DD0008F3F61F08091C204803251F08091C20453
:100DE000803341F483E007C081E005C080E003C0A8
:100DF00082E001C084E00F910895613298F420915F
:100E00002F05243089F46093E404FC0186EE94E01D
:100E1000DC012A2F281B261718F421912D93F9CFD6
:100E200080E0089581E0089582E0089585ED809343
:100E3000BC008091BC0084FDFCCF10922F0508956A
:100E400085EC8093BC0010922F0508951F920F929D
:100E50000FB60F9211242F933F934F935F936F938D
:100E60007F938F939F93AF93BF93EF93FF93809163
:100E7000B900887F803609F49CC068F5883209F48F
:100E80005BC090F4803109F454C038F4882309F42D
:100E9000F5C0883009F44DC0F5C0883109F44CC064
:100EA000803209F45DC0EEC0803409F468C048F4B3
:100EB000803309F455C0883309F0E4C08093C2043C
:100EC000A8C0803509F44FC0883509F45DC0883466
:100ED00009F0D8C0D5C0883909F4C6C0A8F488374D
:100EE00009F467C038F4883609F463C0803709F420
:100EF00060C0C8C0883809F4B7C0803909F45FC041
:100F0000803809F0BFC05BC0803B09F485C038F46D
:100F1000803A09F466C0883A09F47EC0B3C0803CC8
:100F200009F4A6C0883C09F4A3C0883B09F489C031
:100F3000A9C080912E0510C09091070580910605EB
:100F4000981770F5E091070581E08E0F80930705F3
:100F5000F0E0E85FFA4F80818093BB0085EC85C0AC
:100F60008093C2048DC0E091070581E08E0F8093CD
:100F700007058091BB00F0E0E85FFA4F8083909115
:100F80000705809106056DC0E091070581E08E0F91
:100F9000809307058091BB00F0E0E85FFA4F808303
:100FA00080912D0581116CC081E080932C0584EA2D
:100FB00060C083E080932F051092C304CFCF80914F
:100FC000C304803208F050C0E091C30481E08E0F6A
:100FD0008093C3048091BB00F0E0EC53FB4F80830F
:100FE000BDCF8091C304803230F4E091C304F0E0BF
:100FF000EC53FB4F10820E9416076091C30470E00F
:10100000E0912805F091290584EC94E0099510926F
:10101000C3040E94200736C084E080932F051092FD
:10102000E5041092E404E0912A05F0912B0509955E
:101030008091E404811105C081E08093E404109262
:10104000E604E091E50481E08E0F8093E504F0E092
:10105000EA51FB4F80818093BB009091E504809121
:10106000E404981708F47ACF85E88093BC000AC09E
:1010700085EC8093BC0010922F0504C01092C2042E
:101080000E941607FF91EF91BF91AF919F918F91B1
:101090007F916F915F914F913F912F910F900FBE74
:1010A0000F901F9018951F920F920FB60F92112458
:1010B0002F933F938F939F93AF93BF93809131056D
:1010C00090913205A0913305B091340530913005EF
:1010D00023E0230F2D3720F40196A11DB11D05C07B
:1010E00026E8230F0296A11DB11D209330058093A1
:1010F000310590933205A0933305B0933405809168
:10110000350590913605A0913705B09138050196C7
:10111000A11DB11D8093350590933605A093370529
:10112000B0933805BF91AF919F918F913F912F91CF
:101130000F900FBE0F901F9018953FB7F8948091B5
:10114000350590913605A0913705B091380526B543
:10115000A89B05C02F3F19F00196A11DB11D3FBFEF
:101160006627782F892F9A2F620F711D811D911D7F
:1011700042E0660F771F881F991F4A95D1F708959F
:10118000CF92DF92EF92FF92CF93DF936B017C01BE
:101190000E949D08EB01C114D104E104F10489F01F
:1011A0000E94AC0C0E949D086C1B7D0B683E734036
:1011B00090F381E0C81AD108E108F108C851DC4F6A
:1011C000EACFDF91CF91FF90EF90DF90CF9008951D
:1011D000789484B5826084BD84B5816084BD85B512
:1011E000826085BD85B5816085BDEEE6F0E08081D9
:1011F00081608083E1E8F0E01082808182608083FA
:10120000808181608083E0E8F0E08081816080837C
:10121000E1EBF0E0808184608083E0EBF0E08081AE
:1012200081608083EAE7F0E0808184608083808150
:1012300082608083808181608083808180688083F8
:101240001092C1000895833081F028F4813099F024
:101250008230A1F008958730A9F08830B9F0843049
:10126000D1F4809180008F7D03C0809180008F77C2
:1012700080938000089584B58F7702C084B58F7DF8
:1012800084BD08958091B0008F7703C08091B00035
:101290008F7D8093B00008950F931F93CF93DF93BA
:1012A0001F92CDB7DEB7282F30E0F901EA51FF4F8A
:1012B0008491F901E650FF4F1491F901E25FFE4F6E
:1012C00004910023C9F0882321F069830E94230937
:1012D0006981E02FF0E0EE0FFF1FEE5DFE4FA5915C
:1012E000B4919FB7F8948C91611103C0109581233C
:1012F00001C0812B8C939FBF0F90DF91CF911F91E5
:101300000F910895FC01818D228D90E0805C9F4FAC
:10131000821B91098F7399270895FC01918D828D0D
:10132000981731F0828DE80FF11D858D90E00895BA
:101330008FEF9FEF0895FC01918D828D981761F0DA
:10134000828DDF01A80FB11D5D968C91928D9F5FFC
:101350009F73928F90E008958FEF9FEF08958FE134
:101360009BE0892B49F080E090E0892B29F00E94D6
:101370001F0B81110C9400000895FC01848DDF0186
:10138000A80FB11DA35ABF4F2C91848D90E00196F8
:101390008F739927848FA689B7892C93A089B189E7
:1013A0008C9180648C93938D848D981306C00288F1
:1013B000F389E02D80818F7D80830895CF93DF9323
:1013C000EC01888D8823C9F0EA89FB89808185FD3D
:1013D00005C0A889B9898C9186FD0FC00FB607FC9E
:1013E000F5CF808185FFF2CFA889B9898C9185FFDF
:1013F000EDCFCE010E94BD09E7CFDF91CF910895D7
:10140000CF92DF92FF920F931F93CF93DF931F92A0
:10141000CDB7DEB76C01DC015B969C915B975C9667
:101420008C915C97981307C05096ED91FC91519761
:10143000808185FD32C0F601038D10E00F5F1F4FE4
:101440000F731127F02EF601848DF81211C00FB61C
:1014500007FCF9CFD6015096ED91FC915197808110
:1014600085FFF1CFC60169830E94BD096981EBCF79
:10147000838DE80FF11DE35AFF4F6083D6015B9621
:101480000C935B975296ED91FC915397808180620B
:10149000808381E058968C930DC0D6015696ED91CD
:1014A000FC91579760835096ED91FC915197808104
:1014B0008064808381E090E00F90DF91CF911F9155
:1014C0000F91FF90DF90CF900895BF92CF92DF925F
:1014D000EF92FF92CF93DF93EC016A017B01B22E72
:1014E000E889F98982E08083411581EE580761051A
:1014F0007105A1F060E079E08DE390E0A70196012D
:101500000E94CD0C2150310941095109569547954A
:1015100037952795211580E1380798F0E889F989F2
:10152000108260E874E88EE190E0A70196010E94C5
:10153000CD0C2150310941095109569547953795F0
:101540002795EC85FD853083EE85FF852083188EF9
:10155000EC89FD89B082EA89FB8980818061808382
:10156000EA89FB89808188608083EA89FB898081A0
:1015700080688083EA89FB8980818F7D8083DF9109
:10158000CF91FF90EF90DF90CF90BF9008951F9282
:101590000F920FB60F9211242F938F939F93EF9377
:1015A000FF93E0914905F0914A058081E0914F0554
:1015B000F091500582FD12C09081809152058F5F9D
:1015C0008F7320915305821751F0E0915205F0E09E
:1015D000E75CFA4F958F8093520501C08081FF919F
:1015E000EF919F918F912F910F900FBE0F901F90B1
:1015F00018951F920F920FB60F9211242F933F93BD
:101600004F935F936F937F938F939F93AF93BF930A
:10161000EF93FF9389E395E00E94BD09FF91EF915D
:10162000BF91AF919F918F917F916F915F914F91FA
:101630003F912F910F900FBE0F901F90189589E347
:1016400095E00E94820921E0892B09F420E0822F95
:10165000089510923C0510923B0588EE93E0A0E0BF
:10166000B0E080933D0590933E05A0933F05B09375
:10167000400589E594E090933A058093390585EC1F
:1016800090E0909346058093450584EC90E090931C
:1016900048058093470580EC90E090934A0580933D
:1016A000490581EC90E090934C0580934B0582ECCA
:1016B00090E090934E0580934D0586EC90E09093DA
:1016C000500580934F0510925205109253051092C9
:1016D000540510925505089508950E94E8080E9447
:1016E0006C0B0E945003CFEAD9E00E942805209796
:1016F000E1F30E94AF09F9CFCF92DF92EF92FF9210
:101700000F931F93CF93DF936C017A01EB01E60EE9
:10171000F71E00E010E0CE15DF0561F06991D601FB
:10172000ED91FC910190F081E02DC6010995080F23
:10173000191FF1CFC801DF91CF911F910F91FF9039
:10174000EF90DF90CF9008956115710581F0DB0176
:101750000D900020E9F7AD0141505109461B570B90
:10176000DC01ED91FC910280F381E02D099480E091
:1017700090E008950C94A40BDC01ED91FC91019094
:10178000F081E02D09940F931F93CF93DF93EC0129
:101790006DE00E94BC0B8C016AE0CE010E94BC0B84
:1017A000800F911FDF91CF911F910F9108950F939B
:1017B0001F93CF93DF93EC010E94A40B8C01CE0109
:1017C0000E94C30B800F911FDF91CF911F910F914A
:1017D00008958F929F92AF92BF92CF92DF92EF9235
:1017E000FF920F931F93CF93DF93CDB7DEB7A197EF
:1017F0000FB6F894DEBF0FBECDBF7C01C42EE52F1F
:10180000CB01D22E19A221E02D1510F02AE0D22E04
:101810008E010F5D1F4F8D2C912CA12CB12C6C2DA6
:101820007E2FA50194010E94CD0C8C2DD29E801993
:101830001124015011098A3014F4805D01C0895CC3
:10184000F8018083211531054105510521F0C22E93
:10185000E32FCA01E4CFB801C7010E94A40BA196EF
:101860000FB6F894DEBF0FBECDBFDF91CF911F91B1
:101870000F91FF90EF90DF90CF90BF90AF909F902F
:101880008F900895CF92DF92EF92FF920F931F9364
:10189000CF93DF93EC016A017B012115310579F4C7
:1018A000E881F9810190F081E02D642FDF91CF91E3
:1018B0001F910F91FF90EF90DF90CF9009942A3005
:1018C0003105E9F477FF1AC06DE20E94BC0B8C0170
:1018D00044275527BA014C195D096E097F092AE092
:1018E000CE010E94E90B800F911FDF91CF911F91D4
:1018F0000F91FF90EF90DF90CF9008952AE0B7010D
:10190000A601CE01DF91CF911F910F91FF90EF9033
:10191000DF90CF900C94E90B9A01AB01662757FD3D
:101920006095762F0C94420C0F931F93CF93DF9307
:10193000EC019A01AB01662757FD6095762F0E9456
:10194000420C8C01CE010E94C30B800F911FDF91CE
:10195000CF911F910F9108950895991B79E004C0CC
:10196000991F961708F0961B881F7A95C9F78095DE
:10197000089597FB072E16F4009407D077FD09D041
:101980000E94F50C07FC05D03EF4909581959F4F81
:101990000895709561957F4F0895A1E21A2EAA1BB4
:1019A000BB1BFD010DC0AA1FBB1FEE1FFF1FA2170F
:1019B000B307E407F50720F0A21BB30BE40BF50B0C
:1019C000661F771F881F991F1A9469F76095709595
:1019D000809590959B01AC01BD01CF010895EE0F5C
:1019E000FF1F0590F491E02D0994AA1BBB1B51E148
:1019F00007C0AA1FBB1FA617B70710F0A61BB70B7F
:101A0000881F991F5A95A9F780959095BC01CD0123
:061A10000895F894FFCFD9
:101A160030302D30302D30302030303A30303A30C2
:101A260030780053657474696E6720686F757273D9
:101A360020746F200053657474696E67206D696E3B
:101A46007574657320746F200053657474696E67CE
:101A5600207365636F6E647320746F200053657422
:101A660074696E67207965617220746F2000536512
:101A76007474696E67206D6F6E746820746F2000D1
:101A860053657474696E67206461746520746F2091
:101A960000446179206F66207765656B2069732045
:101AA6000053657474696E6720646179206F6620DF
:101AB6007765656B20746F20005377697463686976
:101AC6006E6720746F2032342D686F757220636CD8
:101AD6006F636B2E00537769746368696E67207451
:101AE6006F2031322D686F757220636C6F636B2EB9
:101AF6000053657420414D2E002853657420686F8D
:101B0600757273206F6E6C7920696E2032342D6881
:101B16006F7572206D6F64652E29005365742050B1
:101B26004D2E005371756172652077617665206F61
:101B360075747075742073657420746F2031487ADB
:101B4600005371756172652077617665206F7574D3
:101B56007075742064697361626C656420286C6FAB
:101B6600772900436C6F636B206F7363696C6C61DC
:101B7600746F7220737461727465642E00436C6FA7
:101B8600636B206F7363696C6C61746F722073741E
:101B96006F707065642E00577269746520746F20CB
:101BA60072656769737465722000207468652076B3
:101BB600616C75652000526561642066726F6D20E8
:101BC60072656769737465722000556E6B6E6F7708
:101BD6006E20636F6D6D616E642E20547279207471
:101BE600686573653A0020682323202D2073657489
:101BF60020486F75727320642323202D207365742B
:101C060020446174650020692323202D20736574A8
:101C1600206D496E75746573206D2323202D207306
:101C26006574204D6F6E74680020732323202D2069
:101C3600736574205365636F6E6473207923232064
:101C46002D20736574205965617200207723232047
:101C56002D207365742061726269747261727920D5
:101C6600646179206F66205765656B002074202DAE
:101C760020746F67676C652032342D686F7572202B
:101C86006D6F6465002061202D2073657420414DC1
:101C96002070202D2073657420504D00207A202D51
:101CA60020737461727420636C6F636B205A202DED
:101CB6002073746F7020636C6F636B002071202D2E
:101CC600205351572F4F5554203D2031487A2051EB
:101CD600202D2073746F70205351572F4F55540089
:101CE600203E23232C232323202D2077726974651D
:101CF60020746F20726567697374657220232320D0
:101D06007468652076616C75652023232300203C6A
:101D16002323202D20726561642074686520766116
:101D26006C756520696E20726567697374657220CB
:101D36002323003A200053656E64203F20666F72AD
:101D46002061206C697374206F6620636F6D6D610E
:101D56006E64732E0000000000C9059C05710579AC
:101D6600058C059B0500000000000A7C0B82099B80
:061D7600098D09DE0900E1
:00000001FF
