:100000000C945E000C9486000C9486000C94860080
:100010000C9486000C9486000C9473020C94860059
:100020000C9486000C9486000C9486000C94860038
:100030000C9486000C9486000C9486000C94860028
:100040000C94EA060C9486000C9497090C94C90948
:100050000C9486000C9486000C9486000C94860008
:100060000C94BD050C9486000000000800020100FD
:100070000003040700000000000000000102040863
:100080001020408001020408102001020408102002
:10009000040404040404040402020202020203032E
:1000A0000303030300000000250028002B000000CC
:1000B0000000240027002A00DB04F90911241FBED8
:1000C000CFEFD8E0DEBFCDBF11E0A0E0B1E0E4E1CA
:1000D000FEE102C005900D92AE39B107D9F723E0D9
:1000E000AEE9B1E001C01D92A530B207E1F710E022
:1000F000CCEBD0E004C02297FE010E94040FC83B65
:10010000D107C9F70E943D0A0C94080F0C94000017
:10011000DC01ED91FC910190F081E02D09941F9399
:10012000CF93DF93162FEA0166E370E08FE991E049
:100130000E94C3046EEF70E08FE991E00E94880096
:10014000612F8FE991E00E946004BE018FE991E088
:100150000E9488008FE991E0DF91CF911F910C946C
:10016000D80440E050E064E50C948F0040E050E09B
:1001700060E40C948F00FF920F931F93CF93DF9353
:10018000F62EEA01890166E370E08FE991E00E94B2
:10019000C3046F2D8FE991E00E9460048FE991E024
:1001A0000E94D80442E050E066E370E08FE991E0FD
:1001B0000E94B6048FE991E00E9408048FE991E063
:1001C0000E94100488838FE991E00E941004F801D6
:1001D00080838FE991E0DF91CF911F910F91FF9084
:1001E0000C94D804CF92DF92EF92FF92CF93DF93DB
:1001F00000D0CDB7DEB71A8219829E012F5F3F4F24
:10020000AE014E5F5F4F64E00E94BB006A8170E008
:1002100080E090E00E94C50D6B017C01698170E077
:1002200080E090E00E94C50D20E030E040E85BE314
:100230000E94790E9B01AC01C701B6010E94C20C5D
:100240000F900F90DF91CF91FF90EF90DF90CF90C4
:100250000895CF93DF9300D0CDB7DEB71A8219820D
:100260009E012F5F3F4FAE014E5F5F4F68E00E94DF
:10027000BB0089810F900F90DF91CF910895CF93AC
:10028000DF9300D0CDB7DEB71A8219829E012F5FAF
:100290003F4FAE014E5F5F4F6CE00E94BB00298173
:1002A0002F7180E290E0821B91090F900F90DF91F7
:1002B000CF910895CF93DF9300D0CDB7DEB71A82E8
:1002C00019829E012F5F3F4FAE014E5F5F4F6CE082
:1002D0000E94BB00898185FB882780F90F900F90D1
:1002E000DF91CF910895CF93DF9300D0CDB7DEB7E4
:1002F0001A8219829E012F5F3F4FAE014E5F5F4F02
:100300006CE00E94BB009981892F881F8827881F75
:100310000F900F90DF91CF910895EF92FF920F937E
:100320001F93CF93DF93EC010E943F018C01CE011C
:100330000E947301E82ECE010E945A01F82ECE01D0
:100340000E942901C82F62E071E088E692E00E94D5
:100350008A0A40E150E06C2F88E692E00E94900B00
:100360006DE071E088E692E00E948A0A6E2D70E0EE
:1003700040E150E088E692E00E94640B66E171E0A3
:1003800088E692E00E948A0A6F2D70E040E150E01A
:1003900088E692E00E94640B6FE171E088E692E0EB
:1003A0000E948A0A4AE050E0B80188E692E00E9482
:1003B0005C0B62E371E088E692E0DF91CF911F91E0
:1003C0000F91FF90EF900C94A70A81E00895CF92CF
:1003D000DF92EF92FF920F931F93CF93DF93EC0185
:1003E00068E670E08FE991E00E94C30460E070E08D
:1003F0008FE991E00E9488008FE991E00E94D80483
:1004000047E050E068E670E08FE991E00E94B604B2
:100410008FE991E00E9410048F77982F92959F703A
:100420001AEF082F919F000D11248FE991E00E948F
:1004300010049C013327F4E035952795FA95E1F7F0
:10044000F82E129FF00C11248FE991E00E94100405
:100450009C013327A4E035952795AA95E1F7E82E6E
:10046000129FE00C11248FE991E00E9410048FE9A3
:1004700091E00E9410049C013327B4E03595279544
:10048000BA95E1F7D82E129FD00C11248FE991E094
:100490000E9410049C01332794E0359527959A9586
:1004A000E1F7C82E129FC00C11248FE991E00E9441
:1004B00010049C01332744E0359527954A95E1F7D0
:1004C000129F800D11248883C982DA82EB82FC821C
:1004D0000D83CE01DF91CF911F910F91FF90EF908F
:1004E000DF90CF9008951F920F920FB60F921124B4
:1004F0008F9388E10FB6F8948093600010926000AB
:100500000FBE8F910F900FBE0F901F90189580E433
:1005100080937C0087E880937A00089590917C0016
:100520008770987F892B80937C0080917A0080640B
:1005300080937A0080917A0086FDFCCF80917800CC
:10054000909179000895CF92DF92EF92FF928EE919
:1005500091E00E94F2006B017C0164E371E088E6A7
:1005600092E00E948A0A22E030E0B701A60188E604
:1005700092E00E94AE0CC701B601FF90EF90DF90B1
:10058000CF900895CF92DF92EF92FF9282E00E9487
:100590008E026AE070E080E090E00E94570782E0FF
:1005A0000E948E02BC0180E090E00E94C30D20E01A
:1005B00030E04AEF5EE30E94790E6B017C016EE34E
:1005C00071E088E692E00E948A0A22E030E0B701FA
:1005D000A60188E692E00E94AE0C64E670E080E03E
:1005E00090E00E945707C701B601FF90EF90DF909F
:1005F000CF900895CF93DF9383E00E948E026AE04C
:1006000070E080E090E00E94570783E00E948E0235
:10061000EC016CE471E088E692E00E948A0A4AE00C
:1006200050E0BE0188E692E00E94AD0BC43883E042
:10063000D80778F48091000190910101845D9E4F6C
:10064000C817D90730F4D0930101C093000181E0AD
:1006500005C0D0930101C093000180E0DF91CF91EC
:100660000895CF93DF9300D000D000D0CDB7DEB790
:10067000CE0101960E94E701698170E06053784FD6
:100680004AE050E088E692E00E94A70B6FE288E61D
:1006900092E00E948C0A4AE050E06A8188E692E08B
:1006A0000E94890B6FE288E692E00E948C0A4AE081
:1006B00050E06B8188E692E00E94890B60E288E658
:1006C00092E00E948C0A4AE050E06C8188E692E059
:1006D0000E94890B6AE388E692E00E948C0A4AE055
:1006E00050E06D8188E692E00E94890B6AE388E61B
:1006F00092E00E948C0A4AE050E06E8188E692E027
:100700000E94890B88E692E00E94930A68EE73E0EB
:1007100080E090E00E94570726960FB6F894DEBF5F
:100720000FBECDBFDF91CF9108950E94E50126E075
:1007300040E855E260E070E088E692E00E9435090A
:100740000E94870261E085E00E94E3078EE991E064
:100750000E94B1008EE991E00E94B6008EE991E01E
:100760000E948D0168EE73E080E090E00C945707E2
:10077000CF93DF9300D000D000D0CDB7DEB78FE9A4
:1007800091E00E949F04CE0101960E94E7018091B2
:10079000BC008A7B8093BC0060E082E10E941C0860
:1007A00060E083E10E941C088D8180FF02C061E04F
:1007B00001C060E085E00E941C080E9431030E9495
:1007C000A30220E030E040EA51E40E94750E87FD6C
:1007D00010C08D8180FF0DC061E085E00E941C0883
:1007E0000E94C2020E94FA02811103C069E571E011
:1007F00002C063E671E088E692E00E94A70A2696AE
:100800000FB6F894DEBF0FBECDBFDF91CF91089534
:100810008091CF0190E02091D001821B9109089531
:100820002091D0018091CF01281750F4E22FF0E001
:10083000EF52FE4F808190E02F5F2093D00108950A
:100840008FEF9FEF0895E091D0018091CF01E817DD
:1008500030F4F0E0EF52FE4F808190E008958FEF8A
:100860009FEF08950895CF92DF92EF92FF920F933A
:100870001F93CF93DF937C01CB018A012091AB01C1
:10088000222389F0EB016B01C40ED51ECC15DD05CA
:1008900069F06991D701ED91FC910190F081E02D13
:1008A000C7010995F3CF642F0E949405C801DF9119
:1008B000CF911F910F91FF90EF90DF90CF9008950F
:1008C000CF93DF931F92CDB7DEB769832091AB0141
:1008D0002223D1F02091AC01203240F021E030E021
:1008E000FC013383228380E090E015C08091AD014C
:1008F000E82FF0E0E255FE4F998190838F5F80935F
:10090000AD018093AC0105C061E0CE0101960E946B
:10091000940581E090E00F90DF91CF910895FC0164
:100920001382128248EE53E060E070E04483558306
:100930006683778384E791E09183808308951092A2
:10094000D0011092CF011092AD011092AC010C9425
:10095000DF04862F413208F040E261ED71E00E9431
:10096000FD041092D0018093CF01089521E00C94F2
:10097000A90481E08093AB016093CE011092AD0198
:100980001092AC0108950C94B9040F93062F21E046
:100990004091AC016EEA71E08091CE010E94410568
:1009A0001092AD011092AC011092AB010F9108951D
:1009B00061E00C94C5048FE991E00C948F041092CF
:1009C0005E0281E080935C0210925B0261E082E152
:1009D0000E941C0861E083E10E941C08E9EBF0E042
:1009E00080818E7F808380818D7F808388E4809367
:1009F000B80085E48093BC000895413208F03FC000
:100A000090915E029111FCCF91E090935E02209351
:100A10005C022FEF2093F10110923602240F2093F5
:100A2000350290935D0290915D02880F892B80932F
:100A30005D0280915B02813041F410925B028091F3
:100A40005D028093BB0085EC01C085EE8093BC0005
:100A500080915E028130E1F380913602841710F4B8
:100A60004091360227E332E0FB01D9018A2F821B35
:100A7000841718F48D918193F9CF842F089580E025
:100A800008950F93413208F046C090915E02911193
:100A9000FCCF92E090935E0200935C029FEF9093F4
:100AA000F1011092360240933502FB0167E372E0D8
:100AB000DB019A2F961B941718F491919D93F9CF0F
:100AC00010925D0290915D02880F892B80935D02E8
:100AD00080915B02813041F410925B0280915D0253
:100AE0008093BB0085EC01C085EE8093BC0022237F
:100AF00021F080915E028230E1F38091F1018F3F1D
:100B000061F08091F101803251F08091F1018033E8
:100B100041F483E007C081E005C080E003C082E0CB
:100B200001C084E00F910895613298F420915E0233
:100B3000243089F460931302FC0185E192E0DC012A
:100B40002A2F281B261718F421912D93F9CF80E026
:100B5000089581E0089582E0089585ED8093BC00BA
:100B60008091BC0084FDFCCF10925E02089585EC5C
:100B70008093BC0010925E0208951F920F920FB6F0
:100B80000F9211242F933F934F935F936F937F9313
:100B90008F939F93AF93BF93EF93FF938091B9008F
:100BA000887F803609F49CC068F5883209F45BC000
:100BB00090F4803109F454C038F4882309F4F5C066
:100BC000883009F44DC0F5C0883109F44CC080323A
:100BD00009F45DC0EEC0803409F468C048F4803385
:100BE00009F455C0883309F0E4C08093F101A8C02E
:100BF000803509F44FC0883509F45DC0883409F0A8
:100C0000D8C0D5C0883909F4C6C0A8F4883709F41B
:100C100067C038F4883609F463C0803709F460C0CF
:100C2000C8C0883809F4B7C0803909F45FC080387B
:100C300009F0BFC05BC0803B09F485C038F4803A3E
:100C400009F466C0883A09F47EC0B3C0803C09F458
:100C5000A6C0883C09F4A3C0883B09F489C0A9C098
:100C600080915D0210C090913602809135029817F4
:100C700070F5E091360281E08E0F80933602F0E04D
:100C8000E95CFD4F80818093BB0085EC85C080933B
:100C9000F1018DC0E091360281E08E0F8093360223
:100CA0008091BB00F0E0E95CFD4F808390913602BB
:100CB000809135026DC0E091360281E08E0F809305
:100CC00036028091BB00F0E0E95CFD4F80838091AB
:100CD0005C0281116CC081E080935B0284EA60C099
:100CE00083E080935E021092F201CFCF8091F201F7
:100CF000803208F050C0E091F20181E08E0F8093C5
:100D0000F2018091BB00F0E0ED50FE4F8083BDCF3B
:100D10008091F201803230F4E091F201F0E0ED5088
:100D2000FE4F10820E94AD056091F20170E0E091EB
:100D30005702F091580283EF91E009951092F20169
:100D40000E94B70536C084E080935E0210921402C0
:100D500010921302E0915902F0915A020995809184
:100D60001302811105C081E08093130210921502D5
:100D7000E091140281E08E0F80931402F0E0EB5EAC
:100D8000FD4F80818093BB009091140280911302EB
:100D9000981708F47ACF85E88093BC000AC085ECE8
:100DA0008093BC0010925E0204C01092F1010E9478
:100DB000AD05FF91EF91BF91AF919F918F917F9181
:100DC0006F915F914F913F912F910F900FBE0F90B8
:100DD0001F9018951F920F920FB60F9211242F9308
:100DE0003F938F939F93AF93BF93809160029091B5
:100DF0006102A0916202B091630230915F0223E030
:100E0000230F2D3720F40196A11DB11D05C026E842
:100E1000230F0296A11DB11D20935F0280936002F3
:100E200090936102A0936202B09363028091640286
:100E300090916502A0916602B09167020196A11D92
:100E4000B11D8093640290936502A0936602B093F3
:100E50006702BF91AF919F918F913F912F910F901A
:100E60000FBE0F901F9018953FB7F89480916402C1
:100E700090916502A0916602B091670226B5A89B89
:100E800005C02F3F19F00196A11DB11D3FBF662778
:100E9000782F892F9A2F620F711D811D911D42E0BD
:100EA000660F771F881F991F4A95D1F70895CF9233
:100EB000DF92EF92FF92CF93DF936B017C010E9450
:100EC0003407EB01C114D104E104F10489F00E945C
:100ED000C00C0E9434076C1B7D0B683E734090F37E
:100EE00081E0C81AD108E108F108C851DC4FEACF07
:100EF000DF91CF91FF90EF90DF90CF90089578949D
:100F000084B5826084BD84B5816084BD85B582600E
:100F100085BD85B5816085BDEEE6F0E080818160AC
:100F20008083E1E8F0E010828081826080838081AC
:100F300081608083E0E8F0E0808181608083E1EB84
:100F4000F0E0808184608083E0EBF0E0808181606C
:100F50008083EAE7F0E08081846080838081826022
:100F6000808380818160808380818068808310920B
:100F7000C1000895833081F028F4813099F08230E7
:100F8000A1F008958730A9F08830B9F08430D1F409
:100F9000809180008F7D03C0809180008F77809347
:100FA0008000089584B58F7702C084B58F7D84BD9D
:100FB00008958091B0008F7703C08091B0008F7D3D
:100FC0008093B0000895CF93DF9390E0FC01E45844
:100FD000FF4F2491FC01E057FF4F8491882349F192
:100FE00090E0880F991FFC01E255FF4FA591B49145
:100FF0008C559F4FFC01C591D4919FB7611108C0DA
:10100000F8948C91209582238C93888182230AC046
:10101000623051F4F8948C91322F309583238C9365
:101020008881822B888304C0F8948C91822B8C93C6
:101030009FBFDF91CF9108950F931F93CF93DF93BD
:101040001F92CDB7DEB7282F30E0F901E859FF4FE6
:101050008491F901E458FF4F1491F901E057FF4FD3
:1010600004910023C9F0882321F069830E94BA0704
:101070006981E02FF0E0EE0FFF1FEC55FF4FA591C7
:10108000B4919FB7F8948C91611103C0109581239E
:1010900001C0812B8C939FBF0F90DF91CF911F9147
:1010A0000F910895FC01818D228D90E0805C9F4F0F
:1010B000821B91098F7399270895FC01918D828D70
:1010C000981731F0828DE80FF11D858D90E008951D
:1010D0008FEF9FEF0895FC01918D828D981761F03D
:1010E000828DDF01A80FB11D5D968C91928D9F5F5F
:1010F0009F73928F90E008958FEF9FEF08958FEE8A
:1011000099E0892B49F080E090E0892B29F00E943A
:10111000EF0981110C9400000895FC01848DDF011A
:10112000A80FB11DA35ABF4F2C91848D90E001965A
:101130008F739927848FA689B7892C93A089B18949
:101140008C9180648C93938D848D981306C0028853
:10115000F389E02D80818F7D80830895CF93DF9385
:10116000EC01888D8823C9F0EA89FB89808185FD9F
:1011700005C0A889B9898C9186FD0FC00FB607FC00
:10118000F5CF808185FFF2CFA889B9898C9185FF41
:10119000EDCFCE010E948D08E7CFDF91CF9108956A
:1011A000CF92DF92FF920F931F93CF93DF931F9203
:1011B000CDB7DEB76C01DC015B969C915B975C96CA
:1011C0008C915C97981307C05096ED91FC915197C4
:1011D000808185FD32C0F601038D10E00F5F1F4F47
:1011E0000F731127F02EF601848DF81211C00FB67F
:1011F00007FCF9CFD6015096ED91FC915197808173
:1012000085FFF1CFC60169830E948D086981EBCF0C
:10121000838DE80FF11DE35AFF4F6083D6015B9683
:101220000C935B975296ED91FC915397808180626D
:10123000808381E058968C930DC0D6015696ED912F
:10124000FC91579760835096ED91FC915197808166
:101250008064808381E090E00F90DF91CF911F91B7
:101260000F91FF90DF90CF900895BF92CF92DF92C1
:10127000EF92FF92CF93DF93EC016A017B01B22ED4
:10128000E889F98982E08083411581EE580761057C
:101290007105A1F060E079E08DE390E0A70196018F
:1012A0000E94E00E21503109410951095695479598
:1012B00037952795211580E1380798F0E889F98955
:1012C000108260E874E88EE190E0A70196010E9428
:1012D000E00E21503109410951095695479537953E
:1012E0002795EC85FD853083EE85FF852083188E5C
:1012F000EC89FD89B082EA89FB89808180618083E5
:10130000EA89FB89808188608083EA89FB89808102
:1013100080688083EA89FB8980818F7D8083DF916B
:10132000CF91FF90EF90DF90CF90BF9008951F92E4
:101330000F920FB60F9211242F938F939F93EF93D9
:10134000FF93E0917802F09179028081E0917E0232
:10135000F0917F0282FD12C09081809181028F5FA7
:101360008F7320918202821751F0E0918102F0E0A8
:10137000E859FD4F958F8093810201C08081FF91D4
:10138000EF919F918F912F910F900FBE0F901F9013
:1013900018951F920F920FB60F9211242F933F931F
:1013A0004F935F936F937F938F939F93AF93BF936D
:1013B000EF93FF9388E692E00E948D08FF91EF91F2
:1013C000BF91AF919F918F917F916F915F914F915D
:1013D0003F912F910F900FBE0F901F90189588E6A8
:1013E00092E00E94520821E0892B09F420E0822F2C
:1013F000089510926B0210926A0288EE93E0A0E0CA
:10140000B0E080936C0290936D02A0936E02B09353
:101410006F0284E891E0909369028093680285EC02
:1014200090E0909375028093740284EC90E0909326
:1014300077028093760280EC90E09093790280931B
:10144000780281EC90E090937B0280937A0282ECA8
:1014500090E090937D0280937C0286EC90E09093E4
:101460007F0280937E02109281021092820210927B
:10147000830210928402089508950E947F070E94BB
:101480003C0A0E949503CFE7D8E00E94B80320975A
:10149000E1F30E947F08F9CFCF92DF92EF92FF92A3
:1014A0000F931F93CF93DF936C017A01EB01E60E4C
:1014B000F71E00E010E0CE15DF0561F06991D6015E
:1014C000ED91FC910190F081E02DC6010995080F86
:1014D000191FF1CFC801DF91CF911F910F91FF909C
:1014E000EF90DF90CF9008956115710581F0DB01D9
:1014F0000D900020E9F7AD0141505109461B570BF3
:10150000DC01ED91FC910280F381E02D099480E0F3
:1015100090E008950C94740ADC01ED91FC91019027
:10152000F081E02D09940F931F93CF93DF93EC018B
:101530006DE00E948C0A8C016AE0CE010E948C0A48
:10154000800F911FDF91CF911F910F9108950F93FD
:101550001F93CF93DF93EC010E94740A8C01CE019C
:101560000E94930A800F911FDF91CF911F910F91DD
:1015700008958F929F92AF92BF92CF92DF92EF9297
:10158000FF920F931F93CF93DF93CDB7DEB7A19751
:101590000FB6F894DEBF0FBECDBF7C01C42EE52F81
:1015A000CB01D22E19A221E02D1510F02AE0D22E67
:1015B0008E010F5D1F4F8D2C912CA12CB12C6C2D09
:1015C0007E2FA50194010E94E00E8C2DD29E8019E1
:1015D0001124015011098A3014F4805D01C0895C26
:1015E000F8018083211531054105510521F0C22EF6
:1015F000E32FCA01E4CFB801C7010E94740AA19683
:101600000FB6F894DEBF0FBECDBFDF91CF911F9113
:101610000F91FF90EF90DF90CF90BF90AF909F9091
:101620008F900895CF92DF92EF92FF920F931F93C6
:10163000CF93DF93EC016A017B012115310579F429
:10164000E881F9810190F081E02D642FDF91CF9145
:101650001F910F91FF90EF90DF90CF9009942A3067
:101660003105E9F477FF1AC06DE20E948C0A8C0103
:1016700044275527BA014C195D096E097F092AE0F4
:10168000CE010E94B90A800F911FDF91CF911F9167
:101690000F91FF90EF90DF90CF9008952AE0B7016F
:1016A000A601CE01DF91CF911F910F91FF90EF9096
:1016B000DF90CF900C94B90A9A01AB01662757FDD1
:1016C0006095762F0C94120B0F931F93CF93DF939B
:1016D000EC019A01AB01662757FD6095762F0E94B9
:1016E000120B8C01CE010E94930A800F911FDF9193
:1016F000CF911F910F9108952115310541F4DC011F
:10170000ED91FC910190F081E02D642F09940C94EF
:10171000B90A9A01462F50E060E070E00C947C0B0F
:101720000F931F93CF93DF93EC019A01462F50E064
:1017300060E070E00E947C0B8C01CE010E94930A55
:10174000800F911FDF91CF911F910F9108959A0102
:10175000AB0160E070E00C947C0B0F931F93CF9370
:10176000DF93EC019A01AB0160E070E00E947C0B1A
:101770008C01CE010E94930A800F911FDF91CF91BF
:101780001F910F9108954F925F926F927F928F9267
:101790009F92AF92BF92CF92DF92EF92FF920F9300
:1017A0001F93CF93DF93EC016A017B01B22E9A0164
:1017B000AB01C701B6010E94DC0E882319F060E975
:1017C00071E027C026013701E89477F82FEF3FEF4B
:1017D0004FE75FE7C301B2010E94DC0E81110DC02B
:1017E0002FEF3FEF4FE75FE7C301B2010E94260DE5
:1017F00018161CF464E971E00CC02FEF3FEF4FE7BF
:101800005FE4C701B6010E94750E1816ACF468E9D2
:1018100071E0CE01DF91CF911F910F91FF90EF907A
:10182000DF90CF90BF90AF909F908F907F906F9000
:101830005F904F900C94740A2FEF3FEF4FE75FECEF
:10184000C701B6010E94260D87FDE1CF20E030E000
:10185000A901C701B6010E94260D87FF0AC06DE2EB
:10186000CE010E948C0A8C01F7FAF094F7F8F094FC
:1018700002C000E010E0A12C60E070E080E09FE397
:10188000AB1441F020E030E040E251E40E942A0D28
:10189000A394F6CF9B01AC01C701B6010E94C20C14
:1018A0006B017C010E94970D2B013C010E94C30D2E
:1018B0009B01AC01C701B6010E94C10C6B017C0108
:1018C0002AE0B301A201CE010E94B90A080F191F34
:1018D000BB2039F06CE971E0CE010E94740A080F58
:1018E000191F7B2C772041F120E030E040E251E4E9
:1018F000C701B6010E94790E6B017C010E94920D16
:101900004B01AA2497FCA094BA2C2AE030E0B50140
:10191000A401CE010E94120B080F191FC501B401CA
:101920000E94C50D9B01AC01C701B6010E94C10C0C
:101930006B017C017A94D6CFC801DF91CF911F91C2
:101940000F91FF90EF90DF90CF90BF90AF909F905E
:101950008F907F906F905F904F9008950F931F939B
:10196000CF93DF93EC010E94C30B8C01CE010E9448
:10197000930A800F911FDF91CF911F910F910895CE
:1019800008955058BB27AA270ED075C166D130F0F4
:101990006BD120F031F49F3F11F41EF45BC10EF4C3
:1019A000E095E7FB51C1E92F77D180F3BA176207C1
:1019B00073078407950718F071F49EF58FC10EF434
:1019C000E0950B2EBA2FA02D0B01B90190010C014F
:1019D000CA01A0011124FF27591B99F0593F50F467
:1019E000503E68F11A16F040A22F232F342F4427BF
:1019F000585FF3CF469537952795A795F0405395B7
:101A0000C9F77EF41F16BA0B620B730B840BBAF086
:101A10009150A1F0FF0FBB1F661F771F881FC2F7F1
:101A20000EC0BA0F621F731F841F48F48795779505
:101A30006795B795F7959E3F08F0B3CF9395880FBC
:101A400008F09927EE0F979587950895D9D008F457
:101A500081E008950CD00FC107D140F0FED030F0E6
:101A600021F45F3F19F0F0C0511139C1F3C014D116
:101A700098F39923C9F35523B1F3951B550BBB2755
:101A8000AA2762177307840738F09F5F5F4F220F02
:101A9000331F441FAA1FA9F333D00E2E3AF0E0E8FB
:101AA00030D091505040E695001CCAF729D0FE2F47
:101AB00027D0660F771F881FBB1F261737074807D9
:101AC000AB07B0E809F0BB0B802DBF01FF2793588F
:101AD0005F4F2AF09E3F510568F0B6C000C15F3FDE
:101AE000ECF3983EDCF3869577956795B795F79577
:101AF0009F5FC9F7880F911D9695879597F908956F
:101B0000E1E0660F771F881FBB1F6217730784070A
:101B1000BA0720F0621B730B840BBA0BEE1F88F719
:101B2000E095089504D06894B111D9C00895BCD04F
:101B300088F09F5790F0B92F9927B751A0F0D1F0B6
:101B4000660F771F881F991F1AF0BA95C9F712C040
:101B5000B13081F0C3D0B1E00895C0C0672F782FB5
:101B60008827B85F39F0B93FCCF3869577956795AC
:101B7000B395D9F73EF490958095709561957F4F18
:101B80008F4F9F4F0895E89409C097FB3EF49095BE
:101B90008095709561957F4F8F4F9F4F9923A9F046
:101BA000F92F96E9BB279395F695879577956795D5
:101BB000B795F111F8CFFAF4BB0F11F460FF1BC019
:101BC0006F5F7F4F8F4F9F4F16C0882311F096E9AC
:101BD00011C0772321F09EE8872F762F05C066235A
:101BE00071F096E8862F70E060E02AF09A95660F13
:101BF000771F881FDAF7880F9695879597F90895CC
:101C0000990F0008550FAA0BE0E8FEEF161617060D
:101C1000E807F907C0F012161306E407F50798F075
:101C2000621B730B840B950B39F40A2661F0232B8E
:101C3000242B252B21F408950A2609F4A140A6950A
:101C40008FEF811D811D089597F99F6780E870E0EF
:101C500060E008959FEF80EC089500240A94161622
:101C6000170618060906089500240A94121613068A
:101C7000140605060895092E0394000C11F4882318
:101C800052F0BB0F40F4BF2B11F460FF04C06F5F34
:101C90007F4F8F4F9F4F089557FD9058440F551F0A
:101CA00059F05F3F71F04795880F97FB991F61F0DE
:101CB0009F3F79F087950895121613061406551F55
:101CC000F2CF4695F1DF08C0161617061806991FC1
:101CD000F1CF86957105610508940895E894BB27B6
:101CE00066277727CB0197F908958ADF08F48FEFED
:101CF00008950BD0C0CFB1DF28F0B6DF18F09523E0
:101D000009F0A2CFA7CF1124EACFC6DFA0F3959F99
:101D1000D1F3950F50E0551F629FF001729FBB27D2
:101D2000F00DB11D639FAA27F00DB11DAA1F649F7E
:101D30006627B00DA11D661F829F2227B00DA11D31
:101D4000621F739FB00DA11D621F839FA00D611DB7
:101D5000221F749F3327A00D611D231F849F600DD8
:101D6000211D822F762F6A2F11249F5750408AF011
:101D7000E1F088234AF0EE0FFF1FBB1F661F771F9D
:101D8000881F91505040A9F79E3F510570F05CCFDD
:101D9000A6CF5F3FECF3983EDCF386957795679589
:101DA000B795F795E7959F5FC1F7FE2B880F911DBB
:101DB0009695879597F9089523DF880B990B0895D9
:101DC000A1E21A2EAA1BBB1BFD010DC0AA1FBB1F3F
:101DD000EE1FFF1FA217B307E407F50720F0A21BB1
:101DE000B30BE40BF50B661F771F881F991F1A941E
:101DF00069F760957095809590959B01AC01BD0148
:101E0000CF010895EE0FFF1F0590F491E02D099486
:041E1000F894FFCF74
:101E1400FF0356657273696F6E203D2000536C6535
:101E24006570203D2000416C657274203D200041A6
:101E34006C657274205468726573686F6C64203DBD
:101E440020002500426174746572793A200054655B
:101E54006D70657261747572653A20005261696EC5
:101E64002056616C75653A200049276D20617761C1
:101E74006B650054696D6520666F7220626564004D
:101E84000000000060043304080410042304320436
:101E940000000000D0084C0A52086B085D08AE0828
:0E1EA4006E616E00696E66006F7666002E003D
:00000001FF
