:100000000C94B3000C94880B0C94B50B0C94A209BF
:100010000C94C6090C94EA090C94D5020C94DB00EC
:100020000C94DB000C94DB000C94DB000C94DB00E4
:100030000C94DB000C94DB000C94DB000C94DB00D4
:100040000C94E20B0C94DB000C948F0E0C94C10EFC
:100050000C94DB000C94DB000C94DB000C94DB00B4
:100060000C940C070C94DB0000C20100010011008D
:1000700011000C0000E100000A002500250021000D
:10008000009600001900390039003600127A00008D
:100090001F004600460044008070000022004D0012
:1000A0004D004A00004B00003600750075007200DC
:1000B000403800004A009C009C0099008025000008
:1000C0007200EC00EC00E900C0120000E900DA0167
:1000D000DA01D70160090000D701B603B603B30304
:1000E000B0040000B3036E076E076B0758020000F0
:1000F0006E07DC0EDC0ED80E2C010000DC0EC11DDC
:10010000C11DBE1D0000000800020100000304071D
:1001100000000000000000000102040810204080E0
:100120000102040810200102040810200404040441
:100130000404040402020202020203030303030391
:100140000000000023002600290000000000250018
:1001500028002B0000000000240027002A004C0586
:100160002A06F10E530511241FBECFEFD8E0DEBFE3
:10017000CDBF12E0A0E0B1E0E6EFFDE202C00590E5
:100180000D92A033B107D9F724E0A0E3B2E001C09B
:100190001D92AA30B207E1F711E0C4E6D1E004C035
:1001A0002297FE010E94B214CE35D107C9F70E94F2
:1001B000350F0C94EE160C940000DC01ED91FC91CF
:1001C0000190F081E02D09941F93CF93DF93162FB8
:1001D000EA0166E370E088E592E00E9412066EEFA5
:1001E00070E088E592E00E94DD00612F88E592E0F2
:1001F0000E94AF05BE0188E592E00E94DD0088E51F
:1002000092E0DF91CF911F910C94270640E050E0DF
:1002100064E50C94E40040E050E060E40C94E400F9
:10022000FF920F931F93CF93DF93F62EEA0189017C
:1002300066E370E088E592E00E9412066F2D88E583
:1002400092E00E94AF0588E592E00E94270642E016
:1002500050E066E370E088E592E00E94050688E5DC
:1002600092E00E94570588E592E00E945F0588832E
:1002700088E592E00E945F05F801808388E592E0BE
:10028000DF91CF911F910F91FF900C942706CF9291
:10029000DF92EF92FF92CF93DF9300D0CDB7DEB71E
:1002A0001A8219829E012F5F3F4FAE014E5F5F4F52
:1002B00064E00E9410016A8170E080E090E00E949A
:1002C0004B136B017C01698170E080E090E00E943B
:1002D0004B1320E030E040E85BE30E94FF139B01FA
:1002E000AC01C701B6010E9448120F900F90DF9138
:1002F000CF91FF90EF90DF90CF900895CF93DF9351
:1003000000D0CDB7DEB71A8219829E012F5F3F4F12
:10031000AE014E5F5F4F68E00E94100189810F902F
:100320000F90DF91CF910895CF93DF9300D0CDB799
:10033000DEB71A8219829E012F5F3F4FAE014E5FDA
:100340005F4F6CE00E94100129812F7180E290E0E4
:10035000821B91090F900F90DF91CF910895CF9359
:10036000DF9300D0CDB7DEB71A8219829E012F5FCE
:100370003F4FAE014E5F5F4F6CE00E9410018981DC
:1003800085FB882780F90F900F90DF91CF9108951A
:10039000CF93DF9300D0CDB7DEB71A8219829E01CA
:1003A0002F5F3F4FAE014E5F5F4F6CE00E94100128
:1003B0009981892F881F8827881F0F900F90DF91C0
:1003C000CF910895EF92FF920F931F93CF93DF93F6
:1003D000EC010E9494018C01CE010E94C801E82E1C
:1003E000CE010E94AF01F82ECE010E947E01C82FDF
:1003F00068E071E089E693E00E94900F40E150E0F0
:100400006C2F89E693E00E94A81063E171E089E611
:1004100093E00E94900F6E2D70E040E150E089E67D
:1004200093E00E947C106CE171E089E693E00E9409
:10043000900F6F2D70E040E150E089E693E00E945C
:100440007C1065E271E089E693E00E94900F4AE03B
:1004500050E0B80189E693E00E94741068E371E00F
:1004600089E693E0DF91CF911F910F91FF90EF907C
:100470000C94BF0F81E00895CF92DF92EF92FF922C
:100480000F931F93CF93DF93EC0168E670E088E54C
:1004900092E00E94120660E070E088E592E00E941F
:1004A000DD0088E592E00E94270647E050E068E61C
:1004B00070E088E592E00E94050688E592E00E94DF
:1004C0005F058F77982F92959F701AEF082F919F55
:1004D000000D112488E592E00E945F059C013327FE
:1004E000F4E035952795FA95E1F7F82E129FF00C78
:1004F000112488E592E00E945F059C013327A4E067
:1005000035952795AA95E1F7E82E129FE00C112466
:1005100088E592E00E945F0588E592E00E945F0511
:100520009C013327B4E035952795BA95E1F7D82E8D
:10053000129FD00C112488E592E00E945F059C0177
:10054000332794E0359527959A95E1F7C82E129FA9
:10055000C00C112488E592E00E945F059C013327BE
:1005600044E0359527954A95E1F7129F800D1124B7
:100570008883C982DA82EB82FC820D83CE01DF910F
:10058000CF911F910F91FF90EF90DF90CF90089542
:1005900083B78E7F83BF10923102109230026AE3DC
:1005A00071E08BE392E00C94BF0F1F920F920FB695
:1005B0000F9211248F9388E10FB6F8948093600016
:1005C000109260000FBE8F910F900FBE0F901F9082
:1005D000189514BEE0E6F0E088E1808381E6808330
:1005E000A89510927A0083B7817F846083BF83B718
:1005F000816083BF80E685BF80E485BF889583B72F
:100600008E7F83BF089580E480937C0087E8809389
:100610007A00089590917C008770987F892B809351
:100620007C0080917A00806480937A0080917A00C7
:1006300086FDFCCF809178009091790008950F930A
:100640001F93CF93DF938C01C0E0D0E0C017D10798
:1006500024F40E94E9022196F9CFDF91CF911F91F6
:100660000F91089583E090E00E941F0360E085E011
:100670000C94140D8091300290913102892B29F055
:1006800081E090E00E941F03F5CF089581E090E0A3
:1006900090933102809330020C943A0361E085E03C
:1006A0000E94140D82E090E00E941F03E09A66E42D
:1006B00071E08BE392E00E94BF0F81E090E09093A5
:1006C0003102809330020C943A0387E592E00E9455
:1006D00047016093370270933802809339029093F8
:1006E0003A02089582E00E940A0364E670E080E026
:1006F00090E00E944F0C82E00E940A03BC0180E05F
:1007000090E00E94491320E030E04AEF5EE30E944F
:10071000FF136093330270933402809335029093F9
:100720003602089583E00E940A036AE070E080E0E8
:1007300090E00E944F0C83E00E940A03843823E07B
:10074000920778F4209106013091070128533F4F1A
:100750008217930730F4909307018093060181E09C
:100760000895909307018093060180E0089588E53D
:1007700092E00E94EE050E9465030E9472030E94AF
:10078000920380933202ECEBF0E080818A7B8083DD
:1007900060E082E10E94140D60E083E10C94140D8E
:1007A000CF93DF9300D000D000D0CDB7DEB7CE011D
:1007B00001960E943C02698170E06053784F4AE0E4
:1007C00050E08BE392E00E94BF106FE28BE392E077
:1007D0000E94920F4AE050E06A818BE392E00E940F
:1007E000A1106FE28BE392E00E94920F4AE050E08A
:1007F0006B818BE392E00E94A11060E28BE392E0B8
:100800000E94920F4AE050E06C818BE392E00E94DC
:10081000A1106AE38BE392E00E94920F4AE050E05D
:100820006D818BE392E00E94A1106AE38BE392E07A
:100830000E94920F4AE050E06E818BE392E00E94AA
:10084000A1108BE392E00E94990F26960FB6F894C0
:10085000DEBF0FBECDBFDF91CF9108950E94B703D9
:100860000E94D0036EE571E08BE392E00E94900F4E
:1008700040913702509138026091390270913A02EA
:1008800022E030E08BE392E00E94B01168E671E074
:100890008BE392E00E94900F40913302509134021A
:1008A000609135027091360222E030E08BE392E0F5
:1008B0000E94B01180913202811103C066E771E09D
:1008C00002C062E871E08BE392E00E94BF0F65E72F
:1008D00071E08BE392E00C94BF0FCF93DF9300D0D5
:1008E00000D000D0CDB7DEB70E94B70369E871E051
:1008F000CE0101960E943012BE016F5F7F4F89E6E4
:1009000093E00E94AD0FBE016F5F7F4F8BE392E0DB
:100910000E94AD0F6091320270E04AE050E089E63B
:1009200093E00E947C106091320270E04AE050E057
:100930008BE392E00E947C10409137025091380284
:100940006091390270913A0222E030E089E693E04A
:100950000E94B011409137025091380260913902E3
:1009600070913A0222E030E08BE392E00E94B011F5
:1009700040913302509134026091350270913602F9
:1009800022E030E089E693E00E94B011409133020A
:1009900050913402609135027091360222E030E0CD
:1009A0008BE392E00E94B011CE0101960E94C21129
:1009B00026960FB6F894DEBF0FBECDBFDF91CF9164
:1009C00008950E943A0226E040E052EC61E070E0B7
:1009D00089E693E00E942D0E40E855E260E070E069
:1009E0008BE392E00E94900A0E94030361E085E09D
:1009F0000E94DB0C42E050E068EC72E081E00E9473
:100A0000680B87E592E00E94060187E592E00E946C
:100A10000B0187E592E00E94E20160E177E280E06D
:100A200090E00C944F0C0E942E0420E030E040E255
:100A300051E46091370270913802809139029091AF
:100A40003A020E94FB1387FD23C063E971E08BE348
:100A500092E00E94BF0F0E944E030E946D046CEA58
:100A600071E08BE392E00E94BF0F0E94460365ECA9
:100A700071E08BE392E00E94BF0F0E94320360EEB0
:100A800071E08BE392E00E94BF0F82E090E002C031
:100A90008CE89AE00C941F0320E04DE06CE08BE3BF
:100AA00092E00C94600A8BE392E00C94610B8091CD
:100AB000880290E020918902821B9109089520917B
:100AC000890280918802281750F4E22FF0E0E6575F
:100AD000FD4F808190E02F5F2093890208958FEF72
:100AE0009FEF0895E091890280918802E81730F421
:100AF000F0E0E657FD4F808190E008958FEF9FEF83
:100B000008950895CF92DF92EF92FF920F931F9373
:100B1000CF93DF937C01CB018A01209164022223D1
:100B200089F0EB016B01C40ED51ECC15DD0569F013
:100B30006991D701ED91FC910190F081E02DC70101
:100B40000995F3CF642F0E94E306C801DF91CF918E
:100B50001F910F91FF90EF90DF90CF900895CF936A
:100B6000DF931F92CDB7DEB7698320916402222301
:100B7000D1F020916502203240F021E030E0FC010C
:100B80003383228380E090E015C080916602E82FD5
:100B9000F0E0E959FD4F998190838F5F8093660261
:100BA0008093650205C061E0CE0101960E94E306D4
:100BB00081E090E00F90DF91CF910895FC011382C6
:100BC000128248EE53E060E070E044835583668310
:100BD000778385EF91E09183808308951092890255
:100BE0001092880210926602109265020C942E06F2
:100BF000862F413208F040E26AE872E00E944C061B
:100C00001092890280938802089521E00C94F805DF
:100C100081E08093640260938702109266021092D2
:100C2000650208950C9408060F93062F21E0409169
:100C3000650267E672E0809187020E94900610923A
:100C4000660210926502109264020F91089561E0AD
:100C50000C94140688E592E00C94DE0510921703BC
:100C600081E0809315031092140361E082E10E94F9
:100C7000140D61E083E10E94140DE9EBF0E0808146
:100C80008E7F808380818D7F808388E48093B8000D
:100C900085E48093BC000895413208F03FC09091F4
:100CA00017039111FCCF91E0909317032093150344
:100CB0002FEF2093AA021092EF02240F2093EE024E
:100CC0009093160390911603880F892B8093160337
:100CD00080911403813041F4109214038091160323
:100CE0008093BB0085EC01C085EE8093BC008091B1
:100CF00017038130E1F38091EF02841710F44091E3
:100D0000EF0220EF32E0FB01D9018A2F821B84170A
:100D100018F48D918193F9CF842F089580E0089580
:100D20000F93413208F046C0909117039111FCCF08
:100D300092E090931703009315039FEF9093AA02FC
:100D40001092EF024093EE02FB0160EF72E0DB01D4
:100D50009A2F961B941718F491919D93F9CF1092A6
:100D6000160390911603880F892B809316038091A8
:100D70001403813041F41092140380911603809380
:100D8000BB0085EC01C085EE8093BC00222321F0DE
:100D9000809117038230E1F38091AA028F3F61F0C6
:100DA0008091AA02803251F08091AA02803341F4EE
:100DB00083E007C081E005C080E003C082E001C09D
:100DC00084E00F910895613298F420911703243044
:100DD00089F46093CC02FC018EEC92E0DC012A2FB6
:100DE000281B261718F421912D93F9CF80E0089540
:100DF00081E0089582E0089585ED8093BC008091A4
:100E0000BC0084FDFCCF10921703089585EC8093FD
:100E1000BC001092170308951F920F920FB60F9205
:100E200011242F933F934F935F936F937F938F93EF
:100E30009F93AF93BF93EF93FF938091B900887F07
:100E4000803609F49CC068F5883209F45BC090F4E0
:100E5000803109F454C038F4882309F4F5C088308F
:100E600009F44DC0F5C0883109F44CC0803209F452
:100E70005DC0EEC0803409F468C048F4803309F4E2
:100E800055C0883309F0E4C08093AA02A8C0803519
:100E900009F44FC0883509F45DC0883409F0D8C022
:100EA000D5C0883909F4C6C0A8F4883709F467C0EA
:100EB00038F4883609F463C0803709F460C0C8C0CC
:100EC000883809F4B7C0803909F45FC0803809F068
:100ED000BFC05BC0803B09F485C038F4803A09F498
:100EE00066C0883A09F47EC0B3C0803C09F4A6C04D
:100EF000883C09F4A3C0883B09F489C0A9C080914B
:100F0000160310C09091EF028091EE02981770F5D1
:100F1000E091EF0281E08E0F8093EF02F0E0E0516C
:100F2000FD4F80818093BB0085EC85C08093AA0231
:100F30008DC0E091EF0281E08E0F8093EF028091EF
:100F4000BB00F0E0E051FD4F80839091EF02809173
:100F5000EE026DC0E091EF0281E08E0F8093EF0210
:100F60008091BB00F0E0E051FD4F8083809115033C
:100F700081116CC081E08093140384EA60C083E037
:100F8000809317031092AB02CFCF8091AB028032D7
:100F900008F050C0E091AB0281E08E0F8093AB026D
:100FA0008091BB00F0E0E455FD4F8083BDCF809180
:100FB000AB02803230F4E091AB02F0E0E455FD4F3B
:100FC00010820E94FC066091AB0270E0E091100379
:100FD000F09111038CEA92E009951092AB020E9405
:100FE000060736C084E0809317031092CD0210925A
:100FF000CC02E0911203F091130309958091CC0289
:10100000811105C081E08093CC021092CE02E09164
:10101000CD0281E08E0F8093CD02F0E0E253FD4FD0
:1010200080818093BB009091CD028091CC02981773
:1010300008F47ACF85E88093BC000AC085EC8093E1
:10104000BC001092170304C01092AA020E94FC0672
:10105000FF91EF91BF91AF919F918F917F916F9190
:101060005F914F913F912F910F900FBE0F901F9066
:10107000189520915A0330915B0328173907B9F46A
:101080009091180380911903981789F0E091180343
:10109000F0E0E65EFC4F80812091180330E02F5F86
:1010A0003F4F2F7333272093180390E008958FEF5D
:1010B0009FEF089520915A0330915B032817390759
:1010C00081F49091180380911903981751F0E091E1
:1010D0001803F0E0E65EFC4F8081992787FD90952C
:1010E00008958FEF9FEF089520915A0330915B038D
:1010F0002817390771F4809119032091180390E0A3
:10110000805C9F4F821B910960E470E00E947A141A
:10111000089580E090E0089520915A0330915B0398
:101120002817390739F48FB7F894109219031092E1
:1011300018038FBF0895DC015196ED91FC915297F1
:10114000208150968C91809582238083089520E0A1
:1011500001972FEF8F3F9207D9F7089520915A03F7
:1011600030915B032817390789F0FC01238D2E7F0E
:10117000238F2FB7F89410921903109218039093AD
:101180005B0380935A032FBF81E0089580E00895A8
:10119000EF92FF920F931F93CF93DF93EC018B8D10
:1011A000EE85FF859D8581FF04C08081892329F418
:1011B00045C08081892309F041C08B899C890E94A8
:1011C000A70808E010E0EE24E394F12C8D899E89B5
:1011D0000E94A708EE85FF8580819D85892311F0F7
:1011E000FE2803C08E2D8095F822EE0C01501109C7
:1011F00069F78F89988D0E94A7088B8D81FDF094E7
:10120000809119032091180390E001968F7399271C
:1012100030E08217930779F0E0911903F0E0E65E81
:10122000FC4FF0828091190390E001968F7399270B
:101230008093190303C08B8D81608B8FDF91CF91D9
:101240001F910F91FF90EF900895611102C00C94CF
:101250009B08DC015196ED91FC91529720815096AC
:101260008C91282B20830895DF92EF92FF920F93A9
:101270001F93CF93DF93EC01E62E898D9A8D892BF6
:1012800039F481E090E09B838A8380E090E049C05C
:10129000DFB6F8946B8D66956170CE010E942509CA
:1012A000898D9A8D05960E94A7088B8D08E010E025
:1012B000FF24F39481FF17C08F2D8E2121F0CE01E2
:1012C0000E949B0804C061E0CE010E942509898D1F
:1012D0009A8D0E94A708FF0C0150110969F7CE01F1
:1012E0000E949B0817C08F2D8E2129F061E0CE014E
:1012F0000E94250903C0CE010E949B08898D9A8D0A
:101300000E94A708FF0C0150110969F761E0CE01A6
:101310000E942509DFBE898D9A8D0E94A70881E071
:1013200090E0DF91CF911F910F91FF90EF90DF90B0
:10133000089580915A0390915B03009711F00C94EB
:10134000C80808951F920F920FB60F9211242F9381
:101350003F934F935F936F937F938F939F93AF933D
:10136000BF93EF93FF930E949909FF91EF91BF9173
:10137000AF919F918F917F916F915F914F913F912D
:101380002F910F900FBE0F901F9018951F920F92E4
:101390000FB60F9211242F933F934F935F936F9348
:1013A0007F938F939F93AF93BF93EF93FF930E948D
:1013B0009909FF91EF91BF91AF919F918F917F918B
:1013C0006F915F914F913F912F910F900FBE0F90B2
:1013D0001F9018951F920F920FB60F9211242F9302
:1013E0003F934F935F936F937F938F939F93AF93AD
:1013F000BF93EF93FF930E949909FF91EF91BF91E3
:10140000AF919F918F917F916F915F914F913F919C
:101410002F910F900FBE0F901F9018951F93CF9391
:10142000DF93EC01162F61E0812F0E94DB0C6B8DA6
:101430006695617081E06827812F0E94140D812FCD
:1014400090E0FC01E85EFE4FE491E88BFC01E45D76
:10145000FE4FE491F0E0EE0FFF1FE65BFE4F85913B
:1014600094919A8B898BDF91CF911F9108951F934F
:10147000CF93DF93EC01162F60E0812F0E94DB0CED
:101480008B8D81FD04C061E0812F0E94140D1C87AB
:10149000812F90E0FC01E85EFE4FE491ED87FC01B6
:1014A000E45DFE4FE491F0E0EE0FFF1FE05CFE4FC5
:1014B000859194919F878E87DF91CF911F91089599
:1014C000FF920F931F93CF93DF93EC01F62E522FD1
:1014D0001B821A8208EE13E020E030E00C831D83AB
:1014E0002E833F8385E092E0998388831C8A1B8A40
:1014F0001E8A1D8A188E1F8A1A8E198E8B8D8E7FDA
:1015000050FB81F98B8F642FCE010E940E0A6F2D44
:10151000CE01DF91CF911F910F91FF900C94370A6C
:101520000F931F93CF93DF93EC011A8E198E188EB1
:101530001F8A1E8A1D8AA8E6B0E080E090E0FD01C7
:101540000591159125913491041715072607370742
:1015500009F031C02CE0289FF001299FF00D1124E3
:10156000E459FF4F259134913C8B2B8B2CE0289F25
:10157000F001299FF00D1124E259FF4F259134917C
:101580003E8B2D8B2CE0289FF001299FF00D11241C
:10159000E059FF4F25913491388F2F8B2CE0289FF5
:1015A000F001299FF00D1124EE58FF4F8591949181
:1015B0009A8F898F08C001961C968D30910509F08D
:1015C000BECF1C8A1B8A8F89988D892B09F443C052
:1015D0008C858631E0F520916800883050F091E0EC
:1015E0008E3008F490E081E001C0880F9A95EAF708
:1015F00001C084E0822B809368002C85283038F06D
:101600002E3040F0263148F0E0E0F0E008C0EDE692
:10161000F0E005C0EBE6F0E002C0ECE6F0E030817F
:10162000283030F481E001C0880F2A95EAF70DC018
:10163000822F90E02E3010F4089701C00E9791E0B1
:1016400001C0990F8A95EAF7892F832B8083898DB2
:101650009A8D0E94A708CE01DF91CF911F910F9123
:101660000C94AE08FC014485463150F5483028F012
:101670004E3030F4EBE6F0E005C0EDE6F0E002C0FD
:10168000ECE6F0E05081483040F481E090E0042E38
:1016900001C0880F0A94EAF710C0242F30E04E30C2
:1016A00018F42850310902C02E50310981E090E031
:1016B000022E01C0880F0A94EAF780958523808363
:1016C000089525E032E0FC01318320830C94320B35
:1016D0008230E8F4E82FF0E0EE0FFF1FE45AFC4FF1
:1016E00071836083813041F0809169008C7F842B0D
:1016F00080936900E89A089580916900440F551F0E
:10170000440F551F837F842B80936900E99A0895C5
:101710001F920F920FB60F9211242F933F934F9366
:101720005F936F937F938F939F93AF93BF93EF9349
:10173000FF9380915C0390915D03892B29F0E091E8
:101740005C03F0915D030995FF91EF91BF91AF911B
:101750009F918F917F916F915F914F913F912F91C9
:101760000F900FBE0F901F9018951F920F920FB6FB
:101770000F9211242F933F934F935F936F937F9317
:101780008F939F93AF93BF93EF93FF9380915E03EB
:1017900090915F03892B29F0E0915E03F0915F0344
:1017A0000995FF91EF91BF91AF919F918F917F919B
:1017B0006F915F914F913F912F910F900FBE0F90BE
:1017C0001F9018951F920F920FB60F9211242F930E
:1017D0003F938F939F93AF93BF93809161039091B9
:1017E0006203A0916303B09164033091600323E02E
:1017F000230F2D3720F40196A11DB11D05C026E849
:10180000230F0296A11DB11D2093600380936103F5
:1018100090936203A0936303B09364038091650384
:1018200090916603A0916703B09168030196A11D92
:10183000B11D8093650390936603A0936703B093F3
:101840006803BF91AF919F918F913F912F910F901E
:101850000FBE0F901F9018953FB7F89480916503C5
:1018600090916603A0916703B091680326B5A89B89
:1018700005C02F3F19F00196A11DB11D3FBF66277E
:10188000782F892F9A2F620F711D811D911D42E0C3
:10189000660F771F881F991F4A95D1F70895CF9239
:1018A000DF92EF92FF92CF93DF936B017C010E9456
:1018B0002C0CEB01C114D104E104F10489F00E9465
:1018C00046120E942C0C6C1B7D0B683E734090F3FB
:1018D00081E0C81AD108E108F108C851DC4FEACF0D
:1018E000DF91CF91FF90EF90DF90CF9008957894A3
:1018F00084B5826084BD84B5816084BD85B5826015
:1019000085BD85B5816085BDEEE6F0E080818160B2
:101910008083E1E8F0E010828081826080838081B2
:1019200081608083E0E8F0E0808181608083E1EB8A
:10193000F0E0808184608083E0EBF0E08081816072
:101940008083EAE7F0E08081846080838081826028
:101950008083808181608083808180688083109211
:10196000C1000895833081F028F4813099F08230ED
:10197000A1F008958730A9F08830B9F08430D1F40F
:10198000809180008F7D03C0809180008F7780934D
:101990008000089584B58F7702C084B58F7D84BDA3
:1019A00008958091B0008F7703C08091B0008F7D43
:1019B0008093B0000895CF93DF9390E0FC01E85E40
:1019C000FE4F2491FC01E45DFE4F8491882349F190
:1019D00090E0880F991FFC01EC5AFE4FA591B4913D
:1019E000865B9E4FFC01C591D4919FB7611108C0E1
:1019F000F8948C91209582238C93888182230AC04D
:101A0000623051F4F8948C91322F309583238C936B
:101A10008881822B888304C0F8948C91822B8C93CC
:101A20009FBFDF91CF9108950F931F93CF93DF93C3
:101A30001F92CDB7DEB7282F30E0F901EC5FFE4FE3
:101A40008491F901E85EFE4F1491F901E45DFE4FC7
:101A500004910023C9F0882321F069830E94B20C0D
:101A60006981E02FF0E0EE0FFF1FE65BFE4FA591CE
:101A7000B4919FB7F8948C91611103C010958123A4
:101A800001C0812B8C939FBF0F90DF91CF911F914D
:101A90000F910895FC01818D228D90E0805C9F4F15
:101AA000821B91098F7399270895FC01918D828D76
:101AB000981731F0828DE80FF11D858D90E0089523
:101AC0008FEF9FEF0895FC01918D828D981761F043
:101AD000828DDF01A80FB11D5D968C91928D9F5F65
:101AE0009F73928F90E008958FEF9FEF089587EE98
:101AF0009EE0892B49F080E090E0892B29F00E943C
:101B0000E70E81110C9400000895FC01848DDF0123
:101B1000A80FB11DA35ABF4F2C91848D90E0019660
:101B20008F739927848FA689B7892C93A089B1894F
:101B30008C9180648C93938D848D981306C0028859
:101B4000F389E02D80818F7D80830895CF93DF938B
:101B5000EC01888D8823C9F0EA89FB89808185FDA5
:101B600005C0A889B9898C9186FD0FC00FB607FC06
:101B7000F5CF808185FFF2CFA889B9898C9185FF47
:101B8000EDCFCE010E94850DE7CFDF91CF91089573
:101B9000CF92DF92FF920F931F93CF93DF931F9209
:101BA000CDB7DEB76C01DC015B969C915B975C96D0
:101BB0008C915C97981307C05096ED91FC915197CA
:101BC000808185FD32C0F601038D10E00F5F1F4F4D
:101BD0000F731127F02EF601848DF81211C00FB685
:101BE00007FCF9CFD6015096ED91FC915197808179
:101BF00085FFF1CFC60169830E94850D6981EBCF16
:101C0000838DE80FF11DE35AFF4F6083D6015B9689
:101C10000C935B975296ED91FC9153978081806273
:101C2000808381E058968C930DC0D6015696ED9135
:101C3000FC91579760835096ED91FC91519780816C
:101C40008064808381E090E00F90DF91CF911F91BD
:101C50000F91FF90DF90CF900895BF92CF92DF92C7
:101C6000EF92FF92CF93DF93EC016A017B01B22EDA
:101C7000E889F98982E08083411581EE5807610582
:101C80007105A1F060E079E08DE390E0A701960195
:101C90000E948E14215031094109510956954795EA
:101CA00037952795211580E1380798F0E889F9895B
:101CB000108260E874E88EE190E0A70196010E942E
:101CC0008E14215031094109510956954795379590
:101CD0002795EC85FD853083EE85FF852083188E62
:101CE000EC89FD89B082EA89FB89808180618083EB
:101CF000EA89FB89808188608083EA89FB89808109
:101D000080688083EA89FB8980818F7D8083DF9171
:101D1000CF91FF90EF90DF90CF90BF9008951F92EA
:101D20000F920FB60F9211242F938F939F93EF93DF
:101D3000FF93E0917903F0917A038081E0917F0332
:101D4000F091800382FD12C09081809182038F5FA9
:101D50008F7320918303821751F0E0918203F0E0AA
:101D6000E759FC4F958F8093820301C08081FF91DA
:101D7000EF919F918F912F910F900FBE0F901F9019
:101D800018951F920F920FB60F9211242F933F9325
:101D90004F935F936F937F938F939F93AF93BF9373
:101DA000EF93FF9389E693E00E94850DFF91EF91F9
:101DB000BF91AF919F918F917F916F915F914F9163
:101DC0003F912F910F900FBE0F901F90189589E6AD
:101DD00093E00E944A0D21E0892B09F420E0822F34
:101DE000089510926C0310926B0388EE93E0A0E0CC
:101DF000B0E080936D0390936E03A0936F03B09354
:101E0000700385E192E090936A038093690385EC07
:101E100090E0909376038093750384EC90E0909328
:101E200078038093770380EC90E090937A0380931B
:101E3000790381EC90E090937C0380937B0382ECA8
:101E400090E090937E0380937D0386EC90E09093E6
:101E5000800380937F031092820310928303109279
:101E6000840310928503089508950E94770C0E94C0
:101E7000340F0E94E104C7E7DDE00E9413052097BC
:101E8000E1F30E94770DF9CFCF92DF92EF92FF92AC
:101E90000F931F93CF93DF936C017A01EB01E60E52
:101EA000F71E00E010E0CE15DF0561F06991D60164
:101EB000ED91FC910190F081E02DC6010995080F8C
:101EC000191FF1CFC801DF91CF911F910F91FF90A2
:101ED000EF90DF90CF9008956115710581F0DB01DF
:101EE0000D900020E9F7AD0141505109461B570BF9
:101EF000DC01ED91FC910280F381E02D099480E0FA
:101F000090E00895DC01ED91FC91DB0114964D9178
:101F10005C9115976D917C910280F381E02D09947D
:101F20000C946C0FDC01ED91FC910190F081E02D9F
:101F300009940F931F93CF93DF93EC016DE00E9400
:101F4000920F8C016AE0CE010E94920F800F911FC8
:101F5000DF91CF911F910F9108950F931F93CF930E
:101F6000DF93EC010E94820F8C01CE010E94990F39
:101F7000800F911FDF91CF911F910F9108950F93C3
:101F80001F93CF93DF93EC010E946C0F8C01CE0165
:101F90000E94990F800F911FDF91CF911F910F9198
:101FA00008958F929F92AF92BF92CF92DF92EF925D
:101FB000FF920F931F93CF93DF93CDB7DEB7A19717
:101FC0000FB6F894DEBF0FBECDBF7C01C42EE52F47
:101FD000CB01D22E19A221E02D1510F02AE0D22E2D
:101FE0008E010F5D1F4F8D2C912CA12CB12C6C2DCF
:101FF0007E2FA50194010E948E148C2DD29E8019F3
:102000001124015011098A3014F4805D01C0895CEB
:10201000F8018083211531054105510521F0C22EBB
:10202000E32FCA01E4CFB801C7010E946C0FA1964B
:102030000FB6F894DEBF0FBECDBFDF91CF911F91D9
:102040000F91FF90EF90DF90CF90BF90AF909F9057
:102050008F900895CF92DF92EF92FF920F931F938C
:10206000CF93DF93EC016A017B012115310579F4EF
:10207000E881F9810190F081E02D642FDF91CF910B
:102080001F910F91FF90EF90DF90CF9009942A302D
:102090003105E9F477FF1AC06DE20E94920F8C01BE
:1020A00044275527BA014C195D096E097F092AE0BA
:1020B000CE010E94D10F800F911FDF91CF911F9110
:1020C0000F91FF90EF90DF90CF9008952AE0B70135
:1020D000A601CE01DF91CF911F910F91FF90EF905C
:1020E000DF90CF900C94D10F9A01AB01662757FD7A
:1020F0006095762F0C942A100F931F93CF93DF9344
:10210000EC019A01AB01662757FD6095762F0E947E
:102110002A108C01CE010E94990F800F911FDF9130
:10212000CF911F910F9108952115310541F4DC01E4
:10213000ED91FC910190F081E02D642F09940C94B5
:10214000D10F9A01462F50E060E070E00C9494109B
:102150000F931F93CF93DF93EC019A01462F50E02A
:1021600060E070E00E9494108C01CE010E94990FF3
:10217000800F911FDF91CF911F910F9108959A01C8
:10218000AB0160E070E00C9494104F925F926F92FC
:102190007F928F929F92AF92BF92CF92DF92EF92F7
:1021A000FF920F931F93CF93DF93EC016A017B01A2
:1021B000B22E9A01AB01C701B6010E9462148823B6
:1021C00019F061E272E027C026013701E89477F840
:1021D0002FEF3FEF4FE75FE7C301B2010E946214A8
:1021E00081110DC02FEF3FEF4FE75FE7C301B20151
:1021F0000E94AC1218161CF465E272E00CC02FEFBE
:102200003FEF4FE75FE4C701B6010E94FB131816CA
:10221000ACF469E272E0CE01DF91CF911F910F9192
:10222000FF90EF90DF90CF90BF90AF909F908F90F6
:102230007F906F905F904F900C946C0F2FEF3FEF5B
:102240004FE75FECC701B6010E94AC1287FDE1CFFA
:1022500020E030E0A901C701B6010E94AC1287FF5F
:102260000AC06DE2CE010E94920F8C01F7FAF09441
:10227000F7F8F09402C000E010E0A12C60E070E0FC
:1022800080E09FE3AB1441F020E030E040E251E415
:102290000E94B012A394F6CF9B01AC01C701B60116
:1022A0000E9448126B017C010E941D132B013C010E
:1022B0000E9449139B01AC01C701B6010E9447125D
:1022C0006B017C012AE0B301A201CE010E94D10F73
:1022D000080F191FBB2039F06DE272E0CE010E9499
:1022E0006C0F080F191F7B2C772041F120E030E0A4
:1022F00040E251E4C701B6010E94FF136B017C016B
:102300000E9418134B01AA2497FCA094BA2C2AE02F
:1023100030E0B501A401CE010E942A10080F191F58
:10232000C501B4010E944B139B01AC01C701B6016A
:102330000E9447126B017C017A94D6CFC801DF91CD
:10234000CF911F910F91FF90EF90DF90CF90BF90B2
:10235000AF909F908F907F906F905F904F90089577
:102360000F931F93CF93DF93EC010E94C5108C0154
:10237000CE010E94990F800F911FDF91CF911F9185
:102380000F910895FC01808191810C944E15CF939B
:10239000DF93EC0188819981009711F00E944E151E
:1023A000198218821D821C821B821A82DF91CF91B2
:1023B00008950F931F93CF93DF93EC018B016F5F11
:1023C0007F4F888199810E94DD15009731F09983B4
:1023D00088831B830A8381E001C080E0DF91CF9175
:1023E0001F910F910895CF93DF93EC01888199811C
:1023F000892B29F08A819B818617970760F4CE018B
:102400000E94D911882341F08C819D81892B19F478
:10241000E881F981108281E0DF91CF910895EF92F8
:10242000FF920F931F93CF93DF93EC017B018A01FF
:10243000BA010E94F311811104C0CE010E94C7119C
:1024400007C01D830C83B701888199810E94B01653
:10245000CE01DF91CF911F910F91FF90EF900895E2
:10246000FC0111821082138212821582148261157E
:10247000710559F0FB0101900020E9F7AF014150CF
:102480005109461B570B0C940F120895089550588C
:10249000BB27AA270ED075C166D130F06BD120F0D2
:1024A00031F49F3F11F41EF45BC10EF4E095E7FB9D
:1024B00051C1E92F77D180F3BA17620773078407F8
:1024C000950718F071F49EF58FC10EF4E0950B2E70
:1024D000BA2FA02D0B01B90190010C01CA01A00176
:1024E0001124FF27591B99F0593F50F4503E68F1D1
:1024F0001A16F040A22F232F342F4427585FF3CF12
:10250000469537952795A795F0405395C9F77EF4E2
:102510001F16BA0B620B730B840BBAF09150A1F02B
:10252000FF0FBB1F661F771F881FC2F70EC0BA0FB1
:10253000621F731F841F48F4879577956795B79539
:10254000F7959E3F08F0B3CF9395880F08F0992731
:10255000EE0F979587950895D9D008F481E00895F6
:102560000CD00FC107D140F0FED030F021F45F3F16
:1025700019F0F0C0511139C1F3C014D198F3992367
:10258000C9F35523B1F3951B550BBB27AA27621737
:102590007307840738F09F5F5F4F220F331F441F7C
:1025A000AA1FA9F333D00E2E3AF0E0E830D09150B4
:1025B0005040E695001CCAF729D0FE2F27D0660FA1
:1025C000771F881FBB1F261737074807AB07B0E8E0
:1025D00009F0BB0B802DBF01FF2793585F4F2AF0F6
:1025E0009E3F510568F0B6C000C15F3FECF3983ED6
:1025F000DCF3869577956795B795F7959F5FC9F753
:10260000880F911D9695879597F90895E1E0660FDB
:10261000771F881FBB1F621773078407BA0720F054
:10262000621B730B840BBA0BEE1F88F7E0950895BD
:1026300004D06894B111D9C00895BCD088F09F57D8
:1026400090F0B92F9927B751A0F0D1F0660F771FFE
:10265000881F991F1AF0BA95C9F712C0B13081F0DE
:10266000C3D0B1E00895C0C0672F782F8827B85F26
:1026700039F0B93FCCF3869577956795B395D9F73F
:102680003EF490958095709561957F4F8F4F9F4F49
:102690000895E89409C097FB3EF490958095709555
:1026A00061957F4F8F4F9F4F9923A9F0F92F96E99E
:1026B000BB279395F695879577956795B795F11113
:1026C000F8CFFAF4BB0F11F460FF1BC06F5F7F4FB0
:1026D0008F4F9F4F16C0882311F096E911C07723C2
:1026E00021F09EE8872F762F05C0662371F096E8CB
:1026F000862F70E060E02AF09A95660F771F881F9A
:10270000DAF7880F9695879597F90895990F00083D
:10271000550FAA0BE0E8FEEF16161706E807F907B3
:10272000C0F012161306E407F50798F0621B730B4E
:10273000840B950B39F40A2661F0232B242B252BCF
:1027400021F408950A2609F4A140A6958FEF811D72
:10275000811D089597F99F6780E870E060E0089513
:102760009FEF80EC089500240A94161617061806A9
:102770000906089500240A94121613061406050685
:102780000895092E0394000C11F4882352F0BB0F16
:1027900040F4BF2B11F460FF04C06F5F7F4F8F4F79
:1027A0009F4F089557FD9058440F551F59F05F3FB4
:1027B00071F04795880F97FB991F61F09F3F79F063
:1027C00087950895121613061406551FF2CF4695E5
:1027D000F1DF08C0161617061806991FF1CF869567
:1027E0007105610508940895E894BB27662777274B
:1027F000CB0197F908958ADF08F48FEF08950BD085
:10280000C0CFB1DF28F0B6DF18F0952309F0A2CFD2
:10281000A7CF1124EACFC6DFA0F3959FD1F3950F80
:1028200050E0551F629FF001729FBB27F00DB11D54
:10283000639FAA27F00DB11DAA1F649F6627B00DE4
:10284000A11D661F829F2227B00DA11D621F739FCD
:10285000B00DA11D621F839FA00D611D221F749FDB
:102860003327A00D611D231F849F600D211D822F22
:10287000762F6A2F11249F5750408AF0E1F0882369
:102880004AF0EE0FFF1FBB1F661F771F881F915076
:102890005040A9F79E3F510570F05CCFA6CF5F3F37
:1028A000ECF3983EDCF3869577956795B795F795A9
:1028B000E7959F5FC1F7FE2B880F911D9695879531
:1028C00097F9089523DF880B990B0895AA1BBB1B6A
:1028D00051E107C0AA1FBB1FA617B70710F0A61B20
:1028E000B70B881F991F5A95A9F780959095BC0141
:1028F000CD01089597FB072E16F4009407D077FDBD
:1029000009D00E94661407FC05D03EF4909581958D
:102910009F4F0895709561957F4F0895A1E21A2EFB
:10292000AA1BBB1BFD010DC0AA1FBB1FEE1FFF1F73
:10293000A217B307E407F50720F0A21BB30BE40BC3
:10294000F50B661F771F881F991F1A9469F760950A
:102950007095809590959B01AC01BD01CF010895C4
:10296000EE0FFF1F0590F491E02D0994CF93DF93B4
:102970008230910510F482E090E0E0910804F0913B
:10298000090420E030E0A0E0B0E0309739F1408168
:10299000518148175907B8F04817590771F48281D7
:1029A0009381109729F013969C938E9312972CC0C5
:1029B000909309048093080427C02115310531F054
:1029C0004217530718F0A901DB0101C0EF019A017A
:1029D000BD01DF010280F381E02DD7CF2115310544
:1029E000F9F0281B390B2430310580F48A819B8152
:1029F0006115710521F0FB019383828304C09093DC
:102A0000090480930804FE01329644C0FE01E20FDF
:102A1000F31F8193919322503109398328833AC05F
:102A20002091060430910704232B41F420910201E8
:102A30003091030130930704209306042091000194
:102A4000309101012115310541F42DB73EB7409178
:102A5000040150910501241B350BE0910604F0910F
:102A60000704E217F307A0F42E1B3F0B28173907C2
:102A700078F0AC014E5F5F4F2417350748F04E0FDA
:102A80005F1F50930704409306048193919302C003
:102A9000E0E0F0E0CF01DF91CF910895CF93DF9395
:102AA000009709F487C0FC01329713821282C0910B
:102AB0000804D0910904209781F420813181280FE6
:102AC000391F80910604909107048217930779F5C6
:102AD000F0930704E09306046DC0DE0120E030E0CF
:102AE000AE17BF0750F412964D915C9113979D015C
:102AF0004115510509F1DA01F3CFB383A283408177
:102B00005181840F951F8A179B0771F48D919C91B9
:102B10001197840F951F02969183808312968D9151
:102B20009C911397938382832115310529F4F093A7
:102B30000904E09308043EC0D9011396FC93EE9378
:102B400012974D915D91A40FB51FEA17FB0779F419
:102B500080819181840F951F0296D90111969C93D3
:102B60008E938281938113969C938E931297E0E0CB
:102B7000F0E08A819B81009719F0FE01EC01F9CF0A
:102B8000CE01029628813981820F931F209106047D
:102B9000309107042817390769F4309729F4109207
:102BA00009041092080402C013821282D093070411
:102BB000C0930604DF91CF910895A0E0B0E0E3EE6A
:102BC000F5E10C94BB16EC01CB01209719F40E949F
:102BD000B614B8C0FE01E60FF71F9E01225031095E
:102BE000E217F30708F4ACC0D9010D911C911197BD
:102BF00006171707B8F00530110508F49FC0A801A3
:102C0000445051094617570708F498C0025011095B
:102C1000061B170B019311936D937C93CF010E94B8
:102C20004E158CC05B01A01AB10A4E01800E911E98
:102C3000A0910804B0910904612C712C60E070E04F
:102C4000109709F449C0A815B905C9F5ED90FC9095
:102C50001197670142E0C40ED11CCA14DB0478F15D
:102C600047018A189B08640142E0C40ED11C1296E9
:102C7000BC9012971396AC91B5E0CB16D10440F0FE
:102C8000B282A38391828082D9018D939C9309C0E3
:102C90000E5F1F4F0E0D1F1DF90111830083EB2DD9
:102CA000FA2F6115710531F0DB011396FC93EE9359
:102CB000129744C0F0930904E09308043FC06D915B
:102CC0007C9111976616770608F43B01BD011296B8
:102CD0000D90BC91A02DB4CF6091060470910704B3
:102CE00068157905E9F468167906D0F44091000179
:102CF000509101014115510541F44DB75EB7609106
:102D0000040170910501461B570BE417F507C0F449
:102D1000F0930704E0930604F901918380830EC0C9
:102D20000E94B6147C01009759F0A801BE010E94D0
:102D3000A716CE010E944E15C70104C0CE0102C0E5
:102D400080E090E0CDB7DEB7EEE00C94D716FB0143
:102D5000DC0102C001900D9241505040D8F7089517
:102D6000FB01DC0101900D920020E1F708952F9204
:102D70003F924F925F926F927F928F929F92AF920B
:102D8000BF92CF92DF92EF92FF920F931F93CF9358
:102D9000DF93CDB7DEB7CA1BDB0B0FB6F894DEBFEF
:102DA0000FBECDBF09942A88398848885F846E8415
:102DB0007D848C849B84AA84B984C884DF80EE805F
:102DC000FD800C811B81AA81B981CE0FD11D0FB668
:102DD000F894DEBF0FBECDBFED01089511E0C4E64B
:102DE000D1E004C0FE010E94B2142296C636D1077B
:062DF000C9F7F894FFCFC3
:102DF60000000A048000FF0356657273696F6E2037
:102E06003D2000536C656570203D2000416C657265
:102E160074203D2000416C6572742054687265739D
:102E2600686F6C64203D2000250049535220546F82
:102E360067676C656400496E74657272757074209C
:102E4600666C616720636C6561726564210042612E
:102E560074746572793A200054656D706572617498
:102E66007572653A2000436C65617220536B696523
:102E760073005261696E002C0048656C6C6F2050BF
:102E86006921005374617274696E672075702072CF
:102E96006173706265727279207069005761697436
:102EA600696E6720666F72207261737062657272F6
:102EB60079207069005368757474696E6720646F51
:102EC600776E207261737062657272792070690024
:102ED60052657374617274696E67206379636C6599
:102EE6000000000000AF05820557055F05720581E9
:102EF60005000000003409440F740839085A088C8C
:102F06000800000000C80D440F4A0D630D550DA6BC
:102F16000D6E616E00696E66006F7666002E0000AB
:00000001FF
